{
  "_format": "hh-sol-artifact-1",
  "contractName": "Organisation",
  "sourceName": "contractsOVM/contractsL2/2_OrganisationOVM.sol",
  "abi": [
    {
      "inputs": [],
      "stateMutability": "nonpayable",
      "type": "constructor"
    },
    {
      "inputs": [
        {
          "internalType": "string",
          "name": "_name",
          "type": "string"
        },
        {
          "internalType": "uint256",
          "name": "_goal",
          "type": "uint256"
        },
        {
          "internalType": "string",
          "name": "_description",
          "type": "string"
        },
        {
          "internalType": "uint256",
          "name": "_endTimestamp",
          "type": "uint256"
        },
        {
          "internalType": "address",
          "name": "_wantToken",
          "type": "address"
        },
        {
          "internalType": "string",
          "name": "_uri",
          "type": "string"
        }
      ],
      "name": "addCampaign",
      "outputs": [],
      "stateMutability": "nonpayable",
      "type": "function"
    },
    {
      "inputs": [
        {
          "internalType": "address",
          "name": "_member",
          "type": "address"
        }
      ],
      "name": "addMember",
      "outputs": [],
      "stateMutability": "nonpayable",
      "type": "function"
    },
    {
      "inputs": [],
      "name": "campaignCounter",
      "outputs": [
        {
          "internalType": "uint256",
          "name": "",
          "type": "uint256"
        }
      ],
      "stateMutability": "view",
      "type": "function"
    },
    {
      "inputs": [
        {
          "internalType": "uint256",
          "name": "",
          "type": "uint256"
        }
      ],
      "name": "campaigns",
      "outputs": [
        {
          "internalType": "contract Campaign",
          "name": "",
          "type": "address"
        }
      ],
      "stateMutability": "view",
      "type": "function"
    },
    {
      "inputs": [
        {
          "internalType": "address",
          "name": "",
          "type": "address"
        }
      ],
      "name": "members",
      "outputs": [
        {
          "internalType": "uint256",
          "name": "",
          "type": "uint256"
        }
      ],
      "stateMutability": "view",
      "type": "function"
    },
    {
      "inputs": [],
      "name": "owner",
      "outputs": [
        {
          "internalType": "address",
          "name": "",
          "type": "address"
        }
      ],
      "stateMutability": "view",
      "type": "function"
    }
  ],
  "bytecode": "0x608060405234801561001057600080fd5b50600180546001600160a01b03191633178082556001600160a01b0316600090815260026020526040902055611ffd8061004b6000396000f3fe608060405234801561001057600080fd5b50600436106100625760003560e01c806308ae4b0c14610067578063141961bc146100905780635b0ad2d5146100b05780638da5cb5b146100c5578063ca6d56dc146100cd578063fca604d7146100e0575b600080fd5b61007a6100753660046102af565b6100e8565b604051610087919061044b565b60405180910390f35b6100a361009e366004610377565b6100fa565b60405161008791906103da565b6100c36100be3660046102d0565b610115565b005b6100a36101de565b6100c36100db3660046102af565b6101ed565b61007a61020a565b60026020526000908152604090205481565b6003602052600090815260409020546001600160a01b031681565b3360009081526002602052604090205460011461013157600080fd5b4283116101595760405162461bcd60e51b8152600401610150906103ee565b60405180910390fd5b600080546001019081905560405187908790879087908790879061017c90610210565b61018c9796959493929190610454565b604051809103906000f0801580156101a8573d6000803e3d6000fd5b5060008054815260036020526040902080546001600160a01b0319166001600160a01b0392909216919091179055505050505050565b6001546001600160a01b031681565b6001600160a01b0316600090815260026020526040902060019055565b60005481565b611b0a80620004be83390190565b80356001600160a01b038116811461023557600080fd5b919050565b600082601f83011261024a578081fd5b813567ffffffffffffffff8082111561025f57fe5b604051601f8301601f19168101602001828111828210171561027d57fe5b604052828152848301602001861015610294578384fd5b82602086016020830137918201602001929092529392505050565b6000602082840312156102c0578081fd5b6102c98261021e565b9392505050565b60008060008060008060c087890312156102e8578182fd5b863567ffffffffffffffff808211156102ff578384fd5b61030b8a838b0161023a565b9750602089013596506040890135915080821115610327578384fd5b6103338a838b0161023a565b95506060890135945061034860808a0161021e565b935060a089013591508082111561035d578283fd5b5061036a89828a0161023a565b9150509295509295509295565b600060208284031215610388578081fd5b5035919050565b60008151808452815b818110156103b457602081850181015186830182015201610398565b818111156103c55782602083870101525b50601f01601f19169290920160200192915050565b6001600160a01b0391909116815260200190565b6020808252603a908201527f4f7267616e69736174696f6e3a3a61646443616d706169676e3a2043616d706160408201527f69676e206d75737420656e6420696e2074686520667574757265000000000000606082015260800190565b90815260200190565b600088825260e0602083015261046d60e083018961038f565b8760408401528281036060840152610485818861038f565b608084018790526001600160a01b03861660a085015283810360c085015290506104af818561038f565b9a995050505050505050505056fe60806040526004805460ff60a01b19169055600d80546001600160a01b0319908116731f98431c8ad98523631ae4a59f267346ea31f98417909155600e8054821673e592427a0aece92de3edee1f18e0157c05861564179055600f80548216734200000000000000000000000000000000000006179055601280549091167322f24361d548e5faafb36d1437839f080363982b179055348015620000a257600080fd5b5060405162001b0a38038062001b0a833981016040819052620000c59162000298565b60008790558551620000df90600190602089019062000151565b50600060025560038590558351620000ff90600590602087019062000151565b5060048054336001600160a01b0319918216179091556009849055600880549091166001600160a01b03841617905580516200014390600b90602084019062000151565b505050505050505062000364565b828054600181600116156101000203166002900490600052602060002090601f016020900481019282620001895760008555620001d4565b82601f10620001a457805160ff1916838001178555620001d4565b82800160010185558215620001d4579182015b82811115620001d4578251825591602001919060010190620001b7565b50620001e2929150620001e6565b5090565b5b80821115620001e25760008155600101620001e7565b600082601f8301126200020e578081fd5b81516001600160401b03808211156200022357fe5b6040516020601f8401601f19168201810183811183821017156200024357fe5b60405283825285840181018710156200025a578485fd5b8492505b838310156200027d57858301810151828401820152918201916200025e565b838311156200028e57848185840101525b5095945050505050565b600080600080600080600060e0888a031215620002b3578283fd5b875160208901519097506001600160401b0380821115620002d2578485fd5b620002e08b838c01620001fd565b975060408a0151965060608a0151915080821115620002fd578485fd5b6200030b8b838c01620001fd565b60808b015160a08c0151919750955091506001600160a01b038216821462000331578384fd5b60c08a01519193508082111562000346578283fd5b50620003558a828b01620001fd565b91505092959891949750929550565b61179680620003746000396000f3fe6080604052600436106101355760003560e01c806381426ec2116100ab578063b3d320101161006f578063b3d32010146102ea578063bb66834e146102ff578063bef4876b14610314578063d23e048014610329578063dec978281461033e578063dfca09221461035357610135565b806381426ec21461028157806387a22b22146102965780638da5cb5b146102ab578063ad5c4648146102c0578063af640d0f146102d557610135565b80632fdef9c3116100fd5780632fdef9c3146101d557806340193883146101f557806345737b1e1461021757806351906bb0146102375780635af7319c1461024c5780637284e4161461026c57610135565b806306fdde031461013a578063081752bb14610165578063089fe6aa146101875780631141d7de146101a95780631eaa1c8b146101be575b600080fd5b34801561014657600080fd5b5061014f610368565b60405161015c9190611372565b60405180910390f35b34801561017157600080fd5b5061017a6103f5565b60405161015c91906112ee565b34801561019357600080fd5b5061019c610404565b60405161015c9190611650565b3480156101b557600080fd5b5061014f61040a565b3480156101ca57600080fd5b506101d3610465565b005b3480156101e157600080fd5b5061014f6101f03660046111e3565b610575565b34801561020157600080fd5b5061020a6105eb565b60405161015c9190611660565b34801561022357600080fd5b506101d36102323660046111e3565b6105f1565b34801561024357600080fd5b5061020a6105f6565b61025f61025a366004611133565b6105fc565b60405161015c9190611367565b34801561027857600080fd5b5061014f610cbe565b34801561028d57600080fd5b5061017a610d19565b3480156102a257600080fd5b5061017a610d28565b3480156102b757600080fd5b5061017a610d37565b3480156102cc57600080fd5b5061017a610d46565b3480156102e157600080fd5b5061020a610d55565b3480156102f657600080fd5b5061017a610d5b565b34801561030b57600080fd5b5061020a610d6a565b34801561032057600080fd5b5061025f610d70565b34801561033557600080fd5b5061017a610d80565b34801561034a57600080fd5b5061020a610d8f565b34801561035f57600080fd5b5061017a610d95565b60018054604080516020600284861615610100026000190190941693909304601f810184900484028201840190925281815292918301828280156103ed5780601f106103c2576101008083540402835291602001916103ed565b820191906000526020600020905b8154815290600101906020018083116103d057829003601f168201915b505050505081565b6011546001600160a01b031681565b610bb881565b600b805460408051602060026001851615610100026000190190941693909304601f810184900484028201840190925281815292918301828280156103ed5780601f106103c2576101008083540402835291602001916103ed565b426009541061048f5760405162461bcd60e51b815260040161048690611520565b60405180910390fd5b6004546001600160a01b031633146104b95760405162461bcd60e51b815260040161048690611460565b6040516370a0823160e01b81526000906006602160991b01906370a08231906104e69030906004016112ee565b60206040518083038186803b1580156104fe57600080fd5b505afa158015610512573d6000803e3d6000fd5b505050506040513d601f19601f8201168201806040525081019061053691906111fb565b6004546040519192506001600160a01b03169082156108fc029083906000818181858888f19350505050158015610571573d6000803e3d6000fd5b5050565b6006818154811061058557600080fd5b600091825260209182902001805460408051601f60026000196101006001871615020190941693909304928301859004850281018501909152818152935090918301828280156103ed5780601f106103c2576101008083540402835291602001916103ed565b60035481565b600955565b60095481565b600081836001600160a01b03166370a08231336040518263ffffffff1660e01b815260040161062b91906112ee565b60206040518083038186803b15801561064357600080fd5b505afa158015610657573d6000803e3d6000fd5b505050506040513d601f19601f8201168201806040525081019061067b91906111fb565b10156106995760405162461bcd60e51b8152600401610486906113cf565b42600954116106ba5760405162461bcd60e51b8152600401610486906114cc565b6001600160a01b0383166106e05760405162461bcd60e51b81526004016104869061157d565b6008546000906001600160a01b03858116911614156107195761070283610da4565b905061070f858583610dc7565b6001915050610cb7565b600d54600854604051630b4c774160e11b81526000926001600160a01b0390811692631698ee8292610755928a921690610bb89060040161133f565b60206040518083038186803b15801561076d57600080fd5b505afa158015610781573d6000803e3d6000fd5b505050506040513d601f19601f820116820180604052508101906107a591906110f7565b6001600160a01b031614156107cc5760405162461bcd60e51b815260040161048690611412565b60408051600280825260608201835260009260208301908036833701905050905084816000815181106107fb57fe5b6001600160a01b03928316602091820292909201015260085482519116908290600190811061082657fe5b6001600160a01b0392831660209182029290920101526040516323b872dd60e01b81526000918291908816906323b872dd9061086a90339030908b90600401611302565b602060405180830381600087803b15801561088457600080fd5b505af1158015610898573d6000803e3d6000fd5b505050506040513d601f19601f820116820180604052508101906108bc9190611113565b506001600160a01b03871660009081526010602052604090205460ff16151560011461098f57600e5460405163095ea7b360e01b81526001600160a01b038981169263095ea7b392610918929091169060001990600401611326565b602060405180830381600087803b15801561093257600080fd5b505af1158015610946573d6000803e3d6000fd5b505050506040513d601f19601f8201168201806040525081019061096a9190611113565b506001600160a01b0387166000908152601060205260409020805460ff191660011790555b600080604051806101000160405280866000815181106109ab57fe5b60200260200101516001600160a01b03168152602001866001815181106109ce57fe5b60200260200101516001600160a01b03168152602001610bb862ffffff168152602001306001600160a01b031681526020014281526020018981526020016000815260200160006001600160a01b03168152509050600e60009054906101000a90046001600160a01b03166001600160a01b031663414bf389826040518263ffffffff1660e01b8152600401610a6491906115db565b602060405180830381600087803b158015610a7e57600080fd5b505af1158015610a92573d6000803e3d6000fd5b505050506040513d601f19601f82011682018060405250810190610ab691906111fb565b9150610ac182610da4565b95508582038015610ae45760405162461bcd60e51b815260040161048690611385565b82871015610b725760085460405163a9059cbb60e01b81526001600160a01b039091169063a9059cbb90610b1e9033908590600401611326565b602060405180830381600087803b158015610b3857600080fd5b505af1158015610b4c573d6000803e3d6000fd5b505050506040513d601f19601f82011682018060405250810190610b709190611113565b505b6002805488019055600680546001810182556000919091528b51610bbd917ff652222313e28459528d920b65115c16c04f3efc82aaedc97be59f3f377c0d3f019060208e019061104b565b506007805460010190556003546002541415610c37577f314217ebdf17981d4a26c0519c8810c5b95359d28c649f331ae684df59190db260025460035460005460016006604051610c129594939291906116b5565b60405180910390a16004805460ff60a01b1916600160a01b179055610c35610f88565b505b7f1c9e0c4c164a4cd3223a9c561d40e2223428d825bae108fdae97049add3dcfff3460005460018e8e604051610c71959493929190611669565b60405180910390a1336000908152600a602052604090205460ff16610cab57336000908152600a60205260409020805460ff191660011790555b60019750505050505050505b9392505050565b6005805460408051602060026001851615610100026000190190941693909304601f810184900484028201840190925281815292918301828280156103ed5780601f106103c2576101008083540402835291602001916103ed565b6012546001600160a01b031681565b600d546001600160a01b031681565b6004546001600160a01b031681565b600f546001600160a01b031681565b60005481565b600c546001600160a01b031681565b60025481565b600454600160a01b900460ff1681565b6008546001600160a01b031681565b60075481565b600e546001600160a01b031681565b6002546003546000919003808311610dbf5782915050610dc2565b90505b919050565b6040516323b872dd60e01b81526001600160a01b038316906323b872dd90610df790339030908690600401611302565b602060405180830381600087803b158015610e1157600080fd5b505af1158015610e25573d6000803e3d6000fd5b505050506040513d601f19601f82011682018060405250810190610e499190611113565b506002805482019055600680546001810182556000919091528351610e95917ff652222313e28459528d920b65115c16c04f3efc82aaedc97be59f3f377c0d3f0190602086019061104b565b506007805460010190556003546002541415610f0f577f314217ebdf17981d4a26c0519c8810c5b95359d28c649f331ae684df59190db260025460035460005460016006604051610eea9594939291906116b5565b60405180910390a16004805460ff60a01b1916600160a01b179055610f0d610f88565b505b7f1c9e0c4c164a4cd3223a9c561d40e2223428d825bae108fdae97049add3dcfff3460005460018686604051610f49959493929190611669565b60405180910390a1336000908152600a602052604090205460ff16610f8357336000908152600a60205260409020805460ff191660011790555b505050565b6040516370a0823160e01b815260009081906006602160991b01906370a0823190610fb79030906004016112ee565b60206040518083038186803b158015610fcf57600080fd5b505afa158015610fe3573d6000803e3d6000fd5b505050506040513d601f19601f8201168201806040525081019061100791906111fb565b6004546040519192506001600160a01b03169082156108fc029083906000818181858888f19350505050158015611042573d6000803e3d6000fd5b50600191505090565b828054600181600116156101000203166002900490600052602060002090601f01602090048101928261108157600085556110c7565b82601f1061109a57805160ff19168380011785556110c7565b828001600101855582156110c7579182015b828111156110c75782518255916020019190600101906110ac565b506110d39291506110d7565b5090565b5b808211156110d357600081556001016110d8565b8035610dc281611748565b600060208284031215611108578081fd5b8151610cb781611748565b600060208284031215611124578081fd5b81518015158114610cb7578182fd5b600080600060608486031215611147578182fd5b833567ffffffffffffffff8082111561115e578384fd5b818601915086601f830112611171578384fd5b813560208282111561117f57fe5b604051601f8301601f191681018201848111828210171561119c57fe5b60405282815284830182018a10156111b2578687fd5b8282860183830137808301820187905296506111cf8882016110ec565b955050505050604084013590509250925092565b6000602082840312156111f4578081fd5b5035919050565b60006020828403121561120c578081fd5b5051919050565b6001600160a01b03169052565b60008151808452815b8181101561124557602081850181015186830182015201611229565b818111156112565782602083870101525b50601f01601f19169290920160200192915050565b6000815460018082166000811461128957600181146112a7576112e5565b60028304607f16865260ff19831660208701526040860193506112e5565b600283048087526112b78661173c565b60005b828110156112db5781546020828b01015284820191506020810190506112ba565b8801602001955050505b50505092915050565b6001600160a01b0391909116815260200190565b6001600160a01b039384168152919092166020820152604081019190915260600190565b6001600160a01b03929092168252602082015260400190565b6001600160a01b03938416815291909216602082015262ffffff909116604082015260600190565b901515815260200190565b600060208252610cb76020830184611220565b6020808252602a908201527f537570706f7274206368696c6472656e20646f6e6174653a3a20486172642043604082015269185c0814995858da195960b21b606082015260800190565b60208082526023908201527f43616d706169676e3a3a646f6e6174653a20496e737566696369656e742066756040820152626e647360e81b606082015260800190565b6020808252602e908201527f537570706f72744368696c6472656e3a3a646f6e6174653a204e6f206469726560408201526d637420706f6f6c2065786973747360901b606082015260800190565b60208082526046908201527f63616d706169676e3a3a6578706972656457697468647261773a204f6e6c792060408201527f7468652062656e65666963696172792063616e207769746864726177207468656060820152652066756e647360d01b608082015260a00190565b60208082526034908201527f43616d706169676e3a3a646f6e6174653a20546869732063616d706169676e206040820152731a185cc8185b1c9958591e48199a5b9a5cda195960621b606082015260800190565b60208082526038908201527f43616d706169676e3a3a6578706972656457697468647261773a20546869732060408201527f63616d706169676e206973207374696c6c206163746976650000000000000000606082015260800190565b602080825260409082018190527f537570706f72744368696c6472656e3a3a646f6e6174653a20646f6e6f72546f908201527f6b656e203d3d2030782c2075736520646f6e61746545544820696e7374656164606082015260800190565b60006101008201905060018060a01b0380845116835280602085015116602084015262ffffff6040850151166040840152806060850151166060840152506080830151608083015260a083015160a083015260c083015160c083015260e083015161164960e0840182611213565b5092915050565b62ffffff91909116815260200190565b90815260200190565b600086825285602083015260a0604083015261168860a083018661126b565b828103606084015261169a8186611220565b91505060018060a01b03831660808301529695505050505050565b60008682526020868184015285604084015260a060608401526116db60a084018661126b565b8381036080850152808554808352838301915083848202840101878652848620865b8381101561172a57858303601f19018552611718838361126b565b948701949250600191820191016116fd565b50909c9b505050505050505050505050565b60009081526020902090565b6001600160a01b038116811461175d57600080fd5b5056fea2646970667358221220fc608c7a8e0f569210934a8326b793acabcdc76744af13c964403b58cdf3b81964736f6c63430007060033a264697066735822122031fb449f4eb68e072f57e4fd93e2a6073317092160487580fe9685bcc0afee9864736f6c63430007060033",
  "linkReferences": {},
  "deployedLinkReferences": {}
}