{
  "_format": "hh-sol-artifact-1",
  "contractName": "Campaign",
  "sourceName": "contractsOVM/contractsL2/1_CampaignOVM.sol",
  "abi": [
    {
      "inputs": [
        {
          "internalType": "uint256",
          "name": "_id",
          "type": "uint256"
        },
        {
          "internalType": "string",
          "name": "_name",
          "type": "string"
        },
        {
          "internalType": "uint256",
          "name": "_goal",
          "type": "uint256"
        },
        {
          "internalType": "string",
          "name": "_description",
          "type": "string"
        },
        {
          "internalType": "uint256",
          "name": "_endTimeStamp",
          "type": "uint256"
        },
        {
          "internalType": "address",
          "name": "_wantToken",
          "type": "address"
        },
        {
          "internalType": "string",
          "name": "_uri",
          "type": "string"
        },
        {
          "internalType": "address payable",
          "name": "_beneficiary",
          "type": "address"
        }
      ],
      "stateMutability": "nonpayable",
      "type": "constructor"
    },
    {
      "anonymous": false,
      "inputs": [
        {
          "indexed": false,
          "internalType": "uint256",
          "name": "amount",
          "type": "uint256"
        },
        {
          "indexed": false,
          "internalType": "uint256",
          "name": "campaignId",
          "type": "uint256"
        },
        {
          "indexed": false,
          "internalType": "string",
          "name": "name",
          "type": "string"
        },
        {
          "indexed": false,
          "internalType": "string",
          "name": "mail",
          "type": "string"
        },
        {
          "indexed": false,
          "internalType": "address",
          "name": "donorToken",
          "type": "address"
        }
      ],
      "name": "Donated",
      "type": "event"
    },
    {
      "anonymous": false,
      "inputs": [
        {
          "indexed": false,
          "internalType": "uint256",
          "name": "totalFund",
          "type": "uint256"
        },
        {
          "indexed": false,
          "internalType": "uint256",
          "name": "goal",
          "type": "uint256"
        },
        {
          "indexed": false,
          "internalType": "uint256",
          "name": "campaignId",
          "type": "uint256"
        },
        {
          "indexed": false,
          "internalType": "string",
          "name": "name",
          "type": "string"
        },
        {
          "indexed": false,
          "internalType": "string[]",
          "name": "mails",
          "type": "string[]"
        }
      ],
      "name": "GoalReached",
      "type": "event"
    },
    {
      "inputs": [],
      "name": "L1StandardBridge",
      "outputs": [
        {
          "internalType": "address",
          "name": "",
          "type": "address"
        }
      ],
      "stateMutability": "view",
      "type": "function"
    },
    {
      "inputs": [],
      "name": "L2",
      "outputs": [
        {
          "internalType": "address",
          "name": "",
          "type": "address"
        }
      ],
      "stateMutability": "view",
      "type": "function"
    },
    {
      "inputs": [],
      "name": "SNX",
      "outputs": [
        {
          "internalType": "address",
          "name": "",
          "type": "address"
        }
      ],
      "stateMutability": "view",
      "type": "function"
    },
    {
      "inputs": [],
      "name": "URI",
      "outputs": [
        {
          "internalType": "string",
          "name": "",
          "type": "string"
        }
      ],
      "stateMutability": "view",
      "type": "function"
    },
    {
      "inputs": [],
      "name": "WETH",
      "outputs": [
        {
          "internalType": "address",
          "name": "",
          "type": "address"
        }
      ],
      "stateMutability": "view",
      "type": "function"
    },
    {
      "inputs": [
        {
          "internalType": "uint256",
          "name": "_endTimeStamp",
          "type": "uint256"
        }
      ],
      "name": "changeEndDate",
      "outputs": [],
      "stateMutability": "nonpayable",
      "type": "function"
    },
    {
      "inputs": [],
      "name": "currFund",
      "outputs": [
        {
          "internalType": "uint256",
          "name": "",
          "type": "uint256"
        }
      ],
      "stateMutability": "view",
      "type": "function"
    },
    {
      "inputs": [],
      "name": "description",
      "outputs": [
        {
          "internalType": "string",
          "name": "",
          "type": "string"
        }
      ],
      "stateMutability": "view",
      "type": "function"
    },
    {
      "inputs": [
        {
          "internalType": "string",
          "name": "_mail",
          "type": "string"
        },
        {
          "internalType": "address",
          "name": "_donorToken",
          "type": "address"
        },
        {
          "internalType": "uint256",
          "name": "_amountIn",
          "type": "uint256"
        }
      ],
      "name": "donate",
      "outputs": [
        {
          "internalType": "bool",
          "name": "sufficient",
          "type": "bool"
        }
      ],
      "stateMutability": "payable",
      "type": "function"
    },
    {
      "inputs": [],
      "name": "endTimeStamp",
      "outputs": [
        {
          "internalType": "uint256",
          "name": "",
          "type": "uint256"
        }
      ],
      "stateMutability": "view",
      "type": "function"
    },
    {
      "inputs": [],
      "name": "expiredWithdraw",
      "outputs": [],
      "stateMutability": "nonpayable",
      "type": "function"
    },
    {
      "inputs": [],
      "name": "finished",
      "outputs": [
        {
          "internalType": "bool",
          "name": "",
          "type": "bool"
        }
      ],
      "stateMutability": "view",
      "type": "function"
    },
    {
      "inputs": [],
      "name": "goal",
      "outputs": [
        {
          "internalType": "uint256",
          "name": "",
          "type": "uint256"
        }
      ],
      "stateMutability": "view",
      "type": "function"
    },
    {
      "inputs": [],
      "name": "id",
      "outputs": [
        {
          "internalType": "uint256",
          "name": "",
          "type": "uint256"
        }
      ],
      "stateMutability": "view",
      "type": "function"
    },
    {
      "inputs": [],
      "name": "mailCount",
      "outputs": [
        {
          "internalType": "uint256",
          "name": "",
          "type": "uint256"
        }
      ],
      "stateMutability": "view",
      "type": "function"
    },
    {
      "inputs": [
        {
          "internalType": "uint256",
          "name": "",
          "type": "uint256"
        }
      ],
      "name": "mails",
      "outputs": [
        {
          "internalType": "string",
          "name": "",
          "type": "string"
        }
      ],
      "stateMutability": "view",
      "type": "function"
    },
    {
      "inputs": [],
      "name": "name",
      "outputs": [
        {
          "internalType": "string",
          "name": "",
          "type": "string"
        }
      ],
      "stateMutability": "view",
      "type": "function"
    },
    {
      "inputs": [],
      "name": "owner",
      "outputs": [
        {
          "internalType": "address payable",
          "name": "",
          "type": "address"
        }
      ],
      "stateMutability": "view",
      "type": "function"
    },
    {
      "inputs": [],
      "name": "poolFee",
      "outputs": [
        {
          "internalType": "uint24",
          "name": "",
          "type": "uint24"
        }
      ],
      "stateMutability": "view",
      "type": "function"
    },
    {
      "inputs": [],
      "name": "synthetixBurn",
      "outputs": [],
      "stateMutability": "nonpayable",
      "type": "function"
    },
    {
      "inputs": [],
      "name": "synthetixIssue",
      "outputs": [],
      "stateMutability": "nonpayable",
      "type": "function"
    },
    {
      "inputs": [],
      "name": "synthetixResolver",
      "outputs": [
        {
          "internalType": "contract IAddressResolver",
          "name": "",
          "type": "address"
        }
      ],
      "stateMutability": "view",
      "type": "function"
    },
    {
      "inputs": [],
      "name": "v3factory",
      "outputs": [
        {
          "internalType": "address",
          "name": "",
          "type": "address"
        }
      ],
      "stateMutability": "view",
      "type": "function"
    },
    {
      "inputs": [],
      "name": "v3router",
      "outputs": [
        {
          "internalType": "address",
          "name": "",
          "type": "address"
        }
      ],
      "stateMutability": "view",
      "type": "function"
    },
    {
      "inputs": [],
      "name": "wantToken",
      "outputs": [
        {
          "internalType": "address",
          "name": "",
          "type": "address"
        }
      ],
      "stateMutability": "view",
      "type": "function"
    },
    {
      "inputs": [],
      "name": "wantTokenL2",
      "outputs": [
        {
          "internalType": "address",
          "name": "",
          "type": "address"
        }
      ],
      "stateMutability": "view",
      "type": "function"
    }
  ],
  "bytecode": "0x608060405260006004600160a01b816200001862000352565b8160ff021916908315150217906200002f620003b4565b505050737a6f9eddc03db81927ea4131919343f93ca9b6a7600d60006101000a816200005a62000352565b816001600160a01b0302191690836001600160a01b03160217906200007e620003b4565b5050507264a673267696049938aa47595dd0b3c2e705a1600e60006101000a81620000a862000352565b816001600160a01b0302191690836001600160a01b0316021790620000cc620003b4565b505050731f98431c8ad98523631ae4a59f267346ea31f984600f60006101000a81620000f762000352565b816001600160a01b0302191690836001600160a01b03160217906200011b620003b4565b50505073e592427a0aece92de3edee1f18e0157c05861564601060006101000a816200014662000352565b816001600160a01b0302191690836001600160a01b03160217906200016a620003b4565b505050734200000000000000000000000000000000000006601160006101000a816200019562000352565b816001600160a01b0302191690836001600160a01b0316021790620001b9620003b4565b5050507322f24361d548e5faafb36d1437839f080363982b601460006101000a81620001e462000352565b816001600160a01b0302191690836001600160a01b031602179062000208620003b4565b50505034801562000223576000806200022062000403565b50505b5060405162003ac538038062003ac5833981016040819052620002469162000632565b8780600062000254620003b4565b5050508660019080516200026d92916020019062000470565b5060008060026200027d620003b4565b50505085600381906200028f620003b4565b505050846005908051620002a892916020019062000470565b50806004600181620002b962000352565b816001600160a01b0302191690836001600160a01b0316021790620002dd620003b4565b5050508360098190620002ef620003b4565b50505082600860006101000a816200030662000352565b816001600160a01b0302191690836001600160a01b03160217906200032a620003b4565b50505081600b9080516200034392916020019062000470565b5050505050505050506200072e565b6303daa959598160e01b8152836004820152602081602483336000905af158600e01573d6000803e3d6000fd5b3d6001141558600a015760016000f35b8051935060005b6040811015620003af5760008282015260200162000396565b505050565b6322bd64c0598160e01b8152836004820152846024820152600081604483336000905af158600e01573d6000803e3d6000fd5b3d6001141558600a015760016000f35b60008152602062000396565b632a2a7adb598160e01b8152600481016020815285602082015260005b868110156200043d57808601518282016040015260200162000420565b506020828760640184336000905af158600e01573d6000803e3d6000fd5b3d6001141558600a015760016000f35b505050565b82806200047c62000352565b600181600116156101000203166002900490600052602060002090601f016020900481019282620004bc57600085620004b4620003b4565b505062000520565b82601f10620004da57805160ff19168380011785620004b4620003b4565b82800160010185620004eb620003b4565b5050821562000520579182015b8281111562000520578251826200050e620003b4565b505091602001919060010190620004f8565b506200052e92915062000532565b5090565b808211156200052e576000808262000549620003b4565b50505060010162000532565b6000815190506001600160a01b03811681146200057c576000806200057962000403565b50505b919050565b600082601f8301126200059d5780816200059a62000403565b50505b81516001600160401b0380821115620005b257fe5b6040516020601f8401601f1916820181018381118382101715620005d257fe5b6040528382528584018101871015620005f4578485620005f162000403565b50505b8492505b83831015620006175780838701015182840182015291820191620005f8565b838311156200062857848185840101525b5095945050505050565b600080600080600080600080610100898b0312156200065a5783846200065762000403565b50505b8851975060208901516001600160401b0380821115620006835785866200068062000403565b50505b620006918c838d0162000581565b985060408b0151975060608b0151915080821115620006b9578586620006b662000403565b50505b620006c78c838d0162000581565b965060808b01519550620006de60a08c0162000555565b945060c08b0151915080821115620006ff578384620006fc62000403565b50505b506200070e8b828c0162000581565b9250506200071f60e08a0162000555565b90509295985092959890939650565b613387806200073e6000396000f3fe6080604052600436106101815760003560e01c80637284e416116100d1578063b3d320101161008a578063d23e048011610064578063d23e04801461047a578063dec9782814610498578063dfca0922146104b6578063e8d6101e146104d457610181565b8063b3d3201014610420578063bb66834e1461043e578063bef4876b1461045c57610181565b80637284e4161461036c57806381426ec21461038a57806387a22b22146103a85780638da5cb5b146103c6578063ad5c4648146103e4578063af640d0f1461040257610181565b80632fdef9c31161013e57806345737b1e1161011857806345737b1e146102e75780634e7037ab1461031057806351906bb01461032e5780635af7319c1461034c57610181565b80632fdef9c314610275578063401938831461029e57806341693bb4146102c957610181565b806306fdde031461018f578063081752bb146101c3578063089fe6aa146101ee5780631141d7de14610219578063153cd716146102375780631eaa1c8b14610255575b60008061018c6127ae565b50505b3480156101a4576000806101a16127ae565b50505b506101ad6104f2565b6040516101ba9190612f2b565b60405180910390f35b3480156101d8576000806101d56127ae565b50505b506101e16105ab565b6040516101ba9190612e86565b348015610203576000806102006127ae565b50505b5061020c6105ca565b6040516101ba9190613267565b34801561022e5760008061022b6127ae565b50505b506101ad6105d0565b34801561024c576000806102496127ae565b50505b506101e1610672565b34801561026a576000806102676127ae565b50505b5061027361067e565b005b34801561028a576000806102876127ae565b50505b506101ad610299366004612d58565b610885565b3480156102b3576000806102b06127ae565b50505b506102bc610951565b6040516101ba9190613277565b3480156102de576000806102db6127ae565b50505b5061027361095e565b3480156102fc576000806102f96127ae565b50505b5061027361030b366004612d58565b610eb7565b348015610325576000806103226127ae565b50505b50610273610ec3565b348015610343576000806103406127ae565b50505b506102bc61174e565b61035f61035a366004612c84565b611758565b6040516101ba9190612f20565b3480156103815760008061037e6127ae565b50505b506101ad6121c5565b34801561039f5760008061039c6127ae565b50505b506101e1612267565b3480156103bd576000806103ba6127ae565b50505b506101e1612273565b3480156103db576000806103d86127ae565b50505b506101e161227f565b3480156103f9576000806103f66127ae565b50505b506101e161228b565b348015610417576000806104146127ae565b50505b506102bc612297565b348015610435576000806104326127ae565b50505b506101e16122a1565b348015610453576000806104506127ae565b50505b506102bc6122ad565b3480156104715760008061046e6127ae565b50505b5061035f6122b7565b34801561048f5760008061048c6127ae565b50505b506101e16122d0565b3480156104ad576000806104aa6127ae565b50505b506102bc6122dc565b3480156104cb576000806104c86127ae565b50505b506101e16122e6565b3480156104e9576000806104e66127ae565b50505b506101e16122f2565b6001806104fd612819565b600181600116156101000203166002900480601f016020809104026020016040519081016040528181529190602083018280610537612819565b600181600116156101000203166002900480156105a35780601f10610571576101008083610563612819565b0402835291602001916105a3565b820191906000526020600020905b81610588612819565b8152906001019060200180831161057f57829003601f168201915b505050505081565b600060136105b7612819565b906101000a90046001600160a01b031681565b610bb881565b600b806105db612819565b600181600116156101000203166002900480601f016020809104026020016040519081016040528181529190602083018280610615612819565b600181600116156101000203166002900480156105a35780601f10610641576101008083610563612819565b820191906000526020600020905b81610658612819565b8152906001019060200180831161064f5750859350505050565b6000600d6105b7612819565b5a610687612874565b6009610691612819565b106106c05760405162461bcd60e51b81526004016106ae9061313a565b604051809103906106bd6127ae565b50505b600060046106cc612819565b906101000a90046001600160a01b03166001600160a01b03165a6106ee6128ba565b6001600160a01b0316146107265760405162461bcd60e51b815260040161071490613065565b604051809103906107236127ae565b50505b60006006602160991b016370a082315a63996d79a5598160e01b8152602081600483336000905af158600e01573d6000803e3d6000fd5b3d6001141558600a015760016000f35b8051925060005b604081101561078b57600082820152602001610774565b5050506040518263ffffffff1660e01b81526004016107aa9190612e86565b60206040518083038186806107bd612900565b1580156107d2576000806107cf6127ae565b50505b505a6107dc61294c565b50505050501580156107fb573d6000803e3d60006107f86127ae565b50505b50505050604051601f3d908101601f1916820160405261081e9190810190612d79565b90506000600461082c612819565b6001600160a01b036101009290920a90041681156108fc028260405160006040518083038185888861085c612a39565b5050505050509350505050158015610881573d6000803e3d600061087e6127ae565b50505b5050565b60068181610891612819565b81106108a5576000806108a26127ae565b50505b906000526020600020019050806108ba612819565b600181600116156101000203166002900480601f0160208091040260200160405190810160405281815291906020830182806108f4612819565b600181600116156101000203166002900480156105a35780601f10610920576101008083610563612819565b820191906000526020600020905b81610937612819565b8152906001019060200180831161092e5750859350505050565b600361095b612819565b81565b6000600461096a612819565b906101000a90046001600160a01b03166001600160a01b03165a61098c6128ba565b6001600160a01b0316146109a8576000806109a56127ae565b50505b601260008060086109b7612819565b906101000a90046001600160a01b03166001600160a01b03166001600160a01b031681526020019081526020016000206000906109f2612819565b906101000a900460ff1615156001151514610b435760006008610a13612819565b6001600160a01b036101009290920a90041663095ea7b360006010610a36612819565b906101000a90046001600160a01b03166000196040518363ffffffff1660e01b8152600401610a66929190612ebe565b60206040518083038160008780610a7b612900565b158015610a9057600080610a8d6127ae565b50505b505a610a9a612a39565b505050505050158015610aba573d6000803e3d6000610ab76127ae565b50505b50505050604051601f3d908101601f19168201604052610add9190810190612c4c565b50600160126000806008610aef612819565b906101000a90046001600160a01b03166001600160a01b03166001600160a01b03168152602001908152602001600020600181610b2a612819565b8160ff02191690831515021790610b3f612aff565b5050505b6000600e610b4f612819565b6001600160a01b036101009290920a90041660006008610b6d612819565b906101000a90046001600160a01b03166001600160a01b031614610d4757600060405161010081016040528060006008610ba5612819565b6001600160a01b036101009290920a90041681526020016000600e610bc8612819565b6001600160a01b036101009290920a9004168152610bb860208201526040015a63996d79a5598160e01b8152602081600483336000905af158600e01573d6000803e3d6000fd5b3d6001141558600a015760016000f35b8051925060005b6040811015610c3d57600082820152602001610c26565b5050506001600160a01b031681526020015a610c57612874565b81526020016002610c66612819565b81526020016000815260200160006001600160a01b0316815250905060006010600090610c91612819565b906101000a90046001600160a01b03166001600160a01b031663414bf389836040518263ffffffff1660e01b8152600401610ccc91906131f5565b60206040518083038160008780610ce1612900565b158015610cf657600080610cf36127ae565b50505b505a610d00612a39565b505050505050158015610d20573d6000803e3d6000610d1d6127ae565b50505b50505050604051601f3d908101601f19168201604052610d439190810190612d79565b5050505b600080600d610d54612819565b906101000a90046001600160a01b03166001600160a01b03166321f8a7216040518163ffffffff1660e01b8152600401610d8d906130d1565b6020604051808303818680610da0612900565b158015610db557600080610db26127ae565b50505b505a610dbf61294c565b5050505050158015610dde573d6000803e3d6000610ddb6127ae565b50505b50505050604051601f3d908101601f19168201604052610e019190810190612c27565b90506001600160a01b038116610e3b5760405162461bcd60e51b8152600401610e2990613019565b60405180910390610e386127ae565b50505b806001600160a01b031663af086c7e6040518163ffffffff1660e01b815260040160006040518083038160008780610e71612900565b158015610e8657600080610e836127ae565b50505b505a610e90612a39565b505050505050158015610eb0573d6000803e3d6000610ead6127ae565b50505b5050505050565b8080600961087e612aff565b60006004610ecf612819565b906101000a90046001600160a01b03166001600160a01b03165a610ef16128ba565b6001600160a01b031614610f0d57600080610f0a6127ae565b50505b600080600d610f1a612819565b906101000a90046001600160a01b03166001600160a01b03166321f8a7216040518163ffffffff1660e01b8152600401610f53906130d1565b6020604051808303818680610f66612900565b158015610f7b57600080610f786127ae565b50505b505a610f8561294c565b5050505050158015610fa4573d6000803e3d6000610fa16127ae565b50505b50505050604051601f3d908101601f19168201604052610fc79190810190612c27565b90506001600160a01b0381166110015760405162461bcd60e51b8152600401610fef90613019565b60405180910390610ffe6127ae565b50505b6000816001600160a01b031663d37c4d8b5a63996d79a5598160e01b8152602081600483336000905af158600e01573d6000803e3d6000fd5b3d6001141558600a015760016000f35b8051925060005b604081101561106857600082820152602001611051565b5050506040518263ffffffff1660e01b81526004016110879190612eff565b602060405180830381868061109a612900565b1580156110af576000806110ac6127ae565b50505b505a6110b961294c565b50505050501580156110d8573d6000803e3d60006110d56127ae565b50505b50505050604051601f3d908101601f191682016040526110fb9190810190612d79565b9050816001600160a01b031663295da87d826040518263ffffffff1660e01b81526004016111299190613277565b6000604051808303816000878061113e612900565b158015611153576000806111506127ae565b50505b505a61115d612a39565b50505050505015801561117d573d6000803e3d600061117a6127ae565b50505b5050505060126000600e600090611192612819565b906101000a90046001600160a01b03166001600160a01b03166001600160a01b031681526020019081526020016000206000906111cd612819565b906101000a900460ff161515600115151461131e576000600e6111ee612819565b6001600160a01b036101009290920a90041663095ea7b360006010611211612819565b906101000a90046001600160a01b03166000196040518363ffffffff1660e01b8152600401611241929190612ebe565b60206040518083038160008780611256612900565b15801561126b576000806112686127ae565b50505b505a611275612a39565b505050505050158015611295573d6000803e3d60006112926127ae565b50505b50505050604051601f3d908101601f191682016040526112b89190810190612c4c565b5060016012600080600e6112ca612819565b906101000a90046001600160a01b03166001600160a01b03166001600160a01b03168152602001908152602001600020600181611305612819565b8160ff0219169083151502179061131a612aff565b5050505b6000600e61132a612819565b6001600160a01b036101009290920a90041660006008611348612819565b906101000a90046001600160a01b03166001600160a01b03161461163057600080600e611373612819565b906101000a90046001600160a01b03166001600160a01b03166370a082315a63996d79a5598160e01b8152602081600483336000905af158600e01573d6000803e3d6000fd5b3d6001141558600a015760016000f35b8051925060005b60408110156113e7576000828201526020016113d0565b5050506040518263ffffffff1660e01b81526004016114069190612e86565b6020604051808303818680611419612900565b15801561142e5760008061142b6127ae565b50505b505a61143861294c565b5050505050158015611457573d6000803e3d60006114546127ae565b50505b50505050604051601f3d908101601f1916820160405261147a9190810190612d79565b905060006040516101008101604052806000600e611496612819565b6001600160a01b036101009290920a9004168152602001600060086114b9612819565b6001600160a01b036101009290920a9004168152610bb860208201526040015a63996d79a5598160e01b8152602081600483336000905af158600e01573d6000803e3d6000fd5b3d6001141558600a015760016000f35b8051925060005b604081101561152e57600082820152602001611517565b5050506001600160a01b031681526020015a611548612874565b81526020018381526020016000815260200160006001600160a01b0316815250905060006010600090611579612819565b906101000a90046001600160a01b03166001600160a01b031663414bf389836040518263ffffffff1660e01b81526004016115b491906131f5565b602060405180830381600087806115c9612900565b1580156115de576000806115db6127ae565b50505b505a6115e8612a39565b505050505050158015611608573d6000803e3d60006116056127ae565b50505b50505050604051601f3d908101601f1916820160405261162b9190810190612d79565b505050505b6000600861163c612819565b906101000a90046001600160a01b03166001600160a01b03166370a082315a63996d79a5598160e01b8152602081600483336000905af158600e01573d6000803e3d6000fd5b3d6001141558600a015760016000f35b8051925060005b60408110156116b057600082820152602001611699565b5050506040518263ffffffff1660e01b81526004016116cf9190612e86565b60206040518083038186806116e2612900565b1580156116f7576000806116f46127ae565b50505b505a61170161294c565b5050505050158015611720573d6000803e3d600061171d6127ae565b50505b50505050604051601f3d908101601f191682016040526117439190810190612d79565b806002610eb0612aff565b600961095b612819565b600081836001600160a01b03166370a082315a6117736128ba565b6040518263ffffffff1660e01b815260040161178f9190612e86565b60206040518083038186806117a2612900565b1580156117b7576000806117b46127ae565b50505b505a6117c161294c565b50505050501580156117e0573d6000803e3d60006117dd6127ae565b50505b50505050604051601f3d908101601f191682016040526118039190810190612d79565b10156118335760405162461bcd60e51b815260040161182190612f88565b604051809103906118306127ae565b50505b5a61183c612874565b6009611846612819565b116118755760405162461bcd60e51b8152600401611863906130e6565b604051809103906118726127ae565b50505b6001600160a01b0383166118ad5760405162461bcd60e51b815260040161189b90613197565b604051809103906118aa6127ae565b50505b60006001600160a01b0384168160086118c4612819565b906101000a90046001600160a01b03166001600160a01b03161415611903576118ec836122fe565b90506118f9858583612330565b60019150506121be565b600080600f611910612819565b6001600160a01b036101009290920a900416631698ee828660006008611934612819565b906101000a90046001600160a01b0316610bb86040518463ffffffff1660e01b815260040161196593929190612ed7565b6020604051808303818680611978612900565b15801561198d5760008061198a6127ae565b50505b505a61199761294c565b50505050501580156119b6573d6000803e3d60006119b36127ae565b50505b50505050604051601f3d908101601f191682016040526119d99190810190612c27565b6001600160a01b03161415611a125760405162461bcd60e51b8152600401611a0090612fcb565b60405180910390611a0f6127ae565b50505b60006002604051908082528060200260200182016040528015611a3f578160200160208202803683370190505b5090508481600081518110611a5057fe5b6001600160a01b039092166020928302919091019091015260006008611a74612819565b906101000a90046001600160a01b031681600181518110611a9157fe5b6001600160a01b039283166020918202929092010152600090819087166323b872dd5a611abc6128ba565b5a63996d79a5598160e01b8152602081600483336000905af158600e01573d6000803e3d6000fd5b3d6001141558600a015760016000f35b8051925060005b6040811015611b1257600082820152602001611afb565b505050896040518463ffffffff1660e01b8152600401611b3493929190612e9a565b60206040518083038160008780611b49612900565b158015611b5e57600080611b5b6127ae565b50505b505a611b68612a39565b505050505050158015611b88573d6000803e3d6000611b856127ae565b50505b50505050604051601f3d908101601f19168201604052611bab9190810190612c4c565b506001600160a01b0387166000908152601260205260409020600090611bcf612819565b906101000a900460ff1615156001151514611ce6576001600160a01b03871663095ea7b360006010611bff612819565b906101000a90046001600160a01b03166000196040518363ffffffff1660e01b8152600401611c2f929190612ebe565b60206040518083038160008780611c44612900565b158015611c5957600080611c566127ae565b50505b505a611c63612a39565b505050505050158015611c83573d6000803e3d6000611c806127ae565b50505b50505050604051601f3d908101601f19168201604052611ca69190810190612c4c565b506001600160a01b0387166000908152601260205260019060409020600181611ccd612819565b8160ff02191690831515021790611ce2612aff565b5050505b60008060405180610100016040528086600081518110611d0257fe5b60200260200101516001600160a01b0316815260200186600181518110611d2557fe5b60200260200101516001600160a01b03168152610bb860208201526040015a63996d79a5598160e01b8152602081600483336000905af158600e01573d6000803e3d6000fd5b3d6001141558600a015760016000f35b8051925060005b6040811015611d9957600082820152602001611d82565b5050506001600160a01b031681526020015a611db3612874565b81526020018981526020016000815260200160006001600160a01b031681525090506010600090611de2612819565b906101000a90046001600160a01b03166001600160a01b031663414bf389826040518263ffffffff1660e01b8152600401611e1d91906131f5565b60206040518083038160008780611e32612900565b158015611e4757600080611e446127ae565b50505b505a611e51612a39565b505050505050158015611e71573d6000803e3d6000611e6e6127ae565b50505b50505050604051601f3d908101601f19168201604052611e949190810190612d79565b9150611e9f826122fe565b95508582038015611ed45760405162461bcd60e51b8152600401611ec290612f3e565b60405180910390611ed16127ae565b50505b82871015611fa65760006008611ee8612819565b906101000a90046001600160a01b03166001600160a01b031663a9059cbb5a611f0f6128ba565b836040518363ffffffff1660e01b8152600401611f2d929190612ebe565b60206040518083038160008780611f42612900565b158015611f5757600080611f546127ae565b50505b505a611f61612a39565b505050505050158015611f81573d6000803e3d6000611f7e6127ae565b50505b50505050604051601f3d908101601f19168201604052611fa49190810190612c4c565b505b86600260008282611fb5612819565b019250508190611fc3612aff565b50505060068b9080600181611fd6612819565b018082611fe1612aff565b505060009283526000190191602091502001908051612004929160200190612b4d565b506007600081612012612819565b91600183019150612021612aff565b505050600361202e612819565b6002612038612819565b14156120ce577f314217ebdf17981d4a26c0519c8810c5b95359d28c649f331ae684df59190db26002612069612819565b6003612073612819565b600061207d612819565b600160066040516120929594939291906132cc565b60405180910390a160016004600160a01b816120ac612819565b8160ff021916908315150217906120c1612aff565b5050506120cc612649565b505b7f1c9e0c4c164a4cd3223a9c561d40e2223428d825bae108fdae97049add3dcfff3460006120fa612819565b60018e8e60405161210f959493929190613280565b60405180910390a1600a60005a6121246128ba565b6001600160a01b03166001600160a01b0316815260200190815260200160002060009061214f612819565b60ff6101009290920a9004166121b2576001600a60005a61216e6128ba565b6001600160a01b03166001600160a01b03168152602001908152602001600020600181612199612819565b8160ff021916908315150217906121ae612aff565b5050505b60019750505050505050505b9392505050565b6005806121d0612819565b600181600116156101000203166002900480601f01602080910402602001604051908101604052818152919060208301828061220a612819565b600181600116156101000203166002900480156105a35780601f10612236576101008083610563612819565b820191906000526020600020905b8161224d612819565b815290600101906020018083116122445750859350505050565b600060146105b7612819565b6000600f6105b7612819565b600060046105b7612819565b600060116105b7612819565b600061095b612819565b6000600c6105b7612819565b600261095b612819565b601460046122c3612819565b906101000a900460ff1681565b600060086105b7612819565b600761095b612819565b600060106105b7612819565b6000600e6105b7612819565b600080600261230b612819565b6003612315612819565b039050808311612328578291505061232b565b90505b919050565b816001600160a01b03166323b872dd5a6123486128ba565b5a63996d79a5598160e01b8152602081600483336000905af158600e01573d6000803e3d6000fd5b3d6001141558600a015760016000f35b8051925060005b604081101561239e57600082820152602001612387565b505050846040518463ffffffff1660e01b81526004016123c093929190612e9a565b602060405180830381600087806123d5612900565b1580156123ea576000806123e76127ae565b50505b505a6123f4612a39565b505050505050158015612414573d6000803e3d60006124116127ae565b50505b50505050604051601f3d908101601f191682016040526124379190810190612c4c565b5080600260008282612447612819565b019250508190612455612aff565b5050506006839080600181612468612819565b018082612473612aff565b505060009283526000190191602091502001908051612496929160200190612b4d565b5060076000816124a4612819565b916001830191506124b3612aff565b50505060036124c0612819565b60026124ca612819565b1415612560577f314217ebdf17981d4a26c0519c8810c5b95359d28c649f331ae684df59190db260026124fb612819565b6003612505612819565b600061250f612819565b600160066040516125249594939291906132cc565b60405180910390a160016004600160a01b8161253e612819565b8160ff02191690831515021790612553612aff565b50505061255e612649565b505b7f1c9e0c4c164a4cd3223a9c561d40e2223428d825bae108fdae97049add3dcfff34600061258c612819565b600186866040516125a1959493929190613280565b60405180910390a1600a60005a6125b66128ba565b6001600160a01b03166001600160a01b031681526020019081526020016000206000906125e1612819565b60ff6101009290920a900416612644576001600a60005a6126006128ba565b6001600160a01b03166001600160a01b0316815260200190815260200160002060018161262b612819565b8160ff02191690831515021790612640612aff565b5050505b505050565b6000806006602160991b016370a082315a63996d79a5598160e01b8152602081600483336000905af158600e01573d6000803e3d6000fd5b3d6001141558600a015760016000f35b8051925060005b60408110156126af57600082820152602001612698565b5050506040518263ffffffff1660e01b81526004016126ce9190612e86565b60206040518083038186806126e1612900565b1580156126f6576000806126f36127ae565b50505b505a61270061294c565b505050505015801561271f573d6000803e3d600061271c6127ae565b50505b50505050604051601f3d908101601f191682016040526127429190810190612d79565b905060006004612750612819565b6001600160a01b036101009290920a90041681156108fc0282604051600060405180830381858888612780612a39565b50505050505093505050501580156127a5573d6000803e3d60006127a26127ae565b50505b50600191505090565b632a2a7adb598160e01b8152600481016020815285602082015260005b868110156127e65780860151828201604001526020016127cb565b506020828760640184336000905af158600e01573d6000803e3d6000fd5b3d6001141558600a015760016000f35b505050565b6303daa959598160e01b8152836004820152602081602483336000905af158600e01573d6000803e3d6000fd5b3d6001141558600a015760016000f35b8051935060005b60408110156126445760008282015260200161285d565b63bdbf8c36598160e01b8152602081600483336000905af158600e01573d6000803e3d6000fd5b3d6001141558600a015760016000f35b8051600082529350602061285d565b6373509064598160e01b8152602081600483336000905af158600e01573d6000803e3d6000fd5b3d6001141558600a015760016000f35b8051600082529350602061285d565b638435035b598160e01b8152836004820152602081602483336000905af158600e01573d6000803e3d6000fd5b3d6001141558600a015760016000f35b8051600082529350602061285d565b638540661f598160e01b815261297f565b80808311156129695750815b92915050565b8080831015612969575090919050565b836004820152846024820152606060448201528660648201526084810160005b888110156129b757808801518282015260200161299f565b506060828960a40184336000905af158600e01573d6000803e3d6000fd5b3d6001141558600a015760016000f35b815160408301513d6000853e8b8b82606087013350600060045af15059612a0c8d3d61296f565b8c01612a18818761295d565b5b82811015612a2d5760008152602001612a19565b50929c50505050505050565b6385979f76598160e01b8152836004820152846024820152606060448201528760648201526084810160005b89811015612a7d578089015182820152602001612a65565b506060828a60a40184336000905af158600e01573d6000803e3d6000fd5b3d6001141558600a015760016000f35b815160408301513d6000853e8c8c82606087013350600060045af15059612ad28e3d61296f565b8d01612ade818761295d565b5b82811015612af35760008152602001612adf565b50929d50505050505050565b6322bd64c0598160e01b8152836004820152846024820152600081604483336000905af158600e01573d6000803e3d6000fd5b3d6001141558600a015760016000f35b60008152602061285d565b8280612b57612819565b600181600116156101000203166002900490600052602060002090601f016020900481019282612b9357600085612b8c612aff565b5050612bed565b82601f10612bae57805160ff19168380011785612b8c612aff565b82800160010185612bbd612aff565b50508215612bed579182015b82811115612bed57825182612bdc612aff565b505091602001919060010190612bc9565b50612bf9929150612bfd565b5090565b80821115612bf95760008082612c11612aff565b505050600101612bfd565b803561232b81613369565b600060208284031215612c41578081612c3e6127ae565b50505b81516121be81613369565b600060208284031215612c66578081612c636127ae565b50505b815180151581146121be578182612c7b6127ae565b50509392505050565b600080600060608486031215612ca1578182612c9e6127ae565b50505b833567ffffffffffffffff80821115612cc1578384612cbe6127ae565b50505b818601915086601f830112612cdd578384612cda6127ae565b50505b8135602082821115612ceb57fe5b604051601f8301601f1916810182018481118282101715612d0857fe5b60405282815284830182018a1015612d27578687612d246127ae565b50505b828286018383013780830182018790529650612d44888201612c1c565b955050505050604084013590509250925092565b600060208284031215612d72578081612d6f6127ae565b50505b5035919050565b600060208284031215612d93578081612d906127ae565b50505b81519392505050565b6001600160a01b03169052565b60008151808452815b81811015612dd157602080828601015186830190910152602001612db2565b81811115612de25782602083870101525b50601f01601f19169290920160200192915050565b600081612e02612819565b60018181168015612e1a5760018114612e3857612e7d565b60028304607f16865260ff1983166020870152604086019350612e7d565b60028304808752612e488661335a565b60005b82811015612e735781612e5c612819565b6020828b0101528482019150602081019050612e4b565b8801602001955050505b50505092915050565b6001600160a01b0391909116815260200190565b6001600160a01b039384168152919092166020820152604081019190915260600190565b6001600160a01b03929092168252602082015260400190565b6001600160a01b03938416815291909216602082015262ffffff909116604082015260600190565b6001600160a01b03919091168152631cd554d160e21b602082015260400190565b901515815260200190565b6000602082526121be6020830184612da9565b6020808252602a908201527f537570706f7274206368696c6472656e20646f6e6174653a3a20486172642043604082015269185c0814995858da195960b21b606082015260800190565b60208082526023908201527f43616d706169676e3a3a646f6e6174653a20496e737566696369656e742066756040820152626e647360e81b606082015260800190565b6020808252602e908201527f537570706f72744368696c6472656e3a3a646f6e6174653a204e6f206469726560408201526d637420706f6f6c2065786973747360901b606082015260800190565b6020808252602c908201527f53796e746865746978206973206d697373696e672066726f6d2053796e74686560408201526b3a34bc103932b9b7b63b32b960a11b606082015260800190565b60208082526046908201527f63616d706169676e3a3a6578706972656457697468647261773a204f6e6c792060408201527f7468652062656e65666963696172792063616e207769746864726177207468656060820152652066756e647360d01b608082015260a00190565b680a6f2dce8d0cae8d2f60bb1b815260200190565b60208082526034908201527f43616d706169676e3a3a646f6e6174653a20546869732063616d706169676e206040820152731a185cc8185b1c9958591e48199a5b9a5cda195960621b606082015260800190565b60208082526038908201527f43616d706169676e3a3a6578706972656457697468647261773a20546869732060408201527f63616d706169676e206973207374696c6c206163746976650000000000000000606082015260800190565b602080825260409082018190527f537570706f72744368696c6472656e3a3a646f6e6174653a20646f6e6f72546f908201527f6b656e203d3d2030782c2075736520646f6e61746545544820696e7374656164606082015260800190565b61010081016001600160a01b0380845116835280602085015116602084015262ffffff6040850151166040840152806060850151166060840152506080830151608083015260a083015160a083015260c083015160c083015260e083015161326060e0840182612d9c565b5092915050565b62ffffff91909116815260200190565b90815260200190565b600086825285602083015260a0604083015261329f60a0830186612df7565b82810360608401526132b18186612da9565b91505060018060a01b03831660808301529695505050505050565b60008682526020868184015285604084015260a060608401526132f260a0840186612df7565b83810360808501528085613304612819565b808352838301915083848202840101878652848620865b8381101561334857858303601f190185526133368383612df7565b9487019492506001918201910161331b565b50909c9b505050505050505050505050565b60008181526020812092915050565b6001600160a01b0381168114613384576000806126446127ae565b5056",
  "linkReferences": {},
  "deployedLinkReferences": {}
}