{
  "_format": "hh-sol-artifact-1",
  "contractName": "Organisation",
  "sourceName": "contractsOVM/contractsL2/2_OrganisationOVM.sol",
  "abi": [
    {
      "inputs": [],
      "stateMutability": "nonpayable",
      "type": "constructor"
    },
    {
      "inputs": [
        {
          "internalType": "string",
          "name": "_name",
          "type": "string"
        },
        {
          "internalType": "uint256",
          "name": "_goal",
          "type": "uint256"
        },
        {
          "internalType": "string",
          "name": "_description",
          "type": "string"
        },
        {
          "internalType": "uint256",
          "name": "_endTimestamp",
          "type": "uint256"
        },
        {
          "internalType": "address",
          "name": "_wantToken",
          "type": "address"
        },
        {
          "internalType": "string",
          "name": "_uri",
          "type": "string"
        }
      ],
      "name": "addCampaign",
      "outputs": [],
      "stateMutability": "nonpayable",
      "type": "function"
    },
    {
      "inputs": [
        {
          "internalType": "address",
          "name": "_member",
          "type": "address"
        }
      ],
      "name": "addMember",
      "outputs": [],
      "stateMutability": "nonpayable",
      "type": "function"
    },
    {
      "inputs": [],
      "name": "campaignCounter",
      "outputs": [
        {
          "internalType": "uint256",
          "name": "",
          "type": "uint256"
        }
      ],
      "stateMutability": "view",
      "type": "function"
    },
    {
      "inputs": [
        {
          "internalType": "uint256",
          "name": "",
          "type": "uint256"
        }
      ],
      "name": "campaigns",
      "outputs": [
        {
          "internalType": "contract Campaign",
          "name": "",
          "type": "address"
        }
      ],
      "stateMutability": "view",
      "type": "function"
    },
    {
      "inputs": [
        {
          "internalType": "address",
          "name": "",
          "type": "address"
        }
      ],
      "name": "members",
      "outputs": [
        {
          "internalType": "uint256",
          "name": "",
          "type": "uint256"
        }
      ],
      "stateMutability": "view",
      "type": "function"
    },
    {
      "inputs": [],
      "name": "owner",
      "outputs": [
        {
          "internalType": "address",
          "name": "",
          "type": "address"
        }
      ],
      "stateMutability": "view",
      "type": "function"
    }
  ],
  "bytecode": "0x60806040523480156200001c5760008062000019620000fd565b50505b505a620000286200016d565b600160006101000a816200003b620001cc565b8173ffffffffffffffffffffffffffffffffffffffff021916908373ffffffffffffffffffffffffffffffffffffffff160217906200007962000231565b505050600160026000600160009062000091620001cc565b906101000a900473ffffffffffffffffffffffffffffffffffffffff1673ffffffffffffffffffffffffffffffffffffffff1673ffffffffffffffffffffffffffffffffffffffff1681526020019081526020016000208190620000f462000231565b50505062000298565b632a2a7adb598160e01b8152600481016020815285602082015260005b868110156200013a5780860151816040840101526020810190506200011a565b506020828760640184336000905af158600e01573d6000803e3d6000fd5b3d6001141558600a015760016000f35b505050565b6373509064598160e01b8152602081600483336000905af158600e01573d6000803e3d6000fd5b3d6001141558600a015760016000f35b8051935060005b6040811015620001c757600081830152602081019050620001ab565b505050565b6303daa959598160e01b8152836004820152602081602483336000905af158600e01573d6000803e3d6000fd5b3d6001141558600a015760016000f35b8051935060005b60408110156200022c5760008183015260208101905062000210565b505050565b6322bd64c0598160e01b8152836004820152846024820152600081604483336000905af158600e01573d6000803e3d6000fd5b3d6001141558600a015760016000f35b60005b6040811015620002935760008183015260208101905062000277565b505050565b61495880620002a86000396000f3fe60806040523480156200001c57600080620000196200042a565b50505b5060043610620000755760003560e01c806308ae4b0c1462000085578063141961bc14620000bb5780635b0ad2d514620000f15780638da5cb5b1462000111578063ca6d56dc1462000133578063fca604d71462000153575b600080620000826200042a565b50505b620000a360048036038101906200009d91906200077a565b62000175565b604051620000b2919062000a2d565b60405180910390f35b620000d96004803603810190620000d39190620008be565b62000196565b604051620000e89190620009ee565b60405180910390f35b6200010f6004803603810190620001099190620007b1565b620001d2565b005b6200011b62000399565b6040516200012a9190620009d1565b60405180910390f35b6200015160048036038101906200014b91906200077a565b620003c8565b005b6200015d6200041b565b6040516200016c919062000a2d565b60405180910390f35b6002602052806000526040600020600091509050620001936200049a565b81565b600360205280600052604060002060009150620001b26200049a565b906101000a900473ffffffffffffffffffffffffffffffffffffffff1681565b6001600260005a620001e3620004ff565b73ffffffffffffffffffffffffffffffffffffffff1673ffffffffffffffffffffffffffffffffffffffff168152602001908152602001600020620002276200049a565b146200023d576000806200023a6200042a565b50505b5a620002486200055e565b831162000297576040517f08c379a0000000000000000000000000000000000000000000000000000000008152600401620002839062000a0b565b60405180910390620002946200042a565b50505b60008081620002a56200049a565b80929190600101919050620002b9620005bd565b5050506000620002c86200049a565b868686868686604051620002dc9062000624565b620002ee979695949392919062000a4a565b6040518091039060006200030162000632565b50508015801562000321573d6000803e3d60006200031e6200042a565b50505b506003600080620003316200049a565b815260200190815260200160002060006101000a81620003506200049a565b8173ffffffffffffffffffffffffffffffffffffffff021916908373ffffffffffffffffffffffffffffffffffffffff160217906200038e620005bd565b505050505050505050565b6001600090620003a86200049a565b906101000a900473ffffffffffffffffffffffffffffffffffffffff1681565b6001600260008373ffffffffffffffffffffffffffffffffffffffff1673ffffffffffffffffffffffffffffffffffffffff168152602001908152602001600020819062000415620005bd565b50505050565b6000620004276200049a565b81565b632a2a7adb598160e01b8152600481016020815285602082015260005b868110156200046757808601518160408401015260208101905062000447565b506020828760640184336000905af158600e01573d6000803e3d6000fd5b3d6001141558600a015760016000f35b505050565b6303daa959598160e01b8152836004820152602081602483336000905af158600e01573d6000803e3d6000fd5b3d6001141558600a015760016000f35b8051935060005b6040811015620004fa57600081830152602081019050620004de565b505050565b6373509064598160e01b8152602081600483336000905af158600e01573d6000803e3d6000fd5b3d6001141558600a015760016000f35b8051935060005b604081101562000559576000818301526020810190506200053d565b505050565b63bdbf8c36598160e01b8152602081600483336000905af158600e01573d6000803e3d6000fd5b3d6001141558600a015760016000f35b8051935060005b6040811015620005b8576000818301526020810190506200059c565b505050565b6322bd64c0598160e01b8152836004820152846024820152600081604483336000905af158600e01573d6000803e3d6000fd5b3d6001141558600a015760016000f35b60005b60408110156200061f5760008183015260208101905062000603565b505050565b613cf08062000c6883390190565b6314aa2ff7598160e01b8152600481016020815286602082015260005b878110156200066f5780870151816040840101526020810190506200064f565b506020828860640184336000905af158600e01573d6000803e3d6000fd5b3d6001141558600a015760016000f35b8151965059825b81811015620006bd5760008152602081019050620006a4565b5050505050565b6000620006db620006d58462000b10565b62000adc565b905082815260208101848484011115620006ff57600080620006fc6200042a565b50505b6200070c84828562000bc5565b509392505050565b600081359050620007258162000c1d565b92915050565b600082601f8301126200074857600080620007456200042a565b50505b81356200075a848260208601620006c4565b91505092915050565b600081359050620007748162000c42565b92915050565b6000602082840312156200079857600080620007956200042a565b50505b6000620007a88482850162000714565b91505092915050565b60008060008060008060c08789031215620007d657600080620007d36200042a565b50505b600087013567ffffffffffffffff811115620007fc57600080620007f96200042a565b50505b6200080a89828a016200072b565b96505060206200081d89828a0162000763565b955050604087013567ffffffffffffffff8111156200084657600080620008436200042a565b50505b6200085489828a016200072b565b94505060606200086789828a0162000763565b93505060806200087a89828a0162000714565b92505060a087013567ffffffffffffffff811115620008a357600080620008a06200042a565b50505b620008b189828a016200072b565b9150509295509295509295565b600060208284031215620008dc57600080620008d96200042a565b50505b6000620008ec8482850162000763565b91505092915050565b620009008162000b5f565b82525050565b620009118162000b9d565b82525050565b6000620009248262000b43565b62000930818562000b4e565b93506200094281856020860162000bd4565b6200094d8162000c0c565b840191505092915050565b600062000967603a8362000b4e565b91507f4f7267616e69736174696f6e3a3a61646443616d706169676e3a2043616d706160008301527f69676e206d75737420656e6420696e20746865206675747572650000000000006020830152604082019050919050565b620009cb8162000b93565b82525050565b6000602082019050620009e86000830184620008f5565b92915050565b600060208201905062000a05600083018462000906565b92915050565b6000602082019050818103600083015262000a268162000958565b9050919050565b600060208201905062000a446000830184620009c0565b92915050565b600060e08201905062000a61600083018a620009c0565b818103602083015262000a75818962000917565b905062000a866040830188620009c0565b818103606083015262000a9a818762000917565b905062000aab6080830186620009c0565b62000aba60a0830185620008f5565b81810360c083015262000ace818462000917565b905098975050505050505050565b6000604051905081810181811067ffffffffffffffff8211171562000b065762000b0562000c0a565b5b8060405250919050565b600067ffffffffffffffff82111562000b2e5762000b2d62000c0a565b5b601f19601f8301169050602081019050919050565b600081519050919050565b600082825260208201905092915050565b600062000b6c8262000b73565b9050919050565b600073ffffffffffffffffffffffffffffffffffffffff82169050919050565b6000819050919050565b600062000baa8262000bb1565b9050919050565b600062000bbe8262000b73565b9050919050565b82818337600083830152505050565b60005b8381101562000bf457808201518184015260208101905062000bd7565b8381111562000c04576000848401525b50505050565bfe5b6000601f19601f8301169050919050565b62000c288162000b5f565b811462000c3f5760008062000c3c6200042a565b50505b50565b62000c4d8162000b93565b811462000c645760008062000c616200042a565b50505b5056fe60806040526000600460146101000a81620000196200036a565b8160ff0219169083151502179062000030620003cf565b505050731f98431c8ad98523631ae4a59f267346ea31f984600d60006101000a816200005b6200036a565b8173ffffffffffffffffffffffffffffffffffffffff021916908373ffffffffffffffffffffffffffffffffffffffff1602179062000099620003cf565b50505073e592427a0aece92de3edee1f18e0157c05861564600e60006101000a81620000c46200036a565b8173ffffffffffffffffffffffffffffffffffffffff021916908373ffffffffffffffffffffffffffffffffffffffff1602179062000102620003cf565b505050734200000000000000000000000000000000000006600f60006101000a816200012d6200036a565b8173ffffffffffffffffffffffffffffffffffffffff021916908373ffffffffffffffffffffffffffffffffffffffff160217906200016b620003cf565b5050507322f24361d548e5faafb36d1437839f080363982b601260006101000a81620001966200036a565b8173ffffffffffffffffffffffffffffffffffffffff021916908373ffffffffffffffffffffffffffffffffffffffff16021790620001d4620003cf565b505050348015620001ef57600080620001ec62000436565b50505b5060405162003cf038038062003cf08339818101604052810190620002159190620006b1565b866000819062000224620003cf565b50505085600190805190602001906200023f929190620004a6565b5060006002819062000250620003cf565b505050846003819062000262620003cf565b50505083600590805190602001906200027d929190620004a6565b505a6200028962000572565b600460006101000a816200029c6200036a565b8173ffffffffffffffffffffffffffffffffffffffff021916908373ffffffffffffffffffffffffffffffffffffffff16021790620002da620003cf565b5050508260098190620002ec620003cf565b50505081600860006101000a81620003036200036a565b8173ffffffffffffffffffffffffffffffffffffffff021916908373ffffffffffffffffffffffffffffffffffffffff1602179062000341620003cf565b50505080600b90805190602001906200035c929190620004a6565b5050505050505050620008fc565b6303daa959598160e01b8152836004820152602081602483336000905af158600e01573d6000803e3d6000fd5b3d6001141558600a015760016000f35b8051935060005b6040811015620003ca57600081830152602081019050620003ae565b505050565b6322bd64c0598160e01b8152836004820152846024820152600081604483336000905af158600e01573d6000803e3d6000fd5b3d6001141558600a015760016000f35b60005b6040811015620004315760008183015260208101905062000415565b505050565b632a2a7adb598160e01b8152600481016020815285602082015260005b868110156200047357808601518160408401015260208101905062000453565b506020828760640184336000905af158600e01573d6000803e3d6000fd5b3d6001141558600a015760016000f35b505050565b8280620004b26200036a565b600181600116156101000203166002900490600052602060002090601f016020900481019282620004f257600085620004ea620003cf565b50506200055f565b82601f106200051857805160ff1916838001178562000510620003cf565b50506200055f565b8280016001018562000529620003cf565b505082156200055f579182015b828111156200055e578251826200054c620003cf565b50509160200191906001019062000536565b5b5090506200056e9190620005d1565b5090565b6373509064598160e01b8152602081600483336000905af158600e01573d6000803e3d6000fd5b3d6001141558600a015760016000f35b8051935060005b6040811015620005cc57600081830152602081019050620005b0565b505050565b5b80821115620005f757600081600090620005eb620003cf565b505050600101620005d2565b5090565b6000620006126200060c8462000809565b620007d5565b90508281526020810184848401111562000636576000806200063362000436565b50505b620006438482856200087a565b509392505050565b6000815190506200065c81620008b2565b92915050565b600082601f8301126200067f576000806200067c62000436565b50505b815162000691848260208601620005fb565b91505092915050565b600081519050620006ab81620008d7565b92915050565b600080600080600080600060e0888a031215620006d857600080620006d562000436565b50505b6000620006e88a828b016200069a565b975050602088015167ffffffffffffffff81111562000711576000806200070e62000436565b50505b6200071f8a828b0162000662565b9650506040620007328a828b016200069a565b955050606088015167ffffffffffffffff8111156200075b576000806200075862000436565b50505b620007698a828b0162000662565b94505060806200077c8a828b016200069a565b93505060a06200078f8a828b016200064b565b92505060c088015167ffffffffffffffff811115620007b857600080620007b562000436565b50505b620007c68a828b0162000662565b91505092959891949750929550565b6000604051905081810181811067ffffffffffffffff82111715620007ff57620007fe620008b0565b5b8060405250919050565b600067ffffffffffffffff821115620008275762000826620008b0565b5b601f19601f8301169050602081019050919050565b6000620008498262000850565b9050919050565b600073ffffffffffffffffffffffffffffffffffffffff82169050919050565b6000819050919050565b60005b838110156200089a5780820151818401526020810190506200087d565b83811115620008aa576000848401525b50505050565bfe5b620008bd816200083c565b8114620008d457600080620008d162000436565b50505b50565b620008e28162000870565b8114620008f957600080620008f662000436565b50505b50565b6133e4806200090c6000396000f3fe60806040526004361061014b5760003560e01c80637284e416116100b6578063b3d320101161006f578063b3d32010146104f9578063bb66834e1461052d578063bef4876b14610561578063d23e048014610595578063dec97828146105c9578063dfca0922146105fd5761014b565b80637284e416146103c157806381426ec2146103f557806387a22b22146104295780638da5cb5b1461045d578063ad5c464814610491578063af640d0f146104c55761014b565b80632fdef9c3116101085780632fdef9c31461027d57806340193883146102c357806345737b1e146102f757806351906bb014610329578063590e1ae31461035d5780635af7319c146103915761014b565b806306fdde0314610159578063081752bb1461018d578063089fe6aa146101c15780631141d7de146101f5578063176e1c0d146102295780631eaa1c8b1461025d575b6000806101566120ed565b50505b34801561016e5760008061016b6120ed565b50505b50610177610631565b6040516101849190612f92565b60405180910390f35b3480156101a25760008061019f6120ed565b50505b506101ab6106eb565b6040516101b89190612e66565b60405180910390f35b3480156101d6576000806101d36120ed565b50505b506101df610718565b6040516101ec91906130b0565b60405180910390f35b34801561020a576000806102076120ed565b50505b5061021361071e565b6040516102209190612f92565b60405180910390f35b34801561023e5760008061023b6120ed565b50505b506102476107d8565b60405161025491906130cb565b60405180910390f35b3480156102725760008061026f6120ed565b50505b5061027b6107e5565b005b3480156102925760008061028f6120ed565b50505b506102ad60048036038101906102a891906127df565b610a93565b6040516102ba9190612f92565b60405180910390f35b3480156102d8576000806102d56120ed565b50505b506102e1610b7b565b6040516102ee91906130cb565b60405180910390f35b34801561030c576000806103096120ed565b50505b50610327600480360381019061032291906127df565b610b88565b005b34801561033e5760008061033b6120ed565b50505b50610347610b9b565b60405161035491906130cb565b60405180910390f35b3480156103725760008061036f6120ed565b50505b5061037b610ba8565b60405161038891906130cb565b60405180910390f35b6103ab60048036038101906103a69190612766565b610bb5565b6040516103b89190612f77565b60405180910390f35b3480156103d6576000806103d36120ed565b50505b506103df61195a565b6040516103ec9190612f92565b60405180910390f35b34801561040a576000806104076120ed565b50505b50610413611a14565b6040516104209190612e66565b60405180910390f35b34801561043e5760008061043b6120ed565b50505b50610447611a41565b6040516104549190612e66565b60405180910390f35b3480156104725760008061046f6120ed565b50505b5061047b611a6e565b6040516104889190612e9c565b60405180910390f35b3480156104a6576000806104a36120ed565b50505b506104af611a9b565b6040516104bc9190612e66565b60405180910390f35b3480156104da576000806104d76120ed565b50505b506104e3611ac8565b6040516104f091906130cb565b60405180910390f35b34801561050e5760008061050b6120ed565b50505b50610517611ad5565b6040516105249190612e66565b60405180910390f35b3480156105425760008061053f6120ed565b50505b5061054b611b02565b60405161055891906130cb565b60405180910390f35b348015610576576000806105736120ed565b50505b5061057f611b0f565b60405161058c9190612f77565b60405180910390f35b3480156105aa576000806105a76120ed565b50505b506105b3611b29565b6040516105c09190612e66565b60405180910390f35b3480156105de576000806105db6120ed565b50505b506105e7611b56565b6040516105f491906130cb565b60405180910390f35b3480156106125760008061060f6120ed565b50505b5061061b611b63565b6040516106289190612e66565b60405180910390f35b60018061063c61215b565b600181600116156101000203166002900480601f0160208091040260200160405190810160405280929190818152602001828061067761215b565b600181600116156101000203166002900480156106e35780601f106106b15761010080836106a361215b565b0402835291602001916106e3565b820191906000526020600020905b816106c861215b565b815290600101906020018083116106bf57829003601f168201915b505050505081565b60116000906106f861215b565b906101000a900473ffffffffffffffffffffffffffffffffffffffff1681565b610bb881565b600b8061072961215b565b600181600116156101000203166002900480601f0160208091040260200160405190810160405280929190818152602001828061076461215b565b600181600116156101000203166002900480156107d05780601f1061079e57610100808361079061215b565b0402835291602001916107d0565b820191906000526020600020905b816107b561215b565b815290600101906020018083116107ac57829003601f168201915b505050505081565b60136107e261215b565b81565b5a6107ee6121be565b60096107f861215b565b10610841576040517f08c379a000000000000000000000000000000000000000000000000000000000815260040161082f90613054565b6040518091039061083e6120ed565b50505b600460009061084e61215b565b906101000a900473ffffffffffffffffffffffffffffffffffffffff1673ffffffffffffffffffffffffffffffffffffffff165a61088a61221b565b73ffffffffffffffffffffffffffffffffffffffff16146108e9576040517f08c379a00000000000000000000000000000000000000000000000000000000081526004016108d790613014565b604051809103906108e66120ed565b50505b600073420000000000000000000000000000000000000673ffffffffffffffffffffffffffffffffffffffff166370a082315a63996d79a5598160e01b8152602081600483336000905af158600e01573d6000803e3d6000fd5b3d6001141558600a015760016000f35b8051925060005b60408110156109745760008183015260208101905061095a565b5050506040518263ffffffff1660e01b81526004016109939190612e66565b60206040518083038186806109a6612278565b1580156109bb576000806109b86120ed565b50505b505a6109c56122db565b50505050501580156109e4573d6000803e3d60006109e16120ed565b50505b505050506040513d601f19601f82011682018060405250810190610a089190612811565b90506004600090610a1761215b565b906101000a900473ffffffffffffffffffffffffffffffffffffffff1673ffffffffffffffffffffffffffffffffffffffff166108fc829081150290604051600060405180830381858888610a6a6123db565b5050505050509350505050158015610a8f573d6000803e3d6000610a8c6120ed565b50505b5050565b60068181610a9f61215b565b8110610ab357600080610ab06120ed565b50505b9060005260206000200160009150905080610acc61215b565b600181600116156101000203166002900480601f01602080910402602001604051908101604052809291908181526020018280610b0761215b565b60018160011615610100020316600290048015610b735780601f10610b41576101008083610b3361215b565b040283529160200191610b73565b820191906000526020600020905b81610b5861215b565b81529060010190602001808311610b4f57829003601f168201915b505050505081565b6003610b8561215b565b81565b8060098190610b956124db565b50505050565b6009610ba561215b565b81565b6014610bb261215b565b81565b6000818373ffffffffffffffffffffffffffffffffffffffff166370a082315a610bdd61221b565b6040518263ffffffff1660e01b8152600401610bf99190612e81565b6020604051808303818680610c0c612278565b158015610c2157600080610c1e6120ed565b50505b505a610c2b6122db565b5050505050158015610c4a573d6000803e3d6000610c476120ed565b50505b505050506040513d601f19601f82011682018060405250810190610c6e9190612811565b1015610cb8576040517f08c379a0000000000000000000000000000000000000000000000000000000008152600401610ca690612fd4565b60405180910390610cb56120ed565b50505b5a610cc16121be565b6009610ccb61215b565b11610d14576040517f08c379a0000000000000000000000000000000000000000000000000000000008152600401610d0290613034565b60405180910390610d116120ed565b50505b600073ffffffffffffffffffffffffffffffffffffffff168373ffffffffffffffffffffffffffffffffffffffff161415610d8d576040517f08c379a0000000000000000000000000000000000000000000000000000000008152600401610d7b90613074565b60405180910390610d8a6120ed565b50505b60008373ffffffffffffffffffffffffffffffffffffffff166008600090610db361215b565b906101000a900473ffffffffffffffffffffffffffffffffffffffff1673ffffffffffffffffffffffffffffffffffffffff161415610e0c57610df583611b90565b9050610e02858583611bc4565b6001915050611953565b600073ffffffffffffffffffffffffffffffffffffffff16600d600090610e3161215b565b906101000a900473ffffffffffffffffffffffffffffffffffffffff1673ffffffffffffffffffffffffffffffffffffffff16631698ee82866008600090610e7761215b565b906101000a900473ffffffffffffffffffffffffffffffffffffffff16610bb86040518463ffffffff1660e01b8152600401610eb593929190612f17565b6020604051808303818680610ec8612278565b158015610edd57600080610eda6120ed565b50505b505a610ee76122db565b5050505050158015610f06573d6000803e3d6000610f036120ed565b50505b505050506040513d601f19601f82011682018060405250810190610f2a9190612702565b73ffffffffffffffffffffffffffffffffffffffff161415610f8a576040517f08c379a0000000000000000000000000000000000000000000000000000000008152600401610f7890612ff4565b60405180910390610f876120ed565b50505b6000600267ffffffffffffffff81118015610fad57600080610faa6120ed565b50505b50604051908082528060200260200182016040528015610fdc5781602001602082028036833780820191505090505b5090508481600081518110610fed57fe5b602002602001019073ffffffffffffffffffffffffffffffffffffffff16908173ffffffffffffffffffffffffffffffffffffffff1681525050600860009061103461215b565b906101000a900473ffffffffffffffffffffffffffffffffffffffff168160018151811061105e57fe5b602002602001019073ffffffffffffffffffffffffffffffffffffffff16908173ffffffffffffffffffffffffffffffffffffffff16815250506000808673ffffffffffffffffffffffffffffffffffffffff166323b872dd5a6110c061221b565b5a63996d79a5598160e01b8152602081600483336000905af158600e01573d6000803e3d6000fd5b3d6001141558600a015760016000f35b8051925060005b6040811015611119576000818301526020810190506110ff565b505050896040518463ffffffff1660e01b815260040161113b93929190612eb7565b60206040518083038160008780611150612278565b158015611165576000806111626120ed565b50505b505a61116f6123db565b50505050505015801561118f573d6000803e3d600061118c6120ed565b50505b505050506040513d601f19601f820116820180604052508101906111b39190612734565b5060011515601060008973ffffffffffffffffffffffffffffffffffffffff1673ffffffffffffffffffffffffffffffffffffffff16815260200190815260200160002060009061120261215b565b906101000a900460ff16151514611379578673ffffffffffffffffffffffffffffffffffffffff1663095ea7b3600e60009061123c61215b565b906101000a900473ffffffffffffffffffffffffffffffffffffffff167fffffffffffffffffffffffffffffffffffffffffffffffffffffffffffffffff6040518363ffffffff1660e01b8152600401611297929190612f4e565b602060405180830381600087806112ac612278565b1580156112c1576000806112be6120ed565b50505b505a6112cb6123db565b5050505050501580156112eb573d6000803e3d60006112e86120ed565b50505b505050506040513d601f19601f8201168201806040525081019061130f9190612734565b506001601060008973ffffffffffffffffffffffffffffffffffffffff1673ffffffffffffffffffffffffffffffffffffffff16815260200190815260200160002060006101000a8161136061215b565b8160ff021916908315150217906113756124db565b5050505b6000806040518061010001604052808660008151811061139557fe5b602002602001015173ffffffffffffffffffffffffffffffffffffffff168152602001866001815181106113c557fe5b602002602001015173ffffffffffffffffffffffffffffffffffffffff168152602001610bb862ffffff1681526020015a63996d79a5598160e01b8152602081600483336000905af158600e01573d6000803e3d6000fd5b3d6001141558600a015760016000f35b8051925060005b604081101561144e57600081830152602081019050611434565b50505073ffffffffffffffffffffffffffffffffffffffff1681526020015a6114756121be565b815260200189815260200160008152602001600073ffffffffffffffffffffffffffffffffffffffff168152509050600e6000906114b161215b565b906101000a900473ffffffffffffffffffffffffffffffffffffffff1673ffffffffffffffffffffffffffffffffffffffff1663414bf389826040518263ffffffff1660e01b81526004016115069190613094565b6020604051808303816000878061151b612278565b1580156115305760008061152d6120ed565b50505b505a61153a6123db565b50505050505015801561155a573d6000803e3d60006115576120ed565b50505b505050506040513d601f19601f8201168201806040525081019061157e9190612811565b915061158982611b90565b955060008683039050600081146115de576040517f08c379a00000000000000000000000000000000000000000000000000000000081526004016115cc90612fb4565b604051809103906115db6120ed565b50505b82601381906115eb6124db565b50505080601481906115fb6124db565b505050828710156116ec57600860009061161361215b565b906101000a900473ffffffffffffffffffffffffffffffffffffffff1673ffffffffffffffffffffffffffffffffffffffff1663a9059cbb5a61165461221b565b836040518363ffffffff1660e01b8152600401611672929190612eee565b60206040518083038160008780611687612278565b15801561169c576000806116996120ed565b50505b505a6116a66123db565b5050505050501580156116c6573d6000803e3d60006116c36120ed565b50505b505050506040513d601f19601f820116820180604052508101906116ea9190612734565b505b866002600082826116fb61215b565b0192505081906117096124db565b50505060068b908060018161171c61215b565b0180826117276124db565b50508091505060019003906000526020600020016000909190919091509080519060200190611757929190612540565b50600760008161176561215b565b809291906001019190506117776124db565b505050600361178461215b565b600261178e61215b565b1415611825577f314217ebdf17981d4a26c0519c8810c5b95359d28c649f331ae684df59190db260026117bf61215b565b60036117c961215b565b60006117d361215b565b600160066040516117e8959493929190613147565b60405180910390a16001600460146101000a8161180361215b565b8160ff021916908315150217906118186124db565b505050611823611f3d565b505b7f1c9e0c4c164a4cd3223a9c561d40e2223428d825bae108fdae97049add3dcfff34600061185161215b565b60018e8e6040516118669594939291906130e6565b60405180910390a160001515600a60005a61187f61221b565b73ffffffffffffffffffffffffffffffffffffffff1673ffffffffffffffffffffffffffffffffffffffff1681526020019081526020016000206000906118c461215b565b906101000a900460ff1615151415611947576001600a60005a6118e561221b565b73ffffffffffffffffffffffffffffffffffffffff1673ffffffffffffffffffffffffffffffffffffffff16815260200190815260200160002060006101000a8161192e61215b565b8160ff021916908315150217906119436124db565b5050505b60019750505050505050505b9392505050565b60058061196561215b565b600181600116156101000203166002900480601f016020809104026020016040519081016040528092919081815260200182806119a061215b565b60018160011615610100020316600290048015611a0c5780601f106119da5761010080836119cc61215b565b040283529160200191611a0c565b820191906000526020600020905b816119f161215b565b815290600101906020018083116119e857829003601f168201915b505050505081565b6012600090611a2161215b565b906101000a900473ffffffffffffffffffffffffffffffffffffffff1681565b600d600090611a4e61215b565b906101000a900473ffffffffffffffffffffffffffffffffffffffff1681565b6004600090611a7b61215b565b906101000a900473ffffffffffffffffffffffffffffffffffffffff1681565b600f600090611aa861215b565b906101000a900473ffffffffffffffffffffffffffffffffffffffff1681565b6000611ad261215b565b81565b600c600090611ae261215b565b906101000a900473ffffffffffffffffffffffffffffffffffffffff1681565b6002611b0c61215b565b81565b6004601490611b1c61215b565b906101000a900460ff1681565b6008600090611b3661215b565b906101000a900473ffffffffffffffffffffffffffffffffffffffff1681565b6007611b6061215b565b81565b600e600090611b7061215b565b906101000a900473ffffffffffffffffffffffffffffffffffffffff1681565b6000806002611b9d61215b565b6003611ba761215b565b039050808311611bba5782915050611bbf565b809150505b919050565b8173ffffffffffffffffffffffffffffffffffffffff166323b872dd5a611be961221b565b5a63996d79a5598160e01b8152602081600483336000905af158600e01573d6000803e3d6000fd5b3d6001141558600a015760016000f35b8051925060005b6040811015611c4257600081830152602081019050611c28565b505050846040518463ffffffff1660e01b8152600401611c6493929190612eb7565b60206040518083038160008780611c79612278565b158015611c8e57600080611c8b6120ed565b50505b505a611c986123db565b505050505050158015611cb8573d6000803e3d6000611cb56120ed565b50505b505050506040513d601f19601f82011682018060405250810190611cdc9190612734565b5080600260008282611cec61215b565b019250508190611cfa6124db565b5050506006839080600181611d0d61215b565b018082611d186124db565b50508091505060019003906000526020600020016000909190919091509080519060200190611d48929190612540565b506007600081611d5661215b565b80929190600101919050611d686124db565b5050506003611d7561215b565b6002611d7f61215b565b1415611e16577f314217ebdf17981d4a26c0519c8810c5b95359d28c649f331ae684df59190db26002611db061215b565b6003611dba61215b565b6000611dc461215b565b60016006604051611dd9959493929190613147565b60405180910390a16001600460146101000a81611df461215b565b8160ff02191690831515021790611e096124db565b505050611e14611f3d565b505b7f1c9e0c4c164a4cd3223a9c561d40e2223428d825bae108fdae97049add3dcfff346000611e4261215b565b60018686604051611e579594939291906130e6565b60405180910390a160001515600a60005a611e7061221b565b73ffffffffffffffffffffffffffffffffffffffff1673ffffffffffffffffffffffffffffffffffffffff168152602001908152602001600020600090611eb561215b565b906101000a900460ff1615151415611f38576001600a60005a611ed661221b565b73ffffffffffffffffffffffffffffffffffffffff1673ffffffffffffffffffffffffffffffffffffffff16815260200190815260200160002060006101000a81611f1f61215b565b8160ff02191690831515021790611f346124db565b5050505b505050565b60008073420000000000000000000000000000000000000673ffffffffffffffffffffffffffffffffffffffff166370a082315a63996d79a5598160e01b8152602081600483336000905af158600e01573d6000803e3d6000fd5b3d6001141558600a015760016000f35b8051925060005b6040811015611fc957600081830152602081019050611faf565b5050506040518263ffffffff1660e01b8152600401611fe89190612e66565b6020604051808303818680611ffb612278565b1580156120105760008061200d6120ed565b50505b505a61201a6122db565b5050505050158015612039573d6000803e3d60006120366120ed565b50505b505050506040513d601f19601f8201168201806040525081019061205d9190612811565b9050600460009061206c61215b565b906101000a900473ffffffffffffffffffffffffffffffffffffffff1673ffffffffffffffffffffffffffffffffffffffff166108fc8290811502906040516000604051808303818588886120bf6123db565b50505050505093505050501580156120e4573d6000803e3d60006120e16120ed565b50505b50600191505090565b632a2a7adb598160e01b8152600481016020815285602082015260005b8681101561212857808601518160408401015260208101905061210a565b506020828760640184336000905af158600e01573d6000803e3d6000fd5b3d6001141558600a015760016000f35b505050565b6303daa959598160e01b8152836004820152602081602483336000905af158600e01573d6000803e3d6000fd5b3d6001141558600a015760016000f35b8051935060005b60408110156121b95760008183015260208101905061219f565b505050565b63bdbf8c36598160e01b8152602081600483336000905af158600e01573d6000803e3d6000fd5b3d6001141558600a015760016000f35b8051935060005b6040811015612216576000818301526020810190506121fc565b505050565b6373509064598160e01b8152602081600483336000905af158600e01573d6000803e3d6000fd5b3d6001141558600a015760016000f35b8051935060005b604081101561227357600081830152602081019050612259565b505050565b638435035b598160e01b8152836004820152602081602483336000905af158600e01573d6000803e3d6000fd5b3d6001141558600a015760016000f35b8051935060005b60408110156122d6576000818301526020810190506122bc565b505050565b638540661f598160e01b815261231a565b6000819050818311156122fd578290505b92915050565b600081905081831015612314578290505b92915050565b836004820152846024820152606060448201528660648201526084810160005b8881101561235557808801518183015260208101905061233a565b506060828960a40184336000905af158600e01573d6000803e3d6000fd5b3d6001141558600a015760016000f35b815160408301513d6000853e8b8b82606087013350600060045af150596123aa8d3d612303565b8c016123b681876122ec565b5b828110156123ce57600081526020810190506123b7565b50839d5050505050505050565b6385979f76598160e01b815261241a565b6000819050818311156123fd578290505b92915050565b600081905081831015612414578290505b92915050565b836004820152846024820152606060448201528760648201526084810160005b8981101561245557808901518183015260208101905061243a565b506060828a60a40184336000905af158600e01573d6000803e3d6000fd5b3d6001141558600a015760016000f35b815160408301513d6000853e8c8c82606087013350600060045af150596124aa8e3d612403565b8d016124b681876123ec565b5b828110156124ce57600081526020810190506124b7565b50839e5050505050505050565b6322bd64c0598160e01b8152836004820152846024820152600081604483336000905af158600e01573d6000803e3d6000fd5b3d6001141558600a015760016000f35b60005b604081101561253b57600081830152602081019050612521565b505050565b828061254a61215b565b600181600116156101000203166002900490600052602060002090601f0160209004810192826125865760008561257f6124db565b50506125e8565b82601f106125a857805160ff191683800117856125a16124db565b50506125e8565b828001600101856125b76124db565b505082156125e8579182015b828111156125e7578251826125d66124db565b5050916020019190600101906125c3565b5b5090506125f591906125f9565b5090565b5b8082111561261b576000816000906126106124db565b5050506001016125fa565b5090565b600061263261262d846131d9565b6131a8565b905082815260208101848484011115612653576000806126506120ed565b50505b61265e84828561332f565b509392505050565b60008135905061267581613384565b92915050565b60008151905061268a81613384565b92915050565b60008151905061269f816133a4565b92915050565b600082601f8301126126bf576000806126bc6120ed565b50505b81356126cf84826020860161261f565b91505092915050565b6000813590506126e7816133c4565b92915050565b6000815190506126fc816133c4565b92915050565b60006020828403121561271d5760008061271a6120ed565b50505b600061272b8482850161267b565b91505092915050565b60006020828403121561274f5760008061274c6120ed565b50505b600061275d84828501612690565b91505092915050565b600080600060608486031215612784576000806127816120ed565b50505b600084013567ffffffffffffffff8111156127a7576000806127a46120ed565b50505b6127b3868287016126a5565b93505060206127c486828701612666565b92505060406127d5868287016126d8565b9150509250925092565b6000602082840312156127fa576000806127f76120ed565b50505b6000612808848285016126d8565b91505092915050565b60006020828403121561282c576000806128296120ed565b50505b600061283a848285016126ed565b91505092915050565b600061284f838361294f565b905092915050565b612860816132f9565b82525050565b61286f816132a2565b82525050565b61287e81613290565b82525050565b61288d81613290565b82525050565b600061289e82613233565b6128a8818561325d565b9350836020820285016128ba85613209565b8060005b858110156128f5578484038952816128d68582612843565b94506128e183613250565b925060208a019950506001810190506128be565b50829750879550505050505092915050565b612910816132b4565b82525050565b600061292182613245565b61292b818561327f565b935061293b81856020860161333e565b61294481613373565b840191505092915050565b60008161295a61215b565b60018116600081146129735760018114612999576129e4565b607f6002830416612984818761326e565b955060ff1983168652602086019350506129e4565b600282046129a7818761326e565b95506129b28561321e565b60005b828110156129db57816129c661215b565b818901526001820191506020810190506129b5565b80880195505050505b505092915050565b6000816129f761215b565b6001811660008114612a105760018114612a3657612a81565b607f6002830416612a21818761327f565b955060ff198316865260208601935050612a81565b60028204612a44818761327f565b9550612a4f8561321e565b60005b82811015612a785781612a6361215b565b81890152600182019150602081019050612a52565b80880195505050505b505092915050565b6000612a96602a8361327f565b91507f537570706f7274206368696c6472656e20646f6e6174653a3a2048617264204360008301527f61702052656163686564000000000000000000000000000000000000000000006020830152604082019050919050565b6000612afc60238361327f565b91507f43616d706169676e3a3a646f6e6174653a20496e737566696369656e7420667560008301527f6e647300000000000000000000000000000000000000000000000000000000006020830152604082019050919050565b6000612b62602e8361327f565b91507f537570706f72744368696c6472656e3a3a646f6e6174653a204e6f206469726560008301527f637420706f6f6c206578697374730000000000000000000000000000000000006020830152604082019050919050565b6000612bc860468361327f565b91507f63616d706169676e3a3a6578706972656457697468647261773a204f6e6c792060008301527f7468652062656e65666963696172792063616e2077697468647261772074686560208301527f2066756e647300000000000000000000000000000000000000000000000000006040830152606082019050919050565b6000612c5460348361327f565b91507f43616d706169676e3a3a646f6e6174653a20546869732063616d706169676e2060008301527f68617320616c72656164792066696e69736865640000000000000000000000006020830152604082019050919050565b6000612cba60388361327f565b91507f43616d706169676e3a3a6578706972656457697468647261773a20546869732060008301527f63616d706169676e206973207374696c6c2061637469766500000000000000006020830152604082019050919050565b6000612d2060408361327f565b91507f537570706f72744368696c6472656e3a3a646f6e6174653a20646f6e6f72546f60008301527f6b656e203d3d2030782c2075736520646f6e61746545544820696e73746561646020830152604082019050919050565b61010082016000820151612d906000850182612875565b506020820151612da36020850182612875565b506040820151612db66040850182612e2a565b506060820151612dc96060850182612875565b506080820151612ddc6080850182612e48565b5060a0820151612def60a0850182612e48565b5060c0820151612e0260c0850182612e48565b5060e0820151612e1560e0850182612e1b565b50505050565b612e24816132c0565b82525050565b612e33816132e0565b82525050565b612e42816132e0565b82525050565b612e51816132ef565b82525050565b612e60816132ef565b82525050565b6000602082019050612e7b6000830184612884565b92915050565b6000602082019050612e966000830184612857565b92915050565b6000602082019050612eb16000830184612866565b92915050565b6000606082019050612ecc6000830186612857565b612ed96020830185612884565b612ee66040830184612e57565b949350505050565b6000604082019050612f036000830185612857565b612f106020830184612e57565b9392505050565b6000606082019050612f2c6000830186612884565b612f396020830185612884565b612f466040830184612e39565b949350505050565b6000604082019050612f636000830185612884565b612f706020830184612e57565b9392505050565b6000602082019050612f8c6000830184612907565b92915050565b60006020820190508181036000830152612fac8184612916565b905092915050565b60006020820190508181036000830152612fcd81612a89565b9050919050565b60006020820190508181036000830152612fed81612aef565b9050919050565b6000602082019050818103600083015261300d81612b55565b9050919050565b6000602082019050818103600083015261302d81612bbb565b9050919050565b6000602082019050818103600083015261304d81612c47565b9050919050565b6000602082019050818103600083015261306d81612cad565b9050919050565b6000602082019050818103600083015261308d81612d13565b9050919050565b6000610100820190506130aa6000830184612d79565b92915050565b60006020820190506130c56000830184612e39565b92915050565b60006020820190506130e06000830184612e57565b92915050565b600060a0820190506130fb6000830188612e57565b6131086020830187612e57565b818103604083015261311a81866129ec565b9050818103606083015261312e8185612916565b905061313d6080830184612884565b9695505050505050565b600060a08201905061315c6000830188612e57565b6131696020830187612e57565b6131766040830186612e57565b818103606083015261318881856129ec565b9050818103608083015261319c8184612893565b90509695505050505050565b6000604051905081810181811067ffffffffffffffff821117156131cf576131ce613371565b5b8060405250919050565b600067ffffffffffffffff8211156131f4576131f3613371565b5b601f19601f8301169050602081019050919050565b60008190508160005260206000209050919050565b60008190508160005260206000209050919050565b60008161323e61215b565b9050919050565b600081519050919050565b6000600182019050919050565b600082825260208201905092915050565b600082825260208201905092915050565b600082825260208201905092915050565b600061329b826132c0565b9050919050565b60006132ad826132c0565b9050919050565b60008115159050919050565b600073ffffffffffffffffffffffffffffffffffffffff82169050919050565b600062ffffff82169050919050565b6000819050919050565b60006133048261330b565b9050919050565b60006133168261331d565b9050919050565b6000613328826132c0565b9050919050565b82818337600083830152505050565b60005b8381101561335c578082015181840152602081019050613341565b8381111561336b576000848401525b50505050565bfe5b6000601f19601f8301169050919050565b61338d81613290565b81146133a15760008061339e6120ed565b50505b50565b6133ad816132b4565b81146133c1576000806133be6120ed565b50505b50565b6133cd816132ef565b81146133e1576000806133de6120ed565b50505b5056",
  "linkReferences": {},
  "deployedLinkReferences": {}
}