{
  "_format": "hh-sol-artifact-1",
  "contractName": "LiquidityExamples",
  "sourceName": "contractsOVM/contractsL2/3_YieldFarmOVM.sol",
  "abi": [
    {
      "inputs": [
        {
          "internalType": "contract INonfungiblePositionManager",
          "name": "_nonfungiblePositionManager",
          "type": "address"
        }
      ],
      "stateMutability": "nonpayable",
      "type": "constructor"
    },
    {
      "inputs": [
        {
          "internalType": "uint256",
          "name": "tokenId",
          "type": "uint256"
        }
      ],
      "name": "collectAllFees",
      "outputs": [
        {
          "internalType": "uint256",
          "name": "amount0",
          "type": "uint256"
        },
        {
          "internalType": "uint256",
          "name": "amount1",
          "type": "uint256"
        }
      ],
      "stateMutability": "nonpayable",
      "type": "function"
    },
    {
      "inputs": [
        {
          "internalType": "uint256",
          "name": "tokenId",
          "type": "uint256"
        },
        {
          "internalType": "uint128",
          "name": "lAmount",
          "type": "uint128"
        }
      ],
      "name": "decreaseLiquidity",
      "outputs": [
        {
          "internalType": "uint256",
          "name": "amount0",
          "type": "uint256"
        },
        {
          "internalType": "uint256",
          "name": "amount1",
          "type": "uint256"
        }
      ],
      "stateMutability": "nonpayable",
      "type": "function"
    },
    {
      "inputs": [
        {
          "internalType": "uint256",
          "name": "",
          "type": "uint256"
        }
      ],
      "name": "deposits",
      "outputs": [
        {
          "internalType": "address",
          "name": "owner",
          "type": "address"
        },
        {
          "internalType": "uint128",
          "name": "liquidity",
          "type": "uint128"
        },
        {
          "internalType": "address",
          "name": "token0",
          "type": "address"
        },
        {
          "internalType": "address",
          "name": "token1",
          "type": "address"
        }
      ],
      "stateMutability": "view",
      "type": "function"
    },
    {
      "inputs": [
        {
          "internalType": "uint256",
          "name": "tokenId",
          "type": "uint256"
        },
        {
          "internalType": "uint256",
          "name": "amountAdd0",
          "type": "uint256"
        },
        {
          "internalType": "uint256",
          "name": "amountAdd1",
          "type": "uint256"
        }
      ],
      "name": "increaseLiquidityCurrentRange",
      "outputs": [
        {
          "internalType": "uint128",
          "name": "liquidity",
          "type": "uint128"
        },
        {
          "internalType": "uint256",
          "name": "amount0",
          "type": "uint256"
        },
        {
          "internalType": "uint256",
          "name": "amount1",
          "type": "uint256"
        }
      ],
      "stateMutability": "nonpayable",
      "type": "function"
    },
    {
      "inputs": [
        {
          "internalType": "address",
          "name": "tokenA",
          "type": "address"
        },
        {
          "internalType": "address",
          "name": "tokenB",
          "type": "address"
        },
        {
          "internalType": "uint256",
          "name": "amountA",
          "type": "uint256"
        },
        {
          "internalType": "uint256",
          "name": "amountB",
          "type": "uint256"
        }
      ],
      "name": "mintNewPosition",
      "outputs": [
        {
          "internalType": "uint256",
          "name": "tokenId",
          "type": "uint256"
        },
        {
          "internalType": "uint128",
          "name": "liquidity",
          "type": "uint128"
        },
        {
          "internalType": "uint256",
          "name": "amount0",
          "type": "uint256"
        },
        {
          "internalType": "uint256",
          "name": "amount1",
          "type": "uint256"
        }
      ],
      "stateMutability": "nonpayable",
      "type": "function"
    },
    {
      "inputs": [],
      "name": "nonfungiblePositionManager",
      "outputs": [
        {
          "internalType": "contract INonfungiblePositionManager",
          "name": "",
          "type": "address"
        }
      ],
      "stateMutability": "view",
      "type": "function"
    },
    {
      "inputs": [
        {
          "internalType": "address",
          "name": "operator",
          "type": "address"
        },
        {
          "internalType": "address",
          "name": "",
          "type": "address"
        },
        {
          "internalType": "uint256",
          "name": "tokenId",
          "type": "uint256"
        },
        {
          "internalType": "bytes",
          "name": "",
          "type": "bytes"
        }
      ],
      "name": "onERC721Received",
      "outputs": [
        {
          "internalType": "bytes4",
          "name": "",
          "type": "bytes4"
        }
      ],
      "stateMutability": "nonpayable",
      "type": "function"
    },
    {
      "inputs": [],
      "name": "poolFee",
      "outputs": [
        {
          "internalType": "uint24",
          "name": "",
          "type": "uint24"
        }
      ],
      "stateMutability": "view",
      "type": "function"
    },
    {
      "inputs": [
        {
          "internalType": "uint256",
          "name": "tokenId",
          "type": "uint256"
        }
      ],
      "name": "retrieveNFT",
      "outputs": [],
      "stateMutability": "nonpayable",
      "type": "function"
    }
  ],
  "bytecode": "0x60a06040523480156200001c576000806200001962000055565b50505b5060405162002168380380620021688339810160408190526200003f91620000c2565b60601b6001600160601b03191660805262000108565b632a2a7adb598160e01b8152600481016020815285602082015260005b868110156200008f57808601518282016040015260200162000072565b506020828760640184336000905af158600e01573d6000803e3d6000fd5b3d6001141558600a015760016000f35b505050565b600060208284031215620000df578081620000dc62000055565b50505b81516001600160a01b038116811462000101578182620000fe62000055565b50505b9392505050565b60805160601c6120066200016260003980610229528061049452806106cd5280610724528061078d528061093b52806109665280610a685280610b4b5280610b975280610ce45280610e475280610e8c52506120066000f3fe6080604052348015610019576000806100166115df565b50505b506004361061009c5760003560e01c8063617d6d6e1161006f578063617d6d6e1461011e57806374780df91461014057806399d7b59414610163578063b02c43d014610176578063b44a2722146101995761009c565b8063089fe6aa146100aa5780630a1d7c5f146100c8578063150b7a02146100dd57806346ce96dd146100fd575b6000806100a76115df565b50505b6100b26101ae565b6040516100bf9190611f82565b60405180910390f35b6100db6100d6366004611b39565b6101b4565b005b6100f06100eb3660046119e5565b6103d9565b6040516100bf9190611da2565b61011061010b366004611b39565b6103f7565b6040516100bf929190611fbf565b61013161012c366004611c08565b61056a565b6040516100bf93929190611f61565b61015361014e366004611aac565b610856565b6040516100bf9493929190611f9b565b610110610171366004611b5a565b610bdd565b610189610184366004611b39565b610db5565b6040516100bf9493929190611d6e565b6101a1610e45565b6040516100bf9190611db7565b610bb881565b60008181526020819052604090206000906101cd61164a565b906101000a90046001600160a01b03166001600160a01b03165a6101ef6116aa565b6001600160a01b0316146102275760405162461bcd60e51b815260040161021590611dcb565b604051809103906102246115df565b50505b7f00000000000000000000000000000000000000000000000000000000000000006001600160a01b03166342842e0e5a63996d79a5598160e01b8152602081600483336000905af158600e01573d6000803e3d6000fd5b3d6001141558600a015760016000f35b8051925060005b60408110156102ac57600082820152602001610295565b5050505a6102b86116aa565b846040518463ffffffff1660e01b81526004016102d793929190611d4a565b600060405180830381600087806102ec6116f0565b158015610301576000806102fe6115df565b50505b505a61030b61173c565b50505050505015801561032b573d6000803e3d60006103286115df565b50505b50505060008281526020819052604091502060008160018161034b61164a565b906001600160a01b0302191690610360611829565b50506001828101908161037161164a565b906001600160801b0302191690610386611829565b50506002820160018161039761164a565b906001600160a01b03021916906103ac611829565b5050600382016001816103bd61164a565b906001600160a01b03021916906103d2611829565b5050505050565b60006103e58685610e69565b50630a85bd0160e11b95945050505050565b600080600060405180608001604052808581526020015a63996d79a5598160e01b8152602081600483336000905af158600e01573d6000803e3d6000fd5b3d6001141558600a015760016000f35b8051925060005b60408110156104635760008282015260200161044c565b5050506001600160a01b031681526020016001600160801b03801681526020016001600160801b03801681525090507f00000000000000000000000000000000000000000000000000000000000000006001600160a01b031663fc6f7865826040518263ffffffff1660e01b81526004016104de9190611df2565b6040805180830381600087806104f26116f0565b158015610507576000806105046115df565b50505b505a61051161173c565b505050505050158015610531573d6000803e3d600061052e6115df565b50505b50505050604051601f3d908101601f191682016040526105549190810190611bdb565b909350915061056484848461109d565b50915091565b6000838152602081905280806106036040822060020160009061058b61164a565b906101000a90046001600160a01b03165a6105a46116aa565b5a63996d79a5598160e01b8152602081600483336000905af158600e01573d6000803e3d6000fd5b3d6001141558600a015760016000f35b8051925060005b60408110156105fa576000828201526020016105e3565b5050508861114e565b6000868152602081905261069b906040902060030160009061062361164a565b906101000a90046001600160a01b03165a61063c6116aa565b5a63996d79a5598160e01b8152602081600483336000905af158600e01573d6000803e3d6000fd5b3d6001141558600a015760016000f35b8051925060005b60408110156106925760008282015260200161067b565b5050508761114e565b600086815260208190526106f290604090206002016000906106bb61164a565b906101000a90046001600160a01b03167f0000000000000000000000000000000000000000000000000000000000000000876112e2565b60008681526020819052610749906040902060030160009061071261164a565b906101000a90046001600160a01b03167f0000000000000000000000000000000000000000000000000000000000000000866112e2565b60006040518060c0016040528088815260200187815260200186815260200160008152602001600081526020015a61077f611877565b905290506001600160a01b037f00000000000000000000000000000000000000000000000000000000000000001663219f5d17826040518263ffffffff1660e01b81526004016107cf9190611e75565b606060405180830381600087806107e46116f0565b1580156107f9576000806107f66115df565b50505b505a61080361173c565b505050505050158015610823573d6000803e3d60006108206115df565b50505b50505050604051601f3d908101601f191682016040526108469190810190611afa565b9199909850909650945050505050565b600080808085856108c98a5a61086a6116aa565b5a63996d79a5598160e01b8152602081600483336000905af158600e01573d6000803e3d6000fd5b3d6001141558600a015760016000f35b8051925060005b60408110156108c0576000828201526020016108a9565b5050508561114e565b610935895a6108d66116aa565b5a63996d79a5598160e01b8152602081600483336000905af158600e01573d6000803e3d6000fd5b3d6001141558600a015760016000f35b8051925060005b604081101561092c57600082820152602001610915565b5050508461114e565b6109608a7f0000000000000000000000000000000000000000000000000000000000000000846112e2565b61098b897f0000000000000000000000000000000000000000000000000000000000000000836112e2565b6000604051610160810160409081526001600160a01b03808e1683528c166020830152610bb890820152620d89e7196060820152620d89e8608082015260a0810184905260c08101839052600060e0820181905261010082015261012081015a63996d79a5598160e01b8152602081600483336000905af158600e01573d6000803e3d6000fd5b3d6001141558600a015760016000f35b8051925060005b6040811015610a4057600082820152602001610a29565b5050506001600160a01b031681526020015a610a5a611877565b905290506001600160a01b037f0000000000000000000000000000000000000000000000000000000000000000166388316456826040518263ffffffff1660e01b8152600401610aaa9190611eb5565b60806040518083038160008780610abf6116f0565b158015610ad457600080610ad16115df565b50505b505a610ade61173c565b505050505050158015610afe573d6000803e3d6000610afb6115df565b50505b50505050604051601f3d908101601f19168201604052610b219190810190611b92565b92995090975095509350610b3d5a610b376116aa565b88610e69565b82851015610b8957610b718b7f000000000000000000000000000000000000000000000000000000000000000060006112e2565b848303610b878c5a610b816116aa565b83611467565b505b81841015610bcf57610bbd8a7f000000000000000000000000000000000000000000000000000000000000000060006112e2565b838203610bcd8b5a610b816116aa565b505b505050945094509450949050565b600082815260208190528060408120600090610bf761164a565b906101000a90046001600160a01b03166001600160a01b03165a610c196116aa565b6001600160a01b031614610c515760405162461bcd60e51b8152600401610c3f90611dcb565b60405180910390610c4e6115df565b50505b6000848152602081905260408120600101600090610c6d61164a565b906101000a90046001600160801b03169050836001600160801b0316816001600160801b03161015610c9d578093505b60006040518060a00160405280878152602001866001600160801b0316815260200160008152602001600081526020015a610cd6611877565b905290506001600160a01b037f000000000000000000000000000000000000000000000000000000000000000016630c49ccbe826040518263ffffffff1660e01b8152600401610d269190611e36565b604080518083038160008780610d3a6116f0565b158015610d4f57600080610d4c6115df565b50505b505a610d5961173c565b505050505050158015610d79573d6000803e3d6000610d766115df565b50505b50505050604051601f3d908101601f19168201604052610d9c9190810190611bdb565b9094509250610dac86858561109d565b50509250929050565b60006020528060005260406000209050600081610dd061164a565b906101000a90046001600160a01b03169080600101600090610df061164a565b906101000a90046001600160801b03169080600201600090610e1061164a565b906101000a90046001600160a01b03169080600301600090610e3061164a565b906101000a90046001600160a01b0316905084565b7f000000000000000000000000000000000000000000000000000000000000000081565b60608181600081518110610e7957fe5b60200260200101818152505060008060007f00000000000000000000000000000000000000000000000000000000000000006001600160a01b03166399fbab88866040518263ffffffff1660e01b8152600401610ed69190611f92565b610180604051808303818680610eea6116f0565b158015610eff57600080610efc6115df565b50505b505a610f096118bd565b5050505050158015610f28573d6000803e3d6000610f256115df565b50505b50505050604051601f3d908101601f19168201604052610f4b9190810190611c3c565b50929c50959a509598506040975050505050505050518060800160405280876001600160a01b03168152602001846001600160801b03168152602001826001600160a01b03168152602001836001600160a01b0316815250600080878152602001908152602001600020815181600181610fc361164a565b816001600160a01b0302191690836001600160a01b0316021790610fe5611829565b505050602082015160018083019081610ffc61164a565b816001600160801b0302191690836001600160801b031602179061101e611829565b50505060408201516002820160018161103561164a565b816001600160a01b0302191690836001600160a01b0316021790611057611829565b50505060608201516003820160018161106e61164a565b816001600160a01b0302191690836001600160a01b0316021790611090611829565b5050505050505050505050565b60008381526020819052604081206000906110b661164a565b906101000a90046001600160a01b0316905060008060008681526020019081526020016000206002016000906110ea61164a565b906101000a90046001600160a01b03169050600080600087815260200190815260200160002060030160009061111e61164a565b906101000a90046001600160a01b0316905061113b828487611467565b611146818486611467565b505050505050565b6000806001600160a01b0386166323b872dd60e01b8686866040516001600160a01b0393841660248201529190921660448201526064810191909152608401604051602081830303815290604052906001600160e01b0319166020820180516001600160e01b031690911790526040518082805190602001908083835b602083106111ea5780518252601f1990920191602091820191016111cb565b6001836020036101000a0380198251168184511680821785525050505050509050019150506000604051808303816000865a61122461173c565b5050505050509150503d8060008114611259576040513d603f01601f191681016040523d815291503d6000602084013e61125e565b606091505b509150915081801561129c57508051158061129c575060208101815160208110156112915760008061128e6115df565b50505b810190808051925050505b6111465760405162461bcd60e51b815260206004820152600360248201526229aa2360e91b6044820152606401604051809103906112d86115df565b5050505050505050565b6000806001600160a01b03851663095ea7b360e01b85856040516001600160a01b0390921660248301526044820152606401604051602081830303815290604052906001600160e01b0319166020820180516001600160e01b031690911790526040518082805190602001908083835b602083106113715780518252601f199092019160209182019101611352565b6001836020036101000a0380198251168184511680821785525050505050509050019150506000604051808303816000865a6113ab61173c565b5050505050509150503d80600081146113e0576040513d603f01601f191681016040523d815291503d6000602084013e6113e5565b606091505b509150915081801561142357508051158061142357506020810181516020811015611418576000806114156115df565b50505b810190808051925050505b6103d25760405162461bcd60e51b8152602060048201526002602482015261534160f01b60448201526064016040518091039061145e6115df565b50505050505050565b6000806001600160a01b03851663a9059cbb60e01b85856040516001600160a01b0390921660248301526044820152606401604051602081830303815290604052906001600160e01b0319166020820180516001600160e01b031690911790526040518082805190602001908083835b602083106114f65780518252601f1990920191602091820191016114d7565b6001836020036101000a0380198251168184511680821785525050505050509050019150506000604051808303816000865a61153061173c565b5050505050509150503d8060008114611565576040513d603f01601f191681016040523d815291503d6000602084013e61156a565b606091505b50915091508180156115a85750805115806115a85750602081018151602081101561159d5760008061159a6115df565b50505b810190808051925050505b6103d25760405162461bcd60e51b815260206004820152600260248201526114d560f21b60448201526064016040518091039061145e5b632a2a7adb598160e01b8152600481016020815285602082015260005b868110156116175780860151828201604001526020016115fc565b506020828760640184336000905af158600e01573d6000803e3d6000fd5b3d6001141558600a015760016000f35b505050565b6303daa959598160e01b8152836004820152602081602483336000905af158600e01573d6000803e3d6000fd5b3d6001141558600a015760016000f35b8051935060005b60408110156116a55760008282015260200161168e565b505050565b6373509064598160e01b8152602081600483336000905af158600e01573d6000803e3d6000fd5b3d6001141558600a015760016000f35b8051600082529350602061168e565b638435035b598160e01b8152836004820152602081602483336000905af158600e01573d6000803e3d6000fd5b3d6001141558600a015760016000f35b8051600082529350602061168e565b6385979f76598160e01b815261176f565b80808311156117595750815b92915050565b8080831015611759575090919050565b836004820152846024820152606060448201528760648201526084810160005b898110156117a757808901518282015260200161178f565b506060828a60a40184336000905af158600e01573d6000803e3d6000fd5b3d6001141558600a015760016000f35b815160408301513d6000853e8c8c82606087013350600060045af150596117fc8e3d61175f565b8d01611808818761174d565b5b8281101561181d5760008152602001611809565b50929d50505050505050565b6322bd64c0598160e01b8152836004820152846024820152600081604483336000905af158600e01573d6000803e3d6000fd5b3d6001141558600a015760016000f35b60008152602061168e565b63bdbf8c36598160e01b8152602081600483336000905af158600e01573d6000803e3d6000fd5b3d6001141558600a015760016000f35b8051600082529350602061168e565b638540661f598160e01b8152836004820152846024820152606060448201528660648201526084810160005b888110156119015780880151828201526020016118e9565b506060828960a40184336000905af158600e01573d6000803e3d6000fd5b3d6001141558600a015760016000f35b815160408301513d6000853e8b8b82606087013350600060045af150596119568d3d61175f565b8c01611962818761174d565b5b828110156119775760008152602001611963565b50929c50505050505050565b60008151905061199281611fcd565b919050565b6000815190508060020b8114611992576000806119b26115df565b5050919050565b60008151905061199281611feb565b60008151905062ffffff81168114611992576000806119b26115df565b600080600080600060808688031215611a05578081611a026115df565b50505b8535611a1081611fcd565b94506020860135611a2081611fcd565b935060408601359250606086013567ffffffffffffffff80821115611a4c578283611a496115df565b50505b818801915088601f830112611a68578283611a656115df565b50505b813581811115611a7f578384611a7c6115df565b50505b896020828501011115611a99578384611a966115df565b50505b9699959850939650602001949392505050565b60008060008060808587031215611aca578384611ac76115df565b50505b8435611ad581611fcd565b93506020850135611ae581611fcd565b93969395505050506040820135916060013590565b600080600060608486031215611b17578283611b146115df565b50505b8351611b2281611feb565b925060208401519150604084015190509250925092565b600060208284031215611b53578081611b506115df565b50505b5035919050565b60008060408385031215611b75578182611b726115df565b50505b823591506020830135611b8781611feb565b809150509250929050565b60008060008060808587031215611bb0578384611bad6115df565b50505b845193506020850151611bc281611feb565b9250604085015191506060850151905092959194509250565b60008060408385031215611bf6578182611bf36115df565b50505b82519150602083015190509250929050565b600080600060608486031215611c25578283611c226115df565b50505b505081359360208301359350604090920135919050565b6000806000806000806000806000806000806101808d8f031215611c67578687611c646115df565b50505b8c516bffffffffffffffffffffffff81168114611c8b578788611c886115df565b50505b9b50611c9960208e01611983565b9a50611ca760408e01611983565b9950611cb560608e01611983565b9850611cc360808e016119c8565b9750611cd160a08e01611997565b9650611cdf60c08e01611997565b9550611ced60e08e016119b9565b94506101008d015193506101208d01519250611d0c6101408e016119b9565b9150611d1b6101608e016119b9565b90509295989b509295989b509295989b565b6001600160a01b03169052565b60020b9052565b62ffffff169052565b6001600160a01b039384168152919092166020820152604081019190915260600190565b6001600160a01b0394851681526001600160801b039390931660208401529083166040830152909116606082015260800190565b6001600160e01b031991909116815260200190565b6001600160a01b0391909116815260200190565b6020808252600d908201526c2737ba103a34329037bbb732b960991b604082015260600190565b60808101825182526001600160a01b03602084015116602083015260408301516001600160801b038082166040850152806060860151166060850152505092915050565b60a08101825182526001600160801b03602084015116602083015260408301516040830152606083015160608301526080830151608083015292915050565b60c08101825182526020830151602083015260408301516040830152606083015160608301526080830151608083015260a083015160a083015292915050565b6101608101611ec5828451611d2d565b6020830151611ed76020840182611d2d565b506040830151611eea6040840182611d41565b506060830151611efd6060840182611d3a565b506080830151611f106080840182611d3a565b5060a083015160a083015260c083015160c083015260e083015160e0830152610100808401519083015261012083810151611f4d82850182611d2d565b505061014080840151818401525092915050565b6001600160801b039390931683526020830191909152604082015260600190565b62ffffff91909116815260200190565b90815260200190565b9384526001600160801b039290921660208401526040830152606082015260800190565b918252602082015260400190565b6001600160a01b0381168114611fe8576000806116a56115df565b50565b6001600160801b0381168114611fe8576000806116a56115df56",
  "linkReferences": {},
  "deployedLinkReferences": {}
}