{
  "_format": "hh-sol-artifact-1",
  "contractName": "LiquidityExamples",
  "sourceName": "contractsOVM/contractsL2/3_YieldFarmOVM.sol",
  "abi": [
    {
      "inputs": [
        {
          "internalType": "contract INonfungiblePositionManager",
          "name": "_nonfungiblePositionManager",
          "type": "address"
        }
      ],
      "stateMutability": "nonpayable",
      "type": "constructor"
    },
    {
      "inputs": [
        {
          "internalType": "uint256",
          "name": "tokenId",
          "type": "uint256"
        }
      ],
      "name": "collectAllFees",
      "outputs": [
        {
          "internalType": "uint256",
          "name": "amount0",
          "type": "uint256"
        },
        {
          "internalType": "uint256",
          "name": "amount1",
          "type": "uint256"
        }
      ],
      "stateMutability": "nonpayable",
      "type": "function"
    },
    {
      "inputs": [
        {
          "internalType": "uint256",
          "name": "tokenId",
          "type": "uint256"
        },
        {
          "internalType": "uint128",
          "name": "lAmount",
          "type": "uint128"
        }
      ],
      "name": "decreaseLiquidity",
      "outputs": [
        {
          "internalType": "uint256",
          "name": "amount0",
          "type": "uint256"
        },
        {
          "internalType": "uint256",
          "name": "amount1",
          "type": "uint256"
        }
      ],
      "stateMutability": "nonpayable",
      "type": "function"
    },
    {
      "inputs": [
        {
          "internalType": "uint256",
          "name": "",
          "type": "uint256"
        }
      ],
      "name": "deposits",
      "outputs": [
        {
          "internalType": "address",
          "name": "owner",
          "type": "address"
        },
        {
          "internalType": "uint128",
          "name": "liquidity",
          "type": "uint128"
        },
        {
          "internalType": "address",
          "name": "token0",
          "type": "address"
        },
        {
          "internalType": "address",
          "name": "token1",
          "type": "address"
        }
      ],
      "stateMutability": "view",
      "type": "function"
    },
    {
      "inputs": [
        {
          "internalType": "uint256",
          "name": "tokenId",
          "type": "uint256"
        },
        {
          "internalType": "uint256",
          "name": "amountAdd0",
          "type": "uint256"
        },
        {
          "internalType": "uint256",
          "name": "amountAdd1",
          "type": "uint256"
        }
      ],
      "name": "increaseLiquidityCurrentRange",
      "outputs": [
        {
          "internalType": "uint128",
          "name": "liquidity",
          "type": "uint128"
        },
        {
          "internalType": "uint256",
          "name": "amount0",
          "type": "uint256"
        },
        {
          "internalType": "uint256",
          "name": "amount1",
          "type": "uint256"
        }
      ],
      "stateMutability": "nonpayable",
      "type": "function"
    },
    {
      "inputs": [
        {
          "internalType": "address",
          "name": "tokenA",
          "type": "address"
        },
        {
          "internalType": "address",
          "name": "tokenB",
          "type": "address"
        },
        {
          "internalType": "uint256",
          "name": "amountA",
          "type": "uint256"
        },
        {
          "internalType": "uint256",
          "name": "amountB",
          "type": "uint256"
        }
      ],
      "name": "mintNewPosition",
      "outputs": [
        {
          "internalType": "uint256",
          "name": "tokenId",
          "type": "uint256"
        },
        {
          "internalType": "uint128",
          "name": "liquidity",
          "type": "uint128"
        },
        {
          "internalType": "uint256",
          "name": "amount0",
          "type": "uint256"
        },
        {
          "internalType": "uint256",
          "name": "amount1",
          "type": "uint256"
        }
      ],
      "stateMutability": "nonpayable",
      "type": "function"
    },
    {
      "inputs": [],
      "name": "nonfungiblePositionManager",
      "outputs": [
        {
          "internalType": "contract INonfungiblePositionManager",
          "name": "",
          "type": "address"
        }
      ],
      "stateMutability": "view",
      "type": "function"
    },
    {
      "inputs": [
        {
          "internalType": "address",
          "name": "operator",
          "type": "address"
        },
        {
          "internalType": "address",
          "name": "",
          "type": "address"
        },
        {
          "internalType": "uint256",
          "name": "tokenId",
          "type": "uint256"
        },
        {
          "internalType": "bytes",
          "name": "",
          "type": "bytes"
        }
      ],
      "name": "onERC721Received",
      "outputs": [
        {
          "internalType": "bytes4",
          "name": "",
          "type": "bytes4"
        }
      ],
      "stateMutability": "nonpayable",
      "type": "function"
    },
    {
      "inputs": [],
      "name": "poolFee",
      "outputs": [
        {
          "internalType": "uint24",
          "name": "",
          "type": "uint24"
        }
      ],
      "stateMutability": "view",
      "type": "function"
    },
    {
      "inputs": [
        {
          "internalType": "uint256",
          "name": "tokenId",
          "type": "uint256"
        }
      ],
      "name": "retrieveNFT",
      "outputs": [],
      "stateMutability": "nonpayable",
      "type": "function"
    }
  ],
  "bytecode": "0x60a060405234801561001057600080fd5b5060405161164f38038061164f83398101604081905261002f91610044565b60601b6001600160601b031916608052610072565b600060208284031215610055578081fd5b81516001600160a01b038116811461006b578182fd5b9392505050565b60805160601c6115846100cb600039806101f8528061030b5280610422528061046852806104d1528061058d52806105b8528061065252806106fb528061073f528061082b528061090c528061095152506115846000f3fe608060405234801561001057600080fd5b50600436106100935760003560e01c8063617d6d6e11610066578063617d6d6e1461010c57806374780df91461012e57806399d7b59414610151578063b02c43d014610164578063b44a27221461018757610093565b8063089fe6aa146100985780630a1d7c5f146100b6578063150b7a02146100cb57806346ce96dd146100eb575b600080fd5b6100a061019c565b6040516100ad91906114d6565b60405180910390f35b6100c96100c43660046110c7565b6101a2565b005b6100de6100d9366004610fb2565b6102b4565b6040516100ad91906112ed565b6100fe6100f93660046110c7565b6102d2565b6040516100ad929190611513565b61011f61011a36600461116e565b6103af565b6040516100ad939291906114b5565b61014161013c36600461104c565b610568565b6040516100ad94939291906114ef565b6100fe61015f3660046110df565b610783565b6101776101723660046110c7565b6108ca565b6040516100ad94939291906112b9565b61018f61090a565b6040516100ad9190611302565b610bb881565b6000818152602081905260409020546001600160a01b031633146101e15760405162461bcd60e51b81526004016101d890611316565b60405180910390fd5b604051632142170760e11b81526001600160a01b037f000000000000000000000000000000000000000000000000000000000000000016906342842e0e9061023190309033908690600401611295565b600060405180830381600087803b15801561024b57600080fd5b505af115801561025f573d6000803e3d6000fd5b50505060009182525060208190526040902080546001600160a01b031990811682556001820180546fffffffffffffffffffffffffffffffff1916905560028201805482169055600390910180549091169055565b60006102c0868561092e565b50630a85bd0160e11b95945050505050565b604080516080810182528281523060208201526001600160801b038183018190526060820152905163fc6f786560e01b815260009182917f00000000000000000000000000000000000000000000000000000000000000006001600160a01b03169063fc6f78659061034890849060040161133d565b6040805180830381600087803b15801561036157600080fd5b505af1158015610375573d6000803e3d6000fd5b505050506040513d601f19601f82011682018060405250810190610399919061114b565b90935091506103a9848484610b44565b50915091565b600083815260208190526040812060020154819081906103da906001600160a01b0316333088610b8d565b600086815260208190526040902060030154610401906001600160a01b0316333087610b8d565b600086815260208190526040902060020154610447906001600160a01b03167f000000000000000000000000000000000000000000000000000000000000000087610cdd565b60008681526020819052604090206003015461048d906001600160a01b03167f000000000000000000000000000000000000000000000000000000000000000086610cdd565b6040805160c0810182528781526020810187905280820186905260006060820181905260808201524260a0820152905163219f5d1760e01b81526001600160a01b037f0000000000000000000000000000000000000000000000000000000000000000169063219f5d17906105069084906004016113c3565b606060405180830381600087803b15801561052057600080fd5b505af1158015610534573d6000803e3d6000fd5b505050506040513d601f19601f820116820180604052508101906105589190611091565b9199909850909650945050505050565b6000808080858561057b8a333085610b8d565b61058789333084610b8d565b6105b28a7f000000000000000000000000000000000000000000000000000000000000000084610cdd565b6105dd897f000000000000000000000000000000000000000000000000000000000000000083610cdd565b60408051610160810182526001600160a01b03808d1682528b81166020830152610bb882840152620d89e7196060830152620d89e8608083015260a0820185905260c08201849052600060e0830181905261010083015230610120830152426101408301529151634418b22b60e11b815290917f00000000000000000000000000000000000000000000000000000000000000001690638831645690610687908490600401611407565b608060405180830381600087803b1580156106a157600080fd5b505af11580156106b5573d6000803e3d6000fd5b505050506040513d601f19601f820116820180604052508101906106d9919061110e565b929950909750955093506106ed338861092e565b82851015610731576107218b7f00000000000000000000000000000000000000000000000000000000000000006000610cdd565b84830361072f8c3383610e2b565b505b81841015610775576107658a7f00000000000000000000000000000000000000000000000000000000000000006000610cdd565b8382036107738b3383610e2b565b505b505050945094509450949050565b60008281526020819052604081205481906001600160a01b031633146107bb5760405162461bcd60e51b81526004016101d890611316565b6000848152602081905260409020600101546001600160801b039081169084168110156107e6578093505b6040805160a0810182528681526001600160801b0386166020820152600081830181905260608201524260808201529051630624e65f60e11b81526001600160a01b037f00000000000000000000000000000000000000000000000000000000000000001690630c49ccbe90610860908490600401611380565b6040805180830381600087803b15801561087957600080fd5b505af115801561088d573d6000803e3d6000fd5b505050506040513d601f19601f820116820180604052508101906108b1919061114b565b90945092506108c1868585610b44565b50509250929050565b60006020819052908152604090208054600182015460028301546003909301546001600160a01b03928316936001600160801b0390921692918216911684565b7f000000000000000000000000000000000000000000000000000000000000000081565b6060818160008151811061093e57fe5b60200260200101818152505060008060007f00000000000000000000000000000000000000000000000000000000000000006001600160a01b03166399fbab88866040518263ffffffff1660e01b815260040161099b91906114e6565b6101806040518083038186803b1580156109b457600080fd5b505afa1580156109c8573d6000803e3d6000fd5b505050506040513d601f19601f820116820180604052508101906109ec9190611199565b909192939495969798999a509091929394959697989950909192939495965090919293949550909192939450909192509091509050508095508194508293505050506040518060800160405280876001600160a01b03168152602001846001600160801b03168152602001826001600160a01b03168152602001836001600160a01b031681525060008087815260200190815260200160002060008201518160000160006101000a8154816001600160a01b0302191690836001600160a01b0316021790555060208201518160010160006101000a8154816001600160801b0302191690836001600160801b0316021790555060408201518160020160006101000a8154816001600160a01b0302191690836001600160a01b0316021790555060608201518160030160006101000a8154816001600160a01b0302191690836001600160a01b03160217905550905050505050505050565b6000838152602081905260409020805460028201546003909201546001600160a01b039182169282169116610b7a828487610e2b565b610b85818486610e2b565b505050505050565b604080516001600160a01b0385811660248301528481166044830152606480830185905283518084039091018152608490920183526020820180516001600160e01b03166323b872dd60e01b178152925182516000948594938a169392918291908083835b60208310610c115780518252601f199092019160209182019101610bf2565b6001836020036101000a0380198251168184511680821785525050505050509050019150506000604051808303816000865af19150503d8060008114610c73576040519150601f19603f3d011682016040523d82523d6000602084013e610c78565b606091505b5091509150818015610ca6575080511580610ca65750808060200190516020811015610ca357600080fd5b50515b610b85576040805162461bcd60e51b815260206004820152600360248201526229aa2360e91b604482015290519081900360640190fd5b604080516001600160a01b038481166024830152604480830185905283518084039091018152606490920183526020820180516001600160e01b031663095ea7b360e01b1781529251825160009485949389169392918291908083835b60208310610d595780518252601f199092019160209182019101610d3a565b6001836020036101000a0380198251168184511680821785525050505050509050019150506000604051808303816000865af19150503d8060008114610dbb576040519150601f19603f3d011682016040523d82523d6000602084013e610dc0565b606091505b5091509150818015610dee575080511580610dee5750808060200190516020811015610deb57600080fd5b50515b610e24576040805162461bcd60e51b8152602060048201526002602482015261534160f01b604482015290519081900360640190fd5b5050505050565b604080516001600160a01b038481166024830152604480830185905283518084039091018152606490920183526020820180516001600160e01b031663a9059cbb60e01b1781529251825160009485949389169392918291908083835b60208310610ea75780518252601f199092019160209182019101610e88565b6001836020036101000a0380198251168184511680821785525050505050509050019150506000604051808303816000865af19150503d8060008114610f09576040519150601f19603f3d011682016040523d82523d6000602084013e610f0e565b606091505b5091509150818015610f3c575080511580610f3c5750808060200190516020811015610f3957600080fd5b50515b610e24576040805162461bcd60e51b815260206004820152600260248201526114d560f21b604482015290519081900360640190fd5b8051610f7d81611521565b919050565b8051600281900b8114610f7d57600080fd5b8051610f7d81611539565b805162ffffff81168114610f7d57600080fd5b600080600080600060808688031215610fc9578081fd5b8535610fd481611521565b94506020860135610fe481611521565b935060408601359250606086013567ffffffffffffffff80821115611007578283fd5b818801915088601f83011261101a578283fd5b813581811115611028578384fd5b896020828501011115611039578384fd5b9699959850939650602001949392505050565b60008060008060808587031215611061578384fd5b843561106c81611521565b9350602085013561107c81611521565b93969395505050506040820135916060013590565b6000806000606084860312156110a5578283fd5b83516110b081611539565b602085015160409095015190969495509392505050565b6000602082840312156110d8578081fd5b5035919050565b600080604083850312156110f1578182fd5b82359150602083013561110381611539565b809150509250929050565b60008060008060808587031215611123578384fd5b84519350602085015161113581611539565b6040860151606090960151949790965092505050565b6000806040838503121561115d578182fd5b505080516020909101519092909150565b600080600060608486031215611182578283fd5b505081359360208301359350604090920135919050565b6000806000806000806000806000806000806101808d8f0312156111bb578687fd5b8c516bffffffffffffffffffffffff811681146111d6578788fd5b9b506111e460208e01610f72565b9a506111f260408e01610f72565b995061120060608e01610f72565b985061120e60808e01610f9f565b975061121c60a08e01610f82565b965061122a60c08e01610f82565b955061123860e08e01610f94565b94506101008d015193506101208d015192506112576101408e01610f94565b91506112666101608e01610f94565b90509295989b509295989b509295989b565b6001600160a01b03169052565b60020b9052565b62ffffff169052565b6001600160a01b039384168152919092166020820152604081019190915260600190565b6001600160a01b0394851681526001600160801b039390931660208401529083166040830152909116606082015260800190565b6001600160e01b031991909116815260200190565b6001600160a01b0391909116815260200190565b6020808252600d908201526c2737ba103a34329037bbb732b960991b604082015260600190565b815181526020808301516001600160a01b0316908201526040808301516001600160801b0390811691830191909152606092830151169181019190915260800190565b600060a082019050825182526001600160801b03602084015116602083015260408301516040830152606083015160608301526080830151608083015292915050565b600060c082019050825182526020830151602083015260408301516040830152606083015160608301526080830151608083015260a083015160a083015292915050565b60006101608201905061141b828451611278565b602083015161142d6020840182611278565b506040830151611440604084018261128c565b5060608301516114536060840182611285565b5060808301516114666080840182611285565b5060a083015160a083015260c083015160c083015260e083015160e0830152610100808401518184015250610120808401516114a482850182611278565b505061014092830151919092015290565b6001600160801b039390931683526020830191909152604082015260600190565b62ffffff91909116815260200190565b90815260200190565b9384526001600160801b039290921660208401526040830152606082015260800190565b918252602082015260400190565b6001600160a01b038116811461153657600080fd5b50565b6001600160801b038116811461153657600080fdfea2646970667358221220d5beaa7ba538fdddbec1ebf2f6dfb15f6aa978cd0dfc845decf13e8bfb5fe49264736f6c63430007060033",
  "linkReferences": {},
  "deployedLinkReferences": {}
}