{
  "_format": "hh-sol-artifact-1",
  "contractName": "Campaign",
  "sourceName": "contracts/1_Campaign.sol",
  "abi": [
    {
      "inputs": [
        {
          "internalType": "uint256",
          "name": "_id",
          "type": "uint256"
        },
        {
          "internalType": "string",
          "name": "_name",
          "type": "string"
        },
        {
          "internalType": "uint256",
          "name": "_goal",
          "type": "uint256"
        },
        {
          "internalType": "string",
          "name": "_description",
          "type": "string"
        },
        {
          "internalType": "uint256",
          "name": "_endTimeStamp",
          "type": "uint256"
        },
        {
          "internalType": "address",
          "name": "_wantToken",
          "type": "address"
        },
        {
          "internalType": "string",
          "name": "_uri",
          "type": "string"
        },
        {
          "internalType": "address",
          "name": "_l2Address",
          "type": "address"
        },
        {
          "internalType": "address",
          "name": "_wantTokenL2",
          "type": "address"
        },
        {
          "internalType": "address payable",
          "name": "_beneficiary",
          "type": "address"
        }
      ],
      "stateMutability": "nonpayable",
      "type": "constructor"
    },
    {
      "anonymous": false,
      "inputs": [
        {
          "indexed": false,
          "internalType": "uint256",
          "name": "amount",
          "type": "uint256"
        },
        {
          "indexed": false,
          "internalType": "uint256",
          "name": "campaignId",
          "type": "uint256"
        },
        {
          "indexed": false,
          "internalType": "string",
          "name": "name",
          "type": "string"
        },
        {
          "indexed": false,
          "internalType": "string",
          "name": "mail",
          "type": "string"
        },
        {
          "indexed": false,
          "internalType": "address",
          "name": "donorToken",
          "type": "address"
        }
      ],
      "name": "Donated",
      "type": "event"
    },
    {
      "anonymous": false,
      "inputs": [
        {
          "indexed": false,
          "internalType": "uint256",
          "name": "totalFund",
          "type": "uint256"
        },
        {
          "indexed": false,
          "internalType": "uint256",
          "name": "goal",
          "type": "uint256"
        },
        {
          "indexed": false,
          "internalType": "uint256",
          "name": "campaignId",
          "type": "uint256"
        },
        {
          "indexed": false,
          "internalType": "string",
          "name": "name",
          "type": "string"
        },
        {
          "indexed": false,
          "internalType": "string[]",
          "name": "mails",
          "type": "string[]"
        }
      ],
      "name": "GoalReached",
      "type": "event"
    },
    {
      "inputs": [],
      "name": "L1StandardBridge",
      "outputs": [
        {
          "internalType": "address",
          "name": "",
          "type": "address"
        }
      ],
      "stateMutability": "view",
      "type": "function"
    },
    {
      "inputs": [],
      "name": "L2",
      "outputs": [
        {
          "internalType": "address",
          "name": "",
          "type": "address"
        }
      ],
      "stateMutability": "view",
      "type": "function"
    },
    {
      "inputs": [],
      "name": "URI",
      "outputs": [
        {
          "internalType": "string",
          "name": "",
          "type": "string"
        }
      ],
      "stateMutability": "view",
      "type": "function"
    },
    {
      "inputs": [],
      "name": "WETH",
      "outputs": [
        {
          "internalType": "address",
          "name": "",
          "type": "address"
        }
      ],
      "stateMutability": "view",
      "type": "function"
    },
    {
      "inputs": [
        {
          "internalType": "uint256",
          "name": "_endTimeStamp",
          "type": "uint256"
        }
      ],
      "name": "changeEndDate",
      "outputs": [],
      "stateMutability": "nonpayable",
      "type": "function"
    },
    {
      "inputs": [],
      "name": "currFund",
      "outputs": [
        {
          "internalType": "uint256",
          "name": "",
          "type": "uint256"
        }
      ],
      "stateMutability": "view",
      "type": "function"
    },
    {
      "inputs": [],
      "name": "description",
      "outputs": [
        {
          "internalType": "string",
          "name": "",
          "type": "string"
        }
      ],
      "stateMutability": "view",
      "type": "function"
    },
    {
      "inputs": [
        {
          "internalType": "string",
          "name": "_mail",
          "type": "string"
        },
        {
          "internalType": "address",
          "name": "_donorToken",
          "type": "address"
        },
        {
          "internalType": "uint256",
          "name": "_amountIn",
          "type": "uint256"
        }
      ],
      "name": "donate",
      "outputs": [
        {
          "internalType": "bool",
          "name": "sufficient",
          "type": "bool"
        }
      ],
      "stateMutability": "payable",
      "type": "function"
    },
    {
      "inputs": [
        {
          "internalType": "string",
          "name": "_mail",
          "type": "string"
        }
      ],
      "name": "donateETH",
      "outputs": [],
      "stateMutability": "payable",
      "type": "function"
    },
    {
      "inputs": [],
      "name": "endTimeStamp",
      "outputs": [
        {
          "internalType": "uint256",
          "name": "",
          "type": "uint256"
        }
      ],
      "stateMutability": "view",
      "type": "function"
    },
    {
      "inputs": [],
      "name": "expiredWithdraw",
      "outputs": [],
      "stateMutability": "nonpayable",
      "type": "function"
    },
    {
      "inputs": [],
      "name": "finished",
      "outputs": [
        {
          "internalType": "bool",
          "name": "",
          "type": "bool"
        }
      ],
      "stateMutability": "view",
      "type": "function"
    },
    {
      "inputs": [],
      "name": "goal",
      "outputs": [
        {
          "internalType": "uint256",
          "name": "",
          "type": "uint256"
        }
      ],
      "stateMutability": "view",
      "type": "function"
    },
    {
      "inputs": [],
      "name": "id",
      "outputs": [
        {
          "internalType": "uint256",
          "name": "",
          "type": "uint256"
        }
      ],
      "stateMutability": "view",
      "type": "function"
    },
    {
      "inputs": [],
      "name": "mailCount",
      "outputs": [
        {
          "internalType": "uint256",
          "name": "",
          "type": "uint256"
        }
      ],
      "stateMutability": "view",
      "type": "function"
    },
    {
      "inputs": [
        {
          "internalType": "uint256",
          "name": "",
          "type": "uint256"
        }
      ],
      "name": "mails",
      "outputs": [
        {
          "internalType": "string",
          "name": "",
          "type": "string"
        }
      ],
      "stateMutability": "view",
      "type": "function"
    },
    {
      "inputs": [],
      "name": "name",
      "outputs": [
        {
          "internalType": "string",
          "name": "",
          "type": "string"
        }
      ],
      "stateMutability": "view",
      "type": "function"
    },
    {
      "inputs": [],
      "name": "owner",
      "outputs": [
        {
          "internalType": "address payable",
          "name": "",
          "type": "address"
        }
      ],
      "stateMutability": "view",
      "type": "function"
    },
    {
      "inputs": [],
      "name": "poolFee",
      "outputs": [
        {
          "internalType": "uint24",
          "name": "",
          "type": "uint24"
        }
      ],
      "stateMutability": "view",
      "type": "function"
    },
    {
      "inputs": [],
      "name": "v3factory",
      "outputs": [
        {
          "internalType": "address",
          "name": "",
          "type": "address"
        }
      ],
      "stateMutability": "view",
      "type": "function"
    },
    {
      "inputs": [],
      "name": "v3router",
      "outputs": [
        {
          "internalType": "address",
          "name": "",
          "type": "address"
        }
      ],
      "stateMutability": "view",
      "type": "function"
    },
    {
      "inputs": [],
      "name": "wantToken",
      "outputs": [
        {
          "internalType": "address",
          "name": "",
          "type": "address"
        }
      ],
      "stateMutability": "view",
      "type": "function"
    },
    {
      "inputs": [],
      "name": "wantTokenL2",
      "outputs": [
        {
          "internalType": "address",
          "name": "",
          "type": "address"
        }
      ],
      "stateMutability": "view",
      "type": "function"
    }
  ],
  "bytecode": "0x60806040526004805460ff60a01b19169055600d80546001600160a01b0319908116731f98431c8ad98523631ae4a59f267346ea31f98417909155600e8054821673e592427a0aece92de3edee1f18e0157c05861564179055600f8054821673d0a1e359811322d97991e03f863a0c30c2cf029c179055601280549091167322f24361d548e5faafb36d1437839f080363982b179055348015620000a257600080fd5b506040516200283238038062002832833981016040819052620000c591620002ea565b60008a90558851620000df9060019060208c019062000186565b50600060025560038890558651620000ff9060059060208a019062000186565b50600480546001600160a01b038084166001600160a01b0319928316179092556009889055600880549288169290911691909117905583516200014a90600b90602087019062000186565b5050601180546001600160a01b039384166001600160a01b031991821617909155600c805492909316911617905550620003e295505050505050565b828054600181600116156101000203166002900490600052602060002090601f016020900481019282620001be576000855562000209565b82601f10620001d957805160ff191683800117855562000209565b8280016001018555821562000209579182015b8281111562000209578251825591602001919060010190620001ec565b50620002179291506200021b565b5090565b5b808211156200021757600081556001016200021c565b80516001600160a01b03811681146200024a57600080fd5b919050565b600082601f83011262000260578081fd5b81516001600160401b03808211156200027557fe5b6040516020601f8401601f19168201810183811183821017156200029557fe5b6040528382528584018101871015620002ac578485fd5b8492505b83831015620002cf5785830181015182840182015291820191620002b0565b83831115620002e057848185840101525b5095945050505050565b6000806000806000806000806000806101408b8d0312156200030a578586fd5b8a5160208c0151909a506001600160401b038082111562000329578788fd5b620003378e838f016200024f565b9a5060408d0151995060608d015191508082111562000354578788fd5b620003628e838f016200024f565b985060808d015197506200037960a08e0162000232565b965060c08d01519150808211156200038f578586fd5b506200039e8d828e016200024f565b945050620003af60e08c0162000232565b9250620003c06101008c0162000232565b9150620003d16101208c0162000232565b90509295989b9194979a5092959850565b61244080620003f26000396000f3fe6080604052600436106101405760003560e01c806381426ec2116100b6578063b3d320101161006f578063b3d3201014610308578063bb66834e1461031d578063bef4876b14610332578063d23e048014610347578063dec978281461035c578063dfca09221461037157610140565b806381426ec21461028c57806387a22b22146102a15780638da5cb5b146102b65780638ed16963146102cb578063ad5c4648146102de578063af640d0f146102f357610140565b80632fdef9c3116101085780632fdef9c3146101e0578063401938831461020057806345737b1e1461022257806351906bb0146102425780635af7319c146102575780637284e4161461027757610140565b806306fdde0314610145578063081752bb14610170578063089fe6aa146101925780631141d7de146101b45780631eaa1c8b146101c9575b600080fd5b34801561015157600080fd5b5061015a610386565b6040516101679190611fd7565b60405180910390f35b34801561017c57600080fd5b50610185610413565b6040516101679190611ed3565b34801561019e57600080fd5b506101a7610422565b60405161016791906122dd565b3480156101c057600080fd5b5061015a610428565b3480156101d557600080fd5b506101de610483565b005b3480156101ec57600080fd5b5061015a6101fb366004611dc0565b610638565b34801561020c57600080fd5b506102156106ae565b60405161016791906122ed565b34801561022e57600080fd5b506101de61023d366004611dc0565b6106b4565b34801561024e57600080fd5b506102156106b9565b61026a610265366004611d68565b6106bf565b6040516101679190611fcc565b34801561028357600080fd5b5061015a61108e565b34801561029857600080fd5b506101856110e9565b3480156102ad57600080fd5b506101856110f8565b3480156102c257600080fd5b50610185611107565b6101de6102d9366004611d2d565b611116565b3480156102ea57600080fd5b50610185611736565b3480156102ff57600080fd5b50610215611745565b34801561031457600080fd5b5061018561174b565b34801561032957600080fd5b5061021561175a565b34801561033e57600080fd5b5061026a611760565b34801561035357600080fd5b50610185611770565b34801561036857600080fd5b5061021561177f565b34801561037d57600080fd5b50610185611785565b60018054604080516020600284861615610100026000190190941693909304601f8101849004840282018401909252818152929183018282801561040b5780601f106103e05761010080835404028352916020019161040b565b820191906000526020600020905b8154815290600101906020018083116103ee57829003601f168201915b505050505081565b6011546001600160a01b031681565b610bb881565b600b805460408051602060026001851615610100026000190190941693909304601f8101849004840282018401909252818152929183018282801561040b5780601f106103e05761010080835404028352916020019161040b565b42600954106104ad5760405162461bcd60e51b81526004016104a4906121b9565b60405180910390fd5b6004546001600160a01b031633146104d75760405162461bcd60e51b81526004016104a4906120f9565b6008546001600160a01b03166105285760045460405147916001600160a01b03169082156108fc029083906000818181858888f19350505050158015610521573d6000803e3d6000fd5b5050610636565b6008546040516370a0823160e01b81526000916001600160a01b0316906370a0823190610559903090600401611ed3565b60206040518083038186803b15801561057157600080fd5b505afa158015610585573d6000803e3d6000fd5b505050506040513d601f19601f820116820180604052508101906105a99190611dd8565b6008546004805460405163a9059cbb60e01b81529394506001600160a01b039283169363a9059cbb936105e193921691869101611f0b565b602060405180830381600087803b1580156105fb57600080fd5b505af115801561060f573d6000803e3d6000fd5b505050506040513d601f19601f820116820180604052508101906106339190611d0d565b50505b565b6006818154811061064857600080fd5b600091825260209182902001805460408051601f600260001961010060018716150201909416939093049283018590048502810185019091528181529350909183018282801561040b5780601f106103e05761010080835404028352916020019161040b565b60035481565b600955565b60095481565b600081836001600160a01b03166370a08231336040518263ffffffff1660e01b81526004016106ee9190611ed3565b60206040518083038186803b15801561070657600080fd5b505afa15801561071a573d6000803e3d6000fd5b505050506040513d601f19601f8201168201806040525081019061073e9190611dd8565b101561075c5760405162461bcd60e51b81526004016104a490612019565b426009541161077d5760405162461bcd60e51b81526004016104a490612165565b6001600160a01b0383166107a35760405162461bcd60e51b81526004016104a490612216565b6008546001600160a01b03161560008115826107cc57506008546001600160a01b038681169116145b156107f2576107da84611794565b90506107e78686836117b7565b600192505050611087565b6008546001600160a01b031682156108125750600f546001600160a01b03165b600d54604051630b4c774160e11b81526000916001600160a01b031690631698ee8290610849908a908690610bb890600401611f75565b60206040518083038186803b15801561086157600080fd5b505afa158015610875573d6000803e3d6000fd5b505050506040513d601f19601f820116820180604052508101906108999190611cf1565b6001600160a01b031614156108c05760405162461bcd60e51b81526004016104a49061205c565b60408051600280825260608201835260009260208301908036833701905050905086816000815181106108ef57fe5b60200260200101906001600160a01b031690816001600160a01b031681525050818160018151811061091d57fe5b6001600160a01b0392831660209182029290920101526040516323b872dd60e01b81526000918291908a16906323b872dd9061096190339030908d90600401611ee7565b602060405180830381600087803b15801561097b57600080fd5b505af115801561098f573d6000803e3d6000fd5b505050506040513d601f19601f820116820180604052508101906109b39190611d0d565b506001600160a01b03891660009081526010602052604090205460ff161515600114610a8657600e5460405163095ea7b360e01b81526001600160a01b038b81169263095ea7b392610a0f929091169060001990600401611f0b565b602060405180830381600087803b158015610a2957600080fd5b505af1158015610a3d573d6000803e3d6000fd5b505050506040513d601f19601f82011682018060405250810190610a619190611d0d565b506001600160a01b0389166000908152601060205260409020805460ff191660011790555b60008615610c405760408051610100810182526001600160a01b03808d168252600f5481166020830152610bb8828401523060608301526103e84201608083015260a082018c9052600060c0830181905260e0830152600e54925163414bf38960e01b81529192169063414bf38990610b03908490600401612274565b602060405180830381600087803b158015610b1d57600080fd5b505af1158015610b31573d6000803e3d6000fd5b505050506040513d601f19601f82011682018060405250810190610b559190611dd8565b600f54604051632e1a7d4d60e01b81529193506001600160a01b031690632e1a7d4d90610b869085906004016122ed565b600060405180830381600087803b158015610ba057600080fd5b505af1158015610bb4573d6000803e3d6000fd5b50506011546001600160a01b0316159150610c3a905057601254601154604051639a2ac6d560e01b81526001600160a01b0392831692639a2ac6d5924792610c079290911690621e848090600401611f9d565b6000604051808303818588803b158015610c2057600080fd5b505af1158015610c34573d6000803e3d6000fd5b50505050505b50610eb9565b600060405180610100016040528086600081518110610c5b57fe5b60200260200101516001600160a01b0316815260200186600181518110610c7e57fe5b60200260200101516001600160a01b03168152602001610bb862ffffff168152602001306001600160a01b03168152602001426103e80181526020018b81526020016000815260200160006001600160a01b03168152509050600e60009054906101000a90046001600160a01b03166001600160a01b031663414bf389826040518263ffffffff1660e01b8152600401610d189190612274565b602060405180830381600087803b158015610d3257600080fd5b505af1158015610d46573d6000803e3d6000fd5b505050506040513d601f19601f82011682018060405250810190610d6a9190611dd8565b6011549092506001600160a01b031615610eb757601260009054906101000a90046001600160a01b03166001600160a01b031663838b2520600860009054906101000a90046001600160a01b0316600c60009054906101000a90046001600160a01b0316601160009054906101000a90046001600160a01b03168f6001600160a01b03166370a08231306040518263ffffffff1660e01b8152600401610e109190611ed3565b60206040518083038186803b158015610e2857600080fd5b505afa158015610e3c573d6000803e3d6000fd5b505050506040513d601f19601f82011682018060405250810190610e609190611dd8565b621e84806040518663ffffffff1660e01b8152600401610e84959493929190611f24565b600060405180830381600087803b158015610e9e57600080fd5b505af1158015610eb2573d6000803e3d6000fd5b505050505b505b610ec281611794565b955080861015610f545760085460405163a9059cbb60e01b81526001600160a01b039091169063a9059cbb90610f009033908a860390600401611f0b565b602060405180830381600087803b158015610f1a57600080fd5b505af1158015610f2e573d6000803e3d6000fd5b505050506040513d601f19601f82011682018060405250810190610f529190611d0d565b505b6002805487019055600680546001810182556000919091528b51610f9f917ff652222313e28459528d920b65115c16c04f3efc82aaedc97be59f3f377c0d3f019060208e0190611bdb565b506007805460010190556003546002541415611019577f314217ebdf17981d4a26c0519c8810c5b95359d28c649f331ae684df59190db260025460035460005460016006604051610ff4959493929190612342565b60405180910390a16004805460ff60a01b1916600160a01b179055611017611a73565b505b6000805160206123eb8339815191523460005460018e8e6040516110419594939291906122f6565b60405180910390a1336000908152600a602052604090205460ff1661107b57336000908152600a60205260409020805460ff191660011790555b60019750505050505050505b9392505050565b6005805460408051602060026001851615610100026000190190941693909304601f8101849004840282018401909252818152929183018282801561040b5780601f106103e05761010080835404028352916020019161040b565b6012546001600160a01b031681565b600d546001600160a01b031681565b6004546001600160a01b031681565b42600954116111375760405162461bcd60e51b81526004016104a490612165565b600034116111575760405162461bcd60e51b81526004016104a4906120aa565b6008546000906001600160a01b03166112ab5761117334611794565b60028054820190559050348110156111b65760405133903483900380156108fc02916000818181858888f193505050501580156111b4573d6000803e3d6000fd5b505b336000908152600a602052604090205460ff166111e857336000908152600a60205260409020805460ff191660011790555b600054600f546040516000805160206123eb8339815191529261121d92349260019188916001600160a01b03909116906122f6565b60405180910390a16011546001600160a01b0316156112a557601254601154604051639a2ac6d560e01b81526001600160a01b0392831692639a2ac6d59247926112729290911690621e848090600401611f9d565b6000604051808303818588803b15801561128b57600080fd5b505af115801561129f573d6000803e3d6000fd5b50505050505b50611733565b600d54600f54600854604051630b4c774160e11b81526000936001600160a01b0390811693631698ee82936112ec93918316921690610bb890600401611f75565b60206040518083038186803b15801561130457600080fd5b505afa158015611318573d6000803e3d6000fd5b505050506040513d601f19601f8201168201806040525081019061133c9190611cf1565b6001600160a01b031614156113635760405162461bcd60e51b81526004016104a490611fea565b6040805160028082526060820183526000926020830190803683375050600f5482519293506001600160a01b03169183915060009061139e57fe5b6001600160a01b0392831660209182029290920101526008548251911690829060019081106113c957fe5b60200260200101906001600160a01b031690816001600160a01b0316815250506000806040518061010001604052808460008151811061140557fe5b60200260200101516001600160a01b031681526020018460018151811061142857fe5b60200260200101516001600160a01b03168152602001610bb862ffffff168152602001306001600160a01b03168152602001426103e80181526020013481526020016000815260200160006001600160a01b031681525090506000600e60009054906101000a90046001600160a01b03166001600160a01b031663414bf38934846040518363ffffffff1660e01b81526004016114c59190612274565b6020604051808303818588803b1580156114de57600080fd5b505af11580156114f2573d6000803e3d6000fd5b50505050506040513d601f19601f820116820180604052508101906115179190611dd8565b905061152281611794565b336000908152600a602052604090205490955060ff1661155757336000908152600a60205260409020805460ff191660011790555b808510156115e75760085460405163a9059cbb60e01b81526001600160a01b039091169063a9059cbb9061159390339089860390600401611f0b565b602060405180830381600087803b1580156115ad57600080fd5b505af11580156115c1573d6000803e3d6000fd5b505050506040513d601f19601f820116820180604052508101906115e59190611d0d565b505b6002805486019055600054600f546040516000805160206123eb833981519152926116249234926001918c916001600160a01b03909116906122f6565b60405180910390a16011546001600160a01b03161561172d57601254600854600c546011546040516370a0823160e01b81526001600160a01b039485169463838b252094811693811692169083906370a0823190611686903090600401611ed3565b60206040518083038186803b15801561169e57600080fd5b505afa1580156116b2573d6000803e3d6000fd5b505050506040513d601f19601f820116820180604052508101906116d69190611dd8565b621e84806040518663ffffffff1660e01b81526004016116fa959493929190611f24565b600060405180830381600087803b15801561171457600080fd5b505af1158015611728573d6000803e3d6000fd5b505050505b50505050505b50565b600f546001600160a01b031681565b60005481565b600c546001600160a01b031681565b60025481565b600454600160a01b900460ff1681565b6008546001600160a01b031681565b60075481565b600e546001600160a01b031681565b60025460035460009190038083116117af57829150506117b2565b90505b919050565b6040516323b872dd60e01b81526001600160a01b038316906323b872dd906117e790339030908690600401611ee7565b602060405180830381600087803b15801561180157600080fd5b505af1158015611815573d6000803e3d6000fd5b505050506040513d601f19601f820116820180604052508101906118399190611d0d565b506002805482019055600680546001810182556000919091528351611885917ff652222313e28459528d920b65115c16c04f3efc82aaedc97be59f3f377c0d3f01906020860190611bdb565b5060078054600101905560035460025414156118ff577f314217ebdf17981d4a26c0519c8810c5b95359d28c649f331ae684df59190db2600254600354600054600160066040516118da959493929190612342565b60405180910390a16004805460ff60a01b1916600160a01b1790556118fd611a73565b505b6000805160206123eb83398151915234600054600186866040516119279594939291906122f6565b60405180910390a1336000908152600a602052604090205460ff1661196157336000908152600a60205260409020805460ff191660011790555b6011546001600160a01b031615611a6e576040516370a0823160e01b81526000906001600160a01b038416906370a08231906119a1903090600401611ed3565b60206040518083038186803b1580156119b957600080fd5b505afa1580156119cd573d6000803e3d6000fd5b505050506040513d601f19601f820116820180604052508101906119f19190611dd8565b601254600854600c5460115460405163041c592960e51b81529495506001600160a01b039384169463838b252094611a3a9481169381169216908790621e848090600401611f24565b600060405180830381600087803b158015611a5457600080fd5b505af1158015611a68573d6000803e3d6000fd5b50505050505b505050565b6008546000906001600160a01b0316611ac75760045460405147916001600160a01b03169082156108fc029083906000818181858888f19350505050158015611ac0573d6000803e3d6000fd5b5050611bd5565b6008546040516370a0823160e01b81526000916001600160a01b0316906370a0823190611af8903090600401611ed3565b60206040518083038186803b158015611b1057600080fd5b505afa158015611b24573d6000803e3d6000fd5b505050506040513d601f19601f82011682018060405250810190611b489190611dd8565b6008546004805460405163a9059cbb60e01b81529394506001600160a01b039283169363a9059cbb93611b8093921691869101611f0b565b602060405180830381600087803b158015611b9a57600080fd5b505af1158015611bae573d6000803e3d6000fd5b505050506040513d601f19601f82011682018060405250810190611bd29190611d0d565b50505b50600190565b828054600181600116156101000203166002900490600052602060002090601f016020900481019282611c115760008555611c57565b82601f10611c2a57805160ff1916838001178555611c57565b82800160010185558215611c57579182015b82811115611c57578251825591602001919060010190611c3c565b50611c63929150611c67565b5090565b5b80821115611c635760008155600101611c68565b600082601f830112611c8c578081fd5b813567ffffffffffffffff80821115611ca157fe5b604051601f8301601f191681016020018281118282101715611cbf57fe5b604052828152848301602001861015611cd6578384fd5b82602086016020830137918201602001929092529392505050565b600060208284031215611d02578081fd5b8151611087816123d5565b600060208284031215611d1e578081fd5b81518015158114611087578182fd5b600060208284031215611d3e578081fd5b813567ffffffffffffffff811115611d54578182fd5b611d6084828501611c7c565b949350505050565b600080600060608486031215611d7c578182fd5b833567ffffffffffffffff811115611d92578283fd5b611d9e86828701611c7c565b9350506020840135611daf816123d5565b929592945050506040919091013590565b600060208284031215611dd1578081fd5b5035919050565b600060208284031215611de9578081fd5b5051919050565b60008151808452815b81811015611e1557602081850181015186830182015201611df9565b81811115611e265782602083870101525b50601f01601f19169290920160200192915050565b60008154600180821660008114611e595760018114611e7757611eb5565b60028304607f16865260ff1983166020870152604086019350611eb5565b60028304808752611e87866123c9565b60005b82811015611eab5781546020828b0101528482019150602081019050611e8a565b8801602001955050505b50505092915050565b6002815261060f60f31b602082015260400190565b6001600160a01b0391909116815260200190565b6001600160a01b039384168152919092166020820152604081019190915260600190565b6001600160a01b03929092168252602082015260400190565b6001600160a01b0386811682528581166020830152841660408201526060810183905263ffffffff8216608082015260c060a08201819052600090611f6a908301611ebe565b979650505050505050565b6001600160a01b03938416815291909216602082015262ffffff909116604082015260600190565b6001600160a01b038316815263ffffffff82166020820152606060408201819052600090611d60908301611ebe565b901515815260200190565b6000602082526110876020830184611df0565b6020808252601590820152746e6f2064697265637420706f6f6c2065786973747360581b604082015260600190565b60208082526023908201527f43616d706169676e3a3a646f6e6174653a20496e737566696369656e742066756040820152626e647360e81b606082015260800190565b6020808252602e908201527f537570706f72744368696c6472656e3a3a646f6e6174653a204e6f206469726560408201526d637420706f6f6c2065786973747360901b606082015260800190565b6020808252602f908201527f537570706f72744368696c6472656e3a3a646f6e6174654554483a20596f752060408201526e36bab9ba1039b2b7321032ba3432b960891b606082015260800190565b60208082526046908201527f63616d706169676e3a3a6578706972656457697468647261773a204f6e6c792060408201527f7468652062656e65666963696172792063616e207769746864726177207468656060820152652066756e647360d01b608082015260a00190565b60208082526034908201527f43616d706169676e3a3a646f6e6174653a20546869732063616d706169676e206040820152731a185cc8185b1c9958591e48199a5b9a5cda195960621b606082015260800190565b60208082526038908201527f43616d706169676e3a3a6578706972656457697468647261773a20546869732060408201527f63616d706169676e206973207374696c6c206163746976650000000000000000606082015260800190565b602080825260409082018190527f537570706f72744368696c6472656e3a3a646f6e6174653a20646f6e6f72546f908201527f6b656e203d3d2030782c2075736520646f6e61746545544820696e7374656164606082015260800190565b81516001600160a01b03908116825260208084015182169083015260408084015162ffffff16908301526060808401518216908301526080808401519083015260a0838101519083015260c0808401519083015260e09283015116918101919091526101000190565b62ffffff91909116815260200190565b90815260200190565b600086825285602083015260a0604083015261231560a0830186611e3b565b82810360608401526123278186611df0565b91505060018060a01b03831660808301529695505050505050565b60008682526020868184015285604084015260a0606084015261236860a0840186611e3b565b8381036080850152808554808352838301915083848202840101878652848620865b838110156123b757858303601f190185526123a58383611e3b565b9487019492506001918201910161238a565b50909c9b505050505050505050505050565b60009081526020902090565b6001600160a01b038116811461173357600080fdfe1c9e0c4c164a4cd3223a9c561d40e2223428d825bae108fdae97049add3dcfffa264697066735822122055db455437274f6b6da64c9afa72bdaa5da5d58a2174924b3e75a7090f69615664736f6c63430007060033",
  "linkReferences": {},
  "deployedLinkReferences": {}
}