{
  "_format": "hh-sol-artifact-1",
  "contractName": "Campaign",
  "sourceName": "contracts/1_Campaign.sol",
  "abi": [
    {
      "inputs": [
        {
          "internalType": "uint256",
          "name": "_id",
          "type": "uint256"
        },
        {
          "internalType": "string",
          "name": "_name",
          "type": "string"
        },
        {
          "internalType": "uint256",
          "name": "_goal",
          "type": "uint256"
        },
        {
          "internalType": "string",
          "name": "_description",
          "type": "string"
        },
        {
          "internalType": "uint256",
          "name": "_endTimeStamp",
          "type": "uint256"
        },
        {
          "internalType": "address",
          "name": "_wantToken",
          "type": "address"
        },
        {
          "internalType": "string",
          "name": "_uri",
          "type": "string"
        },
        {
          "internalType": "address",
          "name": "_l2Address",
          "type": "address"
        },
        {
          "internalType": "address",
          "name": "_wantTokenL2",
          "type": "address"
        }
      ],
      "stateMutability": "nonpayable",
      "type": "constructor"
    },
    {
      "anonymous": false,
      "inputs": [
        {
          "indexed": false,
          "internalType": "uint256",
          "name": "amount",
          "type": "uint256"
        },
        {
          "indexed": false,
          "internalType": "uint256",
          "name": "campaignId",
          "type": "uint256"
        },
        {
          "indexed": false,
          "internalType": "string",
          "name": "name",
          "type": "string"
        },
        {
          "indexed": false,
          "internalType": "string",
          "name": "mail",
          "type": "string"
        },
        {
          "indexed": false,
          "internalType": "address",
          "name": "donorToken",
          "type": "address"
        }
      ],
      "name": "Donated",
      "type": "event"
    },
    {
      "anonymous": false,
      "inputs": [
        {
          "indexed": false,
          "internalType": "uint256",
          "name": "totalFund",
          "type": "uint256"
        },
        {
          "indexed": false,
          "internalType": "uint256",
          "name": "goal",
          "type": "uint256"
        },
        {
          "indexed": false,
          "internalType": "uint256",
          "name": "campaignId",
          "type": "uint256"
        },
        {
          "indexed": false,
          "internalType": "string",
          "name": "name",
          "type": "string"
        },
        {
          "indexed": false,
          "internalType": "string[]",
          "name": "mails",
          "type": "string[]"
        }
      ],
      "name": "GoalReached",
      "type": "event"
    },
    {
      "inputs": [],
      "name": "L1StandardBridge",
      "outputs": [
        {
          "internalType": "address",
          "name": "",
          "type": "address"
        }
      ],
      "stateMutability": "view",
      "type": "function"
    },
    {
      "inputs": [],
      "name": "L2",
      "outputs": [
        {
          "internalType": "address",
          "name": "",
          "type": "address"
        }
      ],
      "stateMutability": "view",
      "type": "function"
    },
    {
      "inputs": [],
      "name": "URI",
      "outputs": [
        {
          "internalType": "string",
          "name": "",
          "type": "string"
        }
      ],
      "stateMutability": "view",
      "type": "function"
    },
    {
      "inputs": [],
      "name": "WETH",
      "outputs": [
        {
          "internalType": "address",
          "name": "",
          "type": "address"
        }
      ],
      "stateMutability": "view",
      "type": "function"
    },
    {
      "inputs": [
        {
          "internalType": "uint256",
          "name": "_endTimeStamp",
          "type": "uint256"
        }
      ],
      "name": "changeEndDate",
      "outputs": [],
      "stateMutability": "nonpayable",
      "type": "function"
    },
    {
      "inputs": [],
      "name": "currFund",
      "outputs": [
        {
          "internalType": "uint256",
          "name": "",
          "type": "uint256"
        }
      ],
      "stateMutability": "view",
      "type": "function"
    },
    {
      "inputs": [],
      "name": "description",
      "outputs": [
        {
          "internalType": "string",
          "name": "",
          "type": "string"
        }
      ],
      "stateMutability": "view",
      "type": "function"
    },
    {
      "inputs": [
        {
          "internalType": "string",
          "name": "_mail",
          "type": "string"
        },
        {
          "internalType": "address",
          "name": "_donorToken",
          "type": "address"
        },
        {
          "internalType": "uint256",
          "name": "_amountIn",
          "type": "uint256"
        }
      ],
      "name": "donate",
      "outputs": [
        {
          "internalType": "bool",
          "name": "sufficient",
          "type": "bool"
        }
      ],
      "stateMutability": "payable",
      "type": "function"
    },
    {
      "inputs": [
        {
          "internalType": "string",
          "name": "_mail",
          "type": "string"
        }
      ],
      "name": "donateETH",
      "outputs": [],
      "stateMutability": "payable",
      "type": "function"
    },
    {
      "inputs": [],
      "name": "endTimeStamp",
      "outputs": [
        {
          "internalType": "uint256",
          "name": "",
          "type": "uint256"
        }
      ],
      "stateMutability": "view",
      "type": "function"
    },
    {
      "inputs": [],
      "name": "expiredWithdraw",
      "outputs": [],
      "stateMutability": "nonpayable",
      "type": "function"
    },
    {
      "inputs": [],
      "name": "finished",
      "outputs": [
        {
          "internalType": "bool",
          "name": "",
          "type": "bool"
        }
      ],
      "stateMutability": "view",
      "type": "function"
    },
    {
      "inputs": [],
      "name": "goal",
      "outputs": [
        {
          "internalType": "uint256",
          "name": "",
          "type": "uint256"
        }
      ],
      "stateMutability": "view",
      "type": "function"
    },
    {
      "inputs": [],
      "name": "id",
      "outputs": [
        {
          "internalType": "uint256",
          "name": "",
          "type": "uint256"
        }
      ],
      "stateMutability": "view",
      "type": "function"
    },
    {
      "inputs": [],
      "name": "mailCount",
      "outputs": [
        {
          "internalType": "uint256",
          "name": "",
          "type": "uint256"
        }
      ],
      "stateMutability": "view",
      "type": "function"
    },
    {
      "inputs": [
        {
          "internalType": "uint256",
          "name": "",
          "type": "uint256"
        }
      ],
      "name": "mails",
      "outputs": [
        {
          "internalType": "string",
          "name": "",
          "type": "string"
        }
      ],
      "stateMutability": "view",
      "type": "function"
    },
    {
      "inputs": [],
      "name": "name",
      "outputs": [
        {
          "internalType": "string",
          "name": "",
          "type": "string"
        }
      ],
      "stateMutability": "view",
      "type": "function"
    },
    {
      "inputs": [],
      "name": "owner",
      "outputs": [
        {
          "internalType": "address payable",
          "name": "",
          "type": "address"
        }
      ],
      "stateMutability": "view",
      "type": "function"
    },
    {
      "inputs": [],
      "name": "poolFee",
      "outputs": [
        {
          "internalType": "uint24",
          "name": "",
          "type": "uint24"
        }
      ],
      "stateMutability": "view",
      "type": "function"
    },
    {
      "inputs": [],
      "name": "v3factory",
      "outputs": [
        {
          "internalType": "address",
          "name": "",
          "type": "address"
        }
      ],
      "stateMutability": "view",
      "type": "function"
    },
    {
      "inputs": [],
      "name": "v3router",
      "outputs": [
        {
          "internalType": "address",
          "name": "",
          "type": "address"
        }
      ],
      "stateMutability": "view",
      "type": "function"
    },
    {
      "inputs": [],
      "name": "wantToken",
      "outputs": [
        {
          "internalType": "address",
          "name": "",
          "type": "address"
        }
      ],
      "stateMutability": "view",
      "type": "function"
    }
  ],
  "bytecode": "0x60806040526000600460146101000a81548160ff021916908315150217905550731f98431c8ad98523631ae4a59f267346ea31f984600d60006101000a81548173ffffffffffffffffffffffffffffffffffffffff021916908373ffffffffffffffffffffffffffffffffffffffff16021790555073e592427a0aece92de3edee1f18e0157c05861564600e60006101000a81548173ffffffffffffffffffffffffffffffffffffffff021916908373ffffffffffffffffffffffffffffffffffffffff16021790555073d0a1e359811322d97991e03f863a0c30c2cf029c600f60006101000a81548173ffffffffffffffffffffffffffffffffffffffff021916908373ffffffffffffffffffffffffffffffffffffffff1602179055507322f24361d548e5faafb36d1437839f080363982b601260006101000a81548173ffffffffffffffffffffffffffffffffffffffff021916908373ffffffffffffffffffffffffffffffffffffffff1602179055503480156200018057600080fd5b5060405162004409380380620044098339818101604052810190620001a6919062000477565b886000819055508760019080519060200190620001c592919062000321565b506000600281905550866003819055508560059080519060200190620001ed92919062000321565b5033600460006101000a81548173ffffffffffffffffffffffffffffffffffffffff021916908373ffffffffffffffffffffffffffffffffffffffff1602179055508460098190555083600860006101000a81548173ffffffffffffffffffffffffffffffffffffffff021916908373ffffffffffffffffffffffffffffffffffffffff16021790555082600b90805190602001906200028f92919062000321565b5081601160006101000a81548173ffffffffffffffffffffffffffffffffffffffff021916908373ffffffffffffffffffffffffffffffffffffffff16021790555080600c60006101000a81548173ffffffffffffffffffffffffffffffffffffffff021916908373ffffffffffffffffffffffffffffffffffffffff160217905550505050505050505050620006ac565b828054600181600116156101000203166002900490600052602060002090601f016020900481019282620003595760008555620003a5565b82601f106200037457805160ff1916838001178555620003a5565b82800160010185558215620003a5579182015b82811115620003a457825182559160200191906001019062000387565b5b509050620003b49190620003b8565b5090565b5b80821115620003d3576000816000905550600101620003b9565b5090565b6000620003ee620003e884620005cf565b6200059b565b9050828152602081018484840111156200040757600080fd5b6200041484828562000640565b509392505050565b6000815190506200042d8162000678565b92915050565b600082601f8301126200044557600080fd5b815162000457848260208601620003d7565b91505092915050565b600081519050620004718162000692565b92915050565b60008060008060008060008060006101208a8c0312156200049757600080fd5b6000620004a78c828d0162000460565b99505060208a015167ffffffffffffffff811115620004c557600080fd5b620004d38c828d0162000433565b9850506040620004e68c828d0162000460565b97505060608a015167ffffffffffffffff8111156200050457600080fd5b620005128c828d0162000433565b9650506080620005258c828d0162000460565b95505060a0620005388c828d016200041c565b94505060c08a015167ffffffffffffffff8111156200055657600080fd5b620005648c828d0162000433565b93505060e0620005778c828d016200041c565b9250506101006200058b8c828d016200041c565b9150509295985092959850929598565b6000604051905081810181811067ffffffffffffffff82111715620005c557620005c462000676565b5b8060405250919050565b600067ffffffffffffffff821115620005ed57620005ec62000676565b5b601f19601f8301169050602081019050919050565b60006200060f8262000616565b9050919050565b600073ffffffffffffffffffffffffffffffffffffffff82169050919050565b6000819050919050565b60005b838110156200066057808201518184015260208101905062000643565b8381111562000670576000848401525b50505050565bfe5b620006838162000602565b81146200068f57600080fd5b50565b6200069d8162000636565b8114620006a957600080fd5b50565b613d4d80620006bc6000396000f3fe6080604052600436106101355760003560e01c806381426ec2116100ab578063af640d0f1161006f578063af640d0f146103dc578063bb66834e14610407578063bef4876b14610432578063d23e04801461045d578063dec9782814610488578063dfca0922146104b357610135565b806381426ec21461031457806387a22b221461033f5780638da5cb5b1461036a5780638ed1696314610395578063ad5c4648146103b157610135565b80632fdef9c3116100fd5780632fdef9c3146101fd578063401938831461023a57806345737b1e1461026557806351906bb01461028e5780635af7319c146102b95780637284e416146102e957610135565b806306fdde031461013a578063081752bb14610165578063089fe6aa146101905780631141d7de146101bb5780631eaa1c8b146101e6575b600080fd5b34801561014657600080fd5b5061014f6104de565b60405161015c9190613894565b60405180910390f35b34801561017157600080fd5b5061017a61057c565b60405161018791906136c6565b60405180910390f35b34801561019c57600080fd5b506101a56105a2565b6040516101b291906139d2565b60405180910390f35b3480156101c757600080fd5b506101d06105a8565b6040516101dd9190613894565b60405180910390f35b3480156101f257600080fd5b506101fb610646565b005b34801561020957600080fd5b50610224600480360381019061021f9190612fde565b61096a565b6040516102319190613894565b60405180910390f35b34801561024657600080fd5b5061024f610a26565b60405161025c91906139ed565b60405180910390f35b34801561027157600080fd5b5061028c60048036038101906102879190612fde565b610a2c565b005b34801561029a57600080fd5b506102a3610a36565b6040516102b091906139ed565b60405180910390f35b6102d360048036038101906102ce9190612f77565b610a3c565b6040516102e09190613879565b60405180910390f35b3480156102f557600080fd5b506102fe6119a4565b60405161030b9190613894565b60405180910390f35b34801561032057600080fd5b50610329611a42565b60405161033691906136c6565b60405180910390f35b34801561034b57600080fd5b50610354611a68565b60405161036191906136c6565b60405180910390f35b34801561037657600080fd5b5061037f611a8e565b60405161038c91906136fc565b60405180910390f35b6103af60048036038101906103aa9190612f36565b611ab4565b005b3480156103bd57600080fd5b506103c6612613565b6040516103d391906136c6565b60405180910390f35b3480156103e857600080fd5b506103f1612639565b6040516103fe91906139ed565b60405180910390f35b34801561041357600080fd5b5061041c61263f565b60405161042991906139ed565b60405180910390f35b34801561043e57600080fd5b50610447612645565b6040516104549190613879565b60405180910390f35b34801561046957600080fd5b50610472612658565b60405161047f91906136c6565b60405180910390f35b34801561049457600080fd5b5061049d61267e565b6040516104aa91906139ed565b60405180910390f35b3480156104bf57600080fd5b506104c8612684565b6040516104d591906136c6565b60405180910390f35b60018054600181600116156101000203166002900480601f0160208091040260200160405190810160405280929190818152602001828054600181600116156101000203166002900480156105745780601f1061054957610100808354040283529160200191610574565b820191906000526020600020905b81548152906001019060200180831161055757829003601f168201915b505050505081565b601160009054906101000a900473ffffffffffffffffffffffffffffffffffffffff1681565b610bb881565b600b8054600181600116156101000203166002900480601f01602080910402602001604051908101604052809291908181526020018280546001816001161561010002031660029004801561063e5780601f106106135761010080835404028352916020019161063e565b820191906000526020600020905b81548152906001019060200180831161062157829003601f168201915b505050505081565b426009541061068a576040517f08c379a000000000000000000000000000000000000000000000000000000000815260040161068190613976565b60405180910390fd5b600460009054906101000a900473ffffffffffffffffffffffffffffffffffffffff1673ffffffffffffffffffffffffffffffffffffffff163373ffffffffffffffffffffffffffffffffffffffff161461071a576040517f08c379a000000000000000000000000000000000000000000000000000000000815260040161071190613936565b60405180910390fd5b600073ffffffffffffffffffffffffffffffffffffffff16600860009054906101000a900473ffffffffffffffffffffffffffffffffffffffff1673ffffffffffffffffffffffffffffffffffffffff1614156107e5576000479050600460009054906101000a900473ffffffffffffffffffffffffffffffffffffffff1673ffffffffffffffffffffffffffffffffffffffff166108fc829081150290604051600060405180830381858888f193505050501580156107de573d6000803e3d6000fd5b5050610968565b6000600860009054906101000a900473ffffffffffffffffffffffffffffffffffffffff1673ffffffffffffffffffffffffffffffffffffffff166370a08231306040518263ffffffff1660e01b815260040161084291906136c6565b60206040518083038186803b15801561085a57600080fd5b505afa15801561086e573d6000803e3d6000fd5b505050506040513d601f19601f820116820180604052508101906108929190613007565b9050600860009054906101000a900473ffffffffffffffffffffffffffffffffffffffff1673ffffffffffffffffffffffffffffffffffffffff1663a9059cbb600460009054906101000a900473ffffffffffffffffffffffffffffffffffffffff16836040518363ffffffff1660e01b815260040161091392919061374e565b602060405180830381600087803b15801561092d57600080fd5b505af1158015610941573d6000803e3d6000fd5b505050506040513d601f19601f820116820180604052508101906109659190612f0d565b50505b565b6006818154811061097a57600080fd5b906000526020600020016000915090508054600181600116156101000203166002900480601f016020809104026020016040519081016040528092919081815260200182805460018160011615610100020316600290048015610a1e5780601f106109f357610100808354040283529160200191610a1e565b820191906000526020600020905b815481529060010190602001808311610a0157829003601f168201915b505050505081565b60035481565b8060098190555050565b60095481565b6000818373ffffffffffffffffffffffffffffffffffffffff166370a08231336040518263ffffffff1660e01b8152600401610a7891906136e1565b60206040518083038186803b158015610a9057600080fd5b505afa158015610aa4573d6000803e3d6000fd5b505050506040513d601f19601f82011682018060405250810190610ac89190613007565b1015610b09576040517f08c379a0000000000000000000000000000000000000000000000000000000008152600401610b00906138d6565b60405180910390fd5b4260095411610b4d576040517f08c379a0000000000000000000000000000000000000000000000000000000008152600401610b4490613956565b60405180910390fd5b600073ffffffffffffffffffffffffffffffffffffffff168373ffffffffffffffffffffffffffffffffffffffff161415610bbd576040517f08c379a0000000000000000000000000000000000000000000000000000000008152600401610bb490613996565b60405180910390fd5b60008073ffffffffffffffffffffffffffffffffffffffff16600860009054906101000a900473ffffffffffffffffffffffffffffffffffffffff1673ffffffffffffffffffffffffffffffffffffffff16149050600081158015610c6f57508473ffffffffffffffffffffffffffffffffffffffff16600860009054906101000a900473ffffffffffffffffffffffffffffffffffffffff1673ffffffffffffffffffffffffffffffffffffffff16145b15610c9557610c7d846126aa565b9050610c8a8686836126d0565b60019250505061199d565b6000600860009054906101000a900473ffffffffffffffffffffffffffffffffffffffff1690508215610ce857600f60009054906101000a900473ffffffffffffffffffffffffffffffffffffffff1690505b600073ffffffffffffffffffffffffffffffffffffffff16600d60009054906101000a900473ffffffffffffffffffffffffffffffffffffffff1673ffffffffffffffffffffffffffffffffffffffff16631698ee8288600860009054906101000a900473ffffffffffffffffffffffffffffffffffffffff16610bb86040518463ffffffff1660e01b8152600401610d83939291906137dd565b60206040518083038186803b158015610d9b57600080fd5b505afa158015610daf573d6000803e3d6000fd5b505050506040513d601f19601f82011682018060405250810190610dd39190612ee4565b73ffffffffffffffffffffffffffffffffffffffff161415610e2a576040517f08c379a0000000000000000000000000000000000000000000000000000000008152600401610e21906138f6565b60405180910390fd5b6000600267ffffffffffffffff81118015610e4457600080fd5b50604051908082528060200260200182016040528015610e735781602001602082028036833780820191505090505b5090508681600081518110610e8457fe5b602002602001019073ffffffffffffffffffffffffffffffffffffffff16908173ffffffffffffffffffffffffffffffffffffffff16815250508181600181518110610ecc57fe5b602002602001019073ffffffffffffffffffffffffffffffffffffffff16908173ffffffffffffffffffffffffffffffffffffffff16815250506000808873ffffffffffffffffffffffffffffffffffffffff166323b872dd33308b6040518463ffffffff1660e01b8152600401610f4693929190613717565b602060405180830381600087803b158015610f6057600080fd5b505af1158015610f74573d6000803e3d6000fd5b505050506040513d601f19601f82011682018060405250810190610f989190612f0d565b5060011515601060008b73ffffffffffffffffffffffffffffffffffffffff1673ffffffffffffffffffffffffffffffffffffffff16815260200190815260200160002060009054906101000a900460ff1615151461111a578873ffffffffffffffffffffffffffffffffffffffff1663095ea7b3600e60009054906101000a900473ffffffffffffffffffffffffffffffffffffffff167fffffffffffffffffffffffffffffffffffffffffffffffffffffffffffffffff6040518363ffffffff1660e01b815260040161106e929190613850565b602060405180830381600087803b15801561108857600080fd5b505af115801561109c573d6000803e3d6000fd5b505050506040513d601f19601f820116820180604052508101906110c09190612f0d565b506001601060008b73ffffffffffffffffffffffffffffffffffffffff1673ffffffffffffffffffffffffffffffffffffffff16815260200190815260200160002060006101000a81548160ff0219169083151502179055505b600086156113a85760006040518061010001604052808c73ffffffffffffffffffffffffffffffffffffffff168152602001600f60009054906101000a900473ffffffffffffffffffffffffffffffffffffffff1673ffffffffffffffffffffffffffffffffffffffff168152602001610bb862ffffff1681526020013073ffffffffffffffffffffffffffffffffffffffff1681526020016103e8420181526020018b815260200160008152602001600073ffffffffffffffffffffffffffffffffffffffff168152509050600e60009054906101000a900473ffffffffffffffffffffffffffffffffffffffff1673ffffffffffffffffffffffffffffffffffffffff1663414bf389826040518263ffffffff1660e01b815260040161124291906139b6565b602060405180830381600087803b15801561125c57600080fd5b505af1158015611270573d6000803e3d6000fd5b505050506040513d601f19601f820116820180604052508101906112949190613007565b9150600073ffffffffffffffffffffffffffffffffffffffff16601160009054906101000a900473ffffffffffffffffffffffffffffffffffffffff1673ffffffffffffffffffffffffffffffffffffffff16146113a257601260009054906101000a900473ffffffffffffffffffffffffffffffffffffffff1673ffffffffffffffffffffffffffffffffffffffff16639a2ac6d547601160009054906101000a900473ffffffffffffffffffffffffffffffffffffffff16621e84806040518463ffffffff1660e01b815260040161136f929190613814565b6000604051808303818588803b15801561138857600080fd5b505af115801561139c573d6000803e3d6000fd5b50505050505b50611701565b6000604051806101000160405280866000815181106113c357fe5b602002602001015173ffffffffffffffffffffffffffffffffffffffff168152602001866001815181106113f357fe5b602002602001015173ffffffffffffffffffffffffffffffffffffffff168152602001610bb862ffffff1681526020013073ffffffffffffffffffffffffffffffffffffffff1681526020016103e8420181526020018b815260200160008152602001600073ffffffffffffffffffffffffffffffffffffffff168152509050600e60009054906101000a900473ffffffffffffffffffffffffffffffffffffffff1673ffffffffffffffffffffffffffffffffffffffff1663414bf389826040518263ffffffff1660e01b81526004016114ce91906139b6565b602060405180830381600087803b1580156114e857600080fd5b505af11580156114fc573d6000803e3d6000fd5b505050506040513d601f19601f820116820180604052508101906115209190613007565b9150600073ffffffffffffffffffffffffffffffffffffffff16601160009054906101000a900473ffffffffffffffffffffffffffffffffffffffff1673ffffffffffffffffffffffffffffffffffffffff16146116ff57601260009054906101000a900473ffffffffffffffffffffffffffffffffffffffff1673ffffffffffffffffffffffffffffffffffffffff1663838b2520600860009054906101000a900473ffffffffffffffffffffffffffffffffffffffff16600c60009054906101000a900473ffffffffffffffffffffffffffffffffffffffff16601160009054906101000a900473ffffffffffffffffffffffffffffffffffffffff168f73ffffffffffffffffffffffffffffffffffffffff166370a08231306040518263ffffffff1660e01b815260040161165891906136c6565b60206040518083038186803b15801561167057600080fd5b505afa158015611684573d6000803e3d6000fd5b505050506040513d601f19601f820116820180604052508101906116a89190613007565b621e84806040518663ffffffff1660e01b81526004016116cc959493929190613777565b600060405180830381600087803b1580156116e657600080fd5b505af11580156116fa573d6000803e3d6000fd5b505050505b505b61170a816126aa565b9550808610156117c757600860009054906101000a900473ffffffffffffffffffffffffffffffffffffffff1673ffffffffffffffffffffffffffffffffffffffff1663a9059cbb338884036040518363ffffffff1660e01b815260040161177392919061374e565b602060405180830381600087803b15801561178d57600080fd5b505af11580156117a1573d6000803e3d6000fd5b505050506040513d601f19601f820116820180604052508101906117c59190612f0d565b505b8560026000828254019250508190555060068b908060018154018082558091505060019003906000526020600020016000909190919091509080519060200190611812929190612d68565b50600760008154809291906001019190505550600354600254141561189d577f314217ebdf17981d4a26c0519c8810c5b95359d28c649f331ae684df59190db260025460035460005460016006604051611870959493929190613a69565b60405180910390a16001600460146101000a81548160ff02191690831515021790555061189b612b12565b505b7f1c9e0c4c164a4cd3223a9c561d40e2223428d825bae108fdae97049add3dcfff3460005460018e8e6040516118d7959493929190613a08565b60405180910390a160001515600a60003373ffffffffffffffffffffffffffffffffffffffff1673ffffffffffffffffffffffffffffffffffffffff16815260200190815260200160002060009054906101000a900460ff1615151415611991576001600a60003373ffffffffffffffffffffffffffffffffffffffff1673ffffffffffffffffffffffffffffffffffffffff16815260200190815260200160002060006101000a81548160ff0219169083151502179055505b60019750505050505050505b9392505050565b60058054600181600116156101000203166002900480601f016020809104026020016040519081016040528092919081815260200182805460018160011615610100020316600290048015611a3a5780601f10611a0f57610100808354040283529160200191611a3a565b820191906000526020600020905b815481529060010190602001808311611a1d57829003601f168201915b505050505081565b601260009054906101000a900473ffffffffffffffffffffffffffffffffffffffff1681565b600d60009054906101000a900473ffffffffffffffffffffffffffffffffffffffff1681565b600460009054906101000a900473ffffffffffffffffffffffffffffffffffffffff1681565b4260095411611af8576040517f08c379a0000000000000000000000000000000000000000000000000000000008152600401611aef90613956565b60405180910390fd5b60003411611b3b576040517f08c379a0000000000000000000000000000000000000000000000000000000008152600401611b3290613916565b60405180910390fd5b60008073ffffffffffffffffffffffffffffffffffffffff16600860009054906101000a900473ffffffffffffffffffffffffffffffffffffffff1673ffffffffffffffffffffffffffffffffffffffff161415611e2857611b9c346126aa565b90508060026000828254019250508190555080341115611c00573373ffffffffffffffffffffffffffffffffffffffff166108fc8234039081150290604051600060405180830381858888f19350505050158015611bfe573d6000803e3d6000fd5b505b60001515600a60003373ffffffffffffffffffffffffffffffffffffffff1673ffffffffffffffffffffffffffffffffffffffff16815260200190815260200160002060009054906101000a900460ff1615151415611cb2576001600a60003373ffffffffffffffffffffffffffffffffffffffff1673ffffffffffffffffffffffffffffffffffffffff16815260200190815260200160002060006101000a81548160ff0219169083151502179055505b7f1c9e0c4c164a4cd3223a9c561d40e2223428d825bae108fdae97049add3dcfff34600054600185600f60009054906101000a900473ffffffffffffffffffffffffffffffffffffffff16604051611d0e959493929190613a08565b60405180910390a1600073ffffffffffffffffffffffffffffffffffffffff16601160009054906101000a900473ffffffffffffffffffffffffffffffffffffffff1673ffffffffffffffffffffffffffffffffffffffff1614611e2257601260009054906101000a900473ffffffffffffffffffffffffffffffffffffffff1673ffffffffffffffffffffffffffffffffffffffff16639a2ac6d547601160009054906101000a900473ffffffffffffffffffffffffffffffffffffffff16621e84806040518463ffffffff1660e01b8152600401611def929190613814565b6000604051808303818588803b158015611e0857600080fd5b505af1158015611e1c573d6000803e3d6000fd5b50505050505b50612610565b600073ffffffffffffffffffffffffffffffffffffffff16600d60009054906101000a900473ffffffffffffffffffffffffffffffffffffffff1673ffffffffffffffffffffffffffffffffffffffff16631698ee82600f60009054906101000a900473ffffffffffffffffffffffffffffffffffffffff16600860009054906101000a900473ffffffffffffffffffffffffffffffffffffffff16610bb86040518463ffffffff1660e01b8152600401611ee5939291906137dd565b60206040518083038186803b158015611efd57600080fd5b505afa158015611f11573d6000803e3d6000fd5b505050506040513d601f19601f82011682018060405250810190611f359190612ee4565b73ffffffffffffffffffffffffffffffffffffffff161415611f8c576040517f08c379a0000000000000000000000000000000000000000000000000000000008152600401611f83906138b6565b60405180910390fd5b6000600267ffffffffffffffff81118015611fa657600080fd5b50604051908082528060200260200182016040528015611fd55781602001602082028036833780820191505090505b509050600f60009054906101000a900473ffffffffffffffffffffffffffffffffffffffff168160008151811061200857fe5b602002602001019073ffffffffffffffffffffffffffffffffffffffff16908173ffffffffffffffffffffffffffffffffffffffff1681525050600860009054906101000a900473ffffffffffffffffffffffffffffffffffffffff168160018151811061207257fe5b602002602001019073ffffffffffffffffffffffffffffffffffffffff16908173ffffffffffffffffffffffffffffffffffffffff1681525050600080604051806101000160405280846000815181106120c857fe5b602002602001015173ffffffffffffffffffffffffffffffffffffffff168152602001846001815181106120f857fe5b602002602001015173ffffffffffffffffffffffffffffffffffffffff168152602001610bb862ffffff1681526020013073ffffffffffffffffffffffffffffffffffffffff1681526020016103e84201815260200134815260200160008152602001600073ffffffffffffffffffffffffffffffffffffffff1681525090506000600e60009054906101000a900473ffffffffffffffffffffffffffffffffffffffff1673ffffffffffffffffffffffffffffffffffffffff1663414bf38934846040518363ffffffff1660e01b81526004016121d691906139b6565b6020604051808303818588803b1580156121ef57600080fd5b505af1158015612203573d6000803e3d6000fd5b50505050506040513d601f19601f820116820180604052508101906122289190613007565b905060001515600a60003373ffffffffffffffffffffffffffffffffffffffff1673ffffffffffffffffffffffffffffffffffffffff16815260200190815260200160002060009054906101000a900460ff16151514156122dc576001600a60003373ffffffffffffffffffffffffffffffffffffffff1673ffffffffffffffffffffffffffffffffffffffff16815260200190815260200160002060006101000a81548160ff0219169083151502179055505b8085101561239757600860009054906101000a900473ffffffffffffffffffffffffffffffffffffffff1673ffffffffffffffffffffffffffffffffffffffff1663a9059cbb338784036040518363ffffffff1660e01b815260040161234392919061374e565b602060405180830381600087803b15801561235d57600080fd5b505af1158015612371573d6000803e3d6000fd5b505050506040513d601f19601f820116820180604052508101906123959190612f0d565b505b846002600082825401925050819055507f1c9e0c4c164a4cd3223a9c561d40e2223428d825bae108fdae97049add3dcfff34600054600189600f60009054906101000a900473ffffffffffffffffffffffffffffffffffffffff16604051612403959493929190613a08565b60405180910390a1600073ffffffffffffffffffffffffffffffffffffffff16601160009054906101000a900473ffffffffffffffffffffffffffffffffffffffff1673ffffffffffffffffffffffffffffffffffffffff161461260a57601260009054906101000a900473ffffffffffffffffffffffffffffffffffffffff1673ffffffffffffffffffffffffffffffffffffffff1663838b2520600860009054906101000a900473ffffffffffffffffffffffffffffffffffffffff16600c60009054906101000a900473ffffffffffffffffffffffffffffffffffffffff16601160009054906101000a900473ffffffffffffffffffffffffffffffffffffffff16600860009054906101000a900473ffffffffffffffffffffffffffffffffffffffff1673ffffffffffffffffffffffffffffffffffffffff166370a08231306040518263ffffffff1660e01b815260040161256391906136c6565b60206040518083038186803b15801561257b57600080fd5b505afa15801561258f573d6000803e3d6000fd5b505050506040513d601f19601f820116820180604052508101906125b39190613007565b621e84806040518663ffffffff1660e01b81526004016125d7959493929190613777565b600060405180830381600087803b1580156125f157600080fd5b505af1158015612605573d6000803e3d6000fd5b505050505b50505050505b50565b600f60009054906101000a900473ffffffffffffffffffffffffffffffffffffffff1681565b60005481565b60025481565b600460149054906101000a900460ff1681565b600860009054906101000a900473ffffffffffffffffffffffffffffffffffffffff1681565b60075481565b600e60009054906101000a900473ffffffffffffffffffffffffffffffffffffffff1681565b6000806002546003540390508083116126c657829150506126cb565b809150505b919050565b8173ffffffffffffffffffffffffffffffffffffffff166323b872dd3330846040518463ffffffff1660e01b815260040161270d93929190613717565b602060405180830381600087803b15801561272757600080fd5b505af115801561273b573d6000803e3d6000fd5b505050506040513d601f19601f8201168201806040525081019061275f9190612f0d565b50806002600082825401925050819055506006839080600181540180825580915050600190039060005260206000200160009091909190915090805190602001906127ab929190612d68565b506007600081548092919060010191905055506003546002541415612836577f314217ebdf17981d4a26c0519c8810c5b95359d28c649f331ae684df59190db260025460035460005460016006604051612809959493929190613a69565b60405180910390a16001600460146101000a81548160ff021916908315150217905550612834612b12565b505b7f1c9e0c4c164a4cd3223a9c561d40e2223428d825bae108fdae97049add3dcfff3460005460018686604051612870959493929190613a08565b60405180910390a160001515600a60003373ffffffffffffffffffffffffffffffffffffffff1673ffffffffffffffffffffffffffffffffffffffff16815260200190815260200160002060009054906101000a900460ff161515141561292a576001600a60003373ffffffffffffffffffffffffffffffffffffffff1673ffffffffffffffffffffffffffffffffffffffff16815260200190815260200160002060006101000a81548160ff0219169083151502179055505b600073ffffffffffffffffffffffffffffffffffffffff16601160009054906101000a900473ffffffffffffffffffffffffffffffffffffffff1673ffffffffffffffffffffffffffffffffffffffff1614612b0d5760008273ffffffffffffffffffffffffffffffffffffffff166370a08231306040518263ffffffff1660e01b81526004016129bb91906136c6565b60206040518083038186803b1580156129d357600080fd5b505afa1580156129e7573d6000803e3d6000fd5b505050506040513d601f19601f82011682018060405250810190612a0b9190613007565b9050601260009054906101000a900473ffffffffffffffffffffffffffffffffffffffff1673ffffffffffffffffffffffffffffffffffffffff1663838b2520600860009054906101000a900473ffffffffffffffffffffffffffffffffffffffff16600c60009054906101000a900473ffffffffffffffffffffffffffffffffffffffff16601160009054906101000a900473ffffffffffffffffffffffffffffffffffffffff1685621e84806040518663ffffffff1660e01b8152600401612ad9959493929190613777565b600060405180830381600087803b158015612af357600080fd5b505af1158015612b07573d6000803e3d6000fd5b50505050505b505050565b60008073ffffffffffffffffffffffffffffffffffffffff16600860009054906101000a900473ffffffffffffffffffffffffffffffffffffffff1673ffffffffffffffffffffffffffffffffffffffff161415612bde576000479050600460009054906101000a900473ffffffffffffffffffffffffffffffffffffffff1673ffffffffffffffffffffffffffffffffffffffff166108fc829081150290604051600060405180830381858888f19350505050158015612bd7573d6000803e3d6000fd5b5050612d61565b6000600860009054906101000a900473ffffffffffffffffffffffffffffffffffffffff1673ffffffffffffffffffffffffffffffffffffffff166370a08231306040518263ffffffff1660e01b8152600401612c3b91906136c6565b60206040518083038186803b158015612c5357600080fd5b505afa158015612c67573d6000803e3d6000fd5b505050506040513d601f19601f82011682018060405250810190612c8b9190613007565b9050600860009054906101000a900473ffffffffffffffffffffffffffffffffffffffff1673ffffffffffffffffffffffffffffffffffffffff1663a9059cbb600460009054906101000a900473ffffffffffffffffffffffffffffffffffffffff16836040518363ffffffff1660e01b8152600401612d0c92919061374e565b602060405180830381600087803b158015612d2657600080fd5b505af1158015612d3a573d6000803e3d6000fd5b505050506040513d601f19601f82011682018060405250810190612d5e9190612f0d565b50505b6001905090565b828054600181600116156101000203166002900490600052602060002090601f016020900481019282612d9e5760008555612de5565b82601f10612db757805160ff1916838001178555612de5565b82800160010185558215612de5579182015b82811115612de4578251825591602001919060010190612dc9565b5b509050612df29190612df6565b5090565b5b80821115612e0f576000816000905550600101612df7565b5090565b6000612e26612e2184613afb565b613aca565b905082815260208101848484011115612e3e57600080fd5b612e49848285613c7d565b509392505050565b600081359050612e6081613cd2565b92915050565b600081519050612e7581613cd2565b92915050565b600081519050612e8a81613ce9565b92915050565b600082601f830112612ea157600080fd5b8135612eb1848260208601612e13565b91505092915050565b600081359050612ec981613d00565b92915050565b600081519050612ede81613d00565b92915050565b600060208284031215612ef657600080fd5b6000612f0484828501612e66565b91505092915050565b600060208284031215612f1f57600080fd5b6000612f2d84828501612e7b565b91505092915050565b600060208284031215612f4857600080fd5b600082013567ffffffffffffffff811115612f6257600080fd5b612f6e84828501612e90565b91505092915050565b600080600060608486031215612f8c57600080fd5b600084013567ffffffffffffffff811115612fa657600080fd5b612fb286828701612e90565b9350506020612fc386828701612e51565b9250506040612fd486828701612eba565b9150509250925092565b600060208284031215612ff057600080fd5b6000612ffe84828501612eba565b91505092915050565b60006020828403121561301957600080fd5b600061302784828501612ecf565b91505092915050565b600061303c838361314b565b905092915050565b61304d81613c35565b82525050565b61305c81613bce565b82525050565b61306b81613bbc565b82525050565b61307a81613bbc565b82525050565b600061308b82613b55565b6130958185613b78565b9350836020820285016130a785613b2b565b8060005b858110156130e2578484038952816130c38582613030565b94506130ce83613b6b565b925060208a019950506001810190506130ab565b50829750879550505050505092915050565b6130fd81613be0565b82525050565b61310c81613c47565b82525050565b600061311d82613b60565b6131278185613bab565b9350613137818560208601613c8c565b61314081613cc1565b840191505092915050565b600081546001811660008114613168576001811461318e576131d2565b607f60028304166131798187613b9a565b955060ff1983168652602086019350506131d2565b6002820461319c8187613b9a565b95506131a785613b40565b60005b828110156131c9578154818901526001820191506020810190506131aa565b80880195505050505b505092915050565b6000815460018116600081146131f7576001811461321d57613261565b607f60028304166132088187613bab565b955060ff198316865260208601935050613261565b6002820461322b8187613bab565b955061323685613b40565b60005b8281101561325857815481890152600182019150602081019050613239565b80880195505050505b505092915050565b6000613276601583613bab565b91507f6e6f2064697265637420706f6f6c2065786973747300000000000000000000006000830152602082019050919050565b60006132b6600283613b89565b91507f30780000000000000000000000000000000000000000000000000000000000006000830152602082019050919050565b60006132f6602383613bab565b91507f43616d706169676e3a3a646f6e6174653a20496e737566696369656e7420667560008301527f6e647300000000000000000000000000000000000000000000000000000000006020830152604082019050919050565b600061335c602e83613bab565b91507f537570706f72744368696c6472656e3a3a646f6e6174653a204e6f206469726560008301527f637420706f6f6c206578697374730000000000000000000000000000000000006020830152604082019050919050565b60006133c2602f83613bab565b91507f537570706f72744368696c6472656e3a3a646f6e6174654554483a20596f752060008301527f6d7573742073656e6420657468657200000000000000000000000000000000006020830152604082019050919050565b6000613428604683613bab565b91507f63616d706169676e3a3a6578706972656457697468647261773a204f6e6c792060008301527f7468652062656e65666963696172792063616e2077697468647261772074686560208301527f2066756e647300000000000000000000000000000000000000000000000000006040830152606082019050919050565b60006134b4603483613bab565b91507f43616d706169676e3a3a646f6e6174653a20546869732063616d706169676e2060008301527f68617320616c72656164792066696e69736865640000000000000000000000006020830152604082019050919050565b600061351a603883613bab565b91507f43616d706169676e3a3a6578706972656457697468647261773a20546869732060008301527f63616d706169676e206973207374696c6c2061637469766500000000000000006020830152604082019050919050565b6000613580604083613bab565b91507f537570706f72744368696c6472656e3a3a646f6e6174653a20646f6e6f72546f60008301527f6b656e203d3d2030782c2075736520646f6e61746545544820696e73746561646020830152604082019050919050565b610100820160008201516135f06000850182613062565b5060208201516136036020850182613062565b506040820151613616604085018261368a565b5060608201516136296060850182613062565b50608082015161363c60808501826136a8565b5060a082015161364f60a08501826136a8565b5060c082015161366260c08501826136a8565b5060e082015161367560e085018261367b565b50505050565b61368481613bec565b82525050565b61369381613c0c565b82525050565b6136a281613c0c565b82525050565b6136b181613c1b565b82525050565b6136c081613c1b565b82525050565b60006020820190506136db6000830184613071565b92915050565b60006020820190506136f66000830184613044565b92915050565b60006020820190506137116000830184613053565b92915050565b600060608201905061372c6000830186613044565b6137396020830185613071565b61374660408301846136b7565b949350505050565b60006040820190506137636000830185613044565b61377060208301846136b7565b9392505050565b600060c08201905061378c6000830188613071565b6137996020830187613071565b6137a66040830186613071565b6137b360608301856136b7565b6137c06080830184613103565b81810360a08301526137d1816132a9565b90509695505050505050565b60006060820190506137f26000830186613071565b6137ff6020830185613071565b61380c6040830184613699565b949350505050565b60006060820190506138296000830185613071565b6138366020830184613103565b8181036040830152613847816132a9565b90509392505050565b60006040820190506138656000830185613071565b61387260208301846136b7565b9392505050565b600060208201905061388e60008301846130f4565b92915050565b600060208201905081810360008301526138ae8184613112565b905092915050565b600060208201905081810360008301526138cf81613269565b9050919050565b600060208201905081810360008301526138ef816132e9565b9050919050565b6000602082019050818103600083015261390f8161334f565b9050919050565b6000602082019050818103600083015261392f816133b5565b9050919050565b6000602082019050818103600083015261394f8161341b565b9050919050565b6000602082019050818103600083015261396f816134a7565b9050919050565b6000602082019050818103600083015261398f8161350d565b9050919050565b600060208201905081810360008301526139af81613573565b9050919050565b6000610100820190506139cc60008301846135d9565b92915050565b60006020820190506139e76000830184613699565b92915050565b6000602082019050613a0260008301846136b7565b92915050565b600060a082019050613a1d60008301886136b7565b613a2a60208301876136b7565b8181036040830152613a3c81866131da565b90508181036060830152613a508185613112565b9050613a5f6080830184613071565b9695505050505050565b600060a082019050613a7e60008301886136b7565b613a8b60208301876136b7565b613a9860408301866136b7565b8181036060830152613aaa81856131da565b90508181036080830152613abe8184613080565b90509695505050505050565b6000604051905081810181811067ffffffffffffffff82111715613af157613af0613cbf565b5b8060405250919050565b600067ffffffffffffffff821115613b1657613b15613cbf565b5b601f19601f8301169050602081019050919050565b60008190508160005260206000209050919050565b60008190508160005260206000209050919050565b600081549050919050565b600081519050919050565b6000600182019050919050565b600082825260208201905092915050565b600082825260208201905092915050565b600082825260208201905092915050565b600082825260208201905092915050565b6000613bc782613bec565b9050919050565b6000613bd982613bec565b9050919050565b60008115159050919050565b600073ffffffffffffffffffffffffffffffffffffffff82169050919050565b600062ffffff82169050919050565b6000819050919050565b600063ffffffff82169050919050565b6000613c4082613c59565b9050919050565b6000613c5282613c25565b9050919050565b6000613c6482613c6b565b9050919050565b6000613c7682613bec565b9050919050565b82818337600083830152505050565b60005b83811015613caa578082015181840152602081019050613c8f565b83811115613cb9576000848401525b50505050565bfe5b6000601f19601f8301169050919050565b613cdb81613bbc565b8114613ce657600080fd5b50565b613cf281613be0565b8114613cfd57600080fd5b50565b613d0981613c1b565b8114613d1457600080fd5b5056fea264697066735822122040af76589e43fef3f53ef60e9e138cab59d13781a8e08190670f0af6bcad982564736f6c63430007060033",
  "linkReferences": {},
  "deployedLinkReferences": {}
}