{
  "contractName": "Organisation",
  "abi": [
    {
      "inputs": [],
      "stateMutability": "nonpayable",
      "type": "constructor"
    },
    {
      "inputs": [],
      "name": "campaignCounter",
      "outputs": [
        {
          "internalType": "uint256",
          "name": "",
          "type": "uint256"
        }
      ],
      "stateMutability": "view",
      "type": "function",
      "constant": true
    },
    {
      "inputs": [
        {
          "internalType": "uint256",
          "name": "",
          "type": "uint256"
        }
      ],
      "name": "campaigns",
      "outputs": [
        {
          "internalType": "contract Campaign",
          "name": "",
          "type": "address"
        }
      ],
      "stateMutability": "view",
      "type": "function",
      "constant": true
    },
    {
      "inputs": [
        {
          "internalType": "address",
          "name": "",
          "type": "address"
        }
      ],
      "name": "members",
      "outputs": [
        {
          "internalType": "uint256",
          "name": "",
          "type": "uint256"
        }
      ],
      "stateMutability": "view",
      "type": "function",
      "constant": true
    },
    {
      "inputs": [],
      "name": "owner",
      "outputs": [
        {
          "internalType": "address",
          "name": "",
          "type": "address"
        }
      ],
      "stateMutability": "view",
      "type": "function",
      "constant": true
    },
    {
      "inputs": [
        {
          "internalType": "string",
          "name": "_name",
          "type": "string"
        },
        {
          "internalType": "uint256",
          "name": "_goal",
          "type": "uint256"
        },
        {
          "internalType": "string",
          "name": "_description",
          "type": "string"
        },
        {
          "internalType": "uint256",
          "name": "_endTimestamp",
          "type": "uint256"
        },
        {
          "internalType": "address",
          "name": "_wantToken",
          "type": "address"
        },
        {
          "internalType": "string",
          "name": "_uri",
          "type": "string"
        },
        {
          "internalType": "address",
          "name": "_l2Address",
          "type": "address"
        },
        {
          "internalType": "address",
          "name": "_wantTokenL2",
          "type": "address"
        }
      ],
      "name": "addCampaign",
      "outputs": [],
      "stateMutability": "nonpayable",
      "type": "function"
    },
    {
      "inputs": [
        {
          "internalType": "address",
          "name": "_member",
          "type": "address"
        }
      ],
      "name": "addMember",
      "outputs": [],
      "stateMutability": "nonpayable",
      "type": "function"
    }
  ],
  "bytecode": "0x608060405234801561001057600080fd5b5033600160006101000a81548173ffffffffffffffffffffffffffffffffffffffff021916908373ffffffffffffffffffffffffffffffffffffffff160217905550600160026000600160009054906101000a900473ffffffffffffffffffffffffffffffffffffffff1673ffffffffffffffffffffffffffffffffffffffff1673ffffffffffffffffffffffffffffffffffffffff1681526020019081526020016000208190555061554d806100c86000396000f3fe60806040523480156200001157600080fd5b50600436106200006a5760003560e01c806308ae4b0c146200006f578063141961bc14620000a5578063613a4a1d14620000db5780638da5cb5b14620000fb578063ca6d56dc146200011d578063fca604d7146200013d575b600080fd5b6200008d600480360381019062000087919062000416565b6200015f565b6040516200009c9190620006b4565b60405180910390f35b620000c36004803603810190620000bd919062000550565b62000177565b604051620000d2919062000675565b60405180910390f35b620000f96004803603810190620000f3919062000442565b620001aa565b005b62000105620002f4565b60405162000114919062000658565b60405180910390f35b6200013b600480360381019062000135919062000416565b6200031a565b005b6200014762000362565b604051620001569190620006b4565b60405180910390f35b60026020528060005260406000206000915090505481565b60036020528060005260406000206000915054906101000a900473ffffffffffffffffffffffffffffffffffffffff1681565b6001600260003373ffffffffffffffffffffffffffffffffffffffff1673ffffffffffffffffffffffffffffffffffffffff1681526020019081526020016000205414620001f757600080fd5b4285116200023c576040517f08c379a0000000000000000000000000000000000000000000000000000000008152600401620002339062000692565b60405180910390fd5b60008081548092919060010191905055506000548888888888888888604051620002669062000368565b6200027a99989796959493929190620006d1565b604051809103906000f08015801562000297573d6000803e3d6000fd5b50600360008054815260200190815260200160002060006101000a81548173ffffffffffffffffffffffffffffffffffffffff021916908373ffffffffffffffffffffffffffffffffffffffff1602179055505050505050505050565b600160009054906101000a900473ffffffffffffffffffffffffffffffffffffffff1681565b6001600260008373ffffffffffffffffffffffffffffffffffffffff1673ffffffffffffffffffffffffffffffffffffffff1681526020019081526020016000208190555050565b60005481565b614c1d80620008fb83390190565b60006200038d6200038784620007b9565b62000785565b905082815260208101848484011115620003a657600080fd5b620003b38482856200086e565b509392505050565b600081359050620003cc81620008c6565b92915050565b600082601f830112620003e457600080fd5b8135620003f684826020860162000376565b91505092915050565b6000813590506200041081620008e0565b92915050565b6000602082840312156200042957600080fd5b60006200043984828501620003bb565b91505092915050565b600080600080600080600080610100898b0312156200046057600080fd5b600089013567ffffffffffffffff8111156200047b57600080fd5b620004898b828c01620003d2565b98505060206200049c8b828c01620003ff565b975050604089013567ffffffffffffffff811115620004ba57600080fd5b620004c88b828c01620003d2565b9650506060620004db8b828c01620003ff565b9550506080620004ee8b828c01620003bb565b94505060a089013567ffffffffffffffff8111156200050c57600080fd5b6200051a8b828c01620003d2565b93505060c06200052d8b828c01620003bb565b92505060e0620005408b828c01620003bb565b9150509295985092959890939650565b6000602082840312156200056357600080fd5b60006200057384828501620003ff565b91505092915050565b620005878162000808565b82525050565b620005988162000846565b82525050565b6000620005ab82620007ec565b620005b78185620007f7565b9350620005c98185602086016200087d565b620005d481620008b5565b840191505092915050565b6000620005ee603a83620007f7565b91507f4f7267616e69736174696f6e3a3a61646443616d706169676e3a2043616d706160008301527f69676e206d75737420656e6420696e20746865206675747572650000000000006020830152604082019050919050565b62000652816200083c565b82525050565b60006020820190506200066f60008301846200057c565b92915050565b60006020820190506200068c60008301846200058d565b92915050565b60006020820190508181036000830152620006ad81620005df565b9050919050565b6000602082019050620006cb600083018462000647565b92915050565b600061012082019050620006e9600083018c62000647565b8181036020830152620006fd818b6200059e565b90506200070e604083018a62000647565b81810360608301526200072281896200059e565b905062000733608083018862000647565b6200074260a08301876200057c565b81810360c08301526200075681866200059e565b90506200076760e08301856200057c565b620007776101008301846200057c565b9a9950505050505050505050565b6000604051905081810181811067ffffffffffffffff82111715620007af57620007ae620008b3565b5b8060405250919050565b600067ffffffffffffffff821115620007d757620007d6620008b3565b5b601f19601f8301169050602081019050919050565b600081519050919050565b600082825260208201905092915050565b600062000815826200081c565b9050919050565b600073ffffffffffffffffffffffffffffffffffffffff82169050919050565b6000819050919050565b600062000853826200085a565b9050919050565b600062000867826200081c565b9050919050565b82818337600083830152505050565b60005b838110156200089d57808201518184015260208101905062000880565b83811115620008ad576000848401525b50505050565bfe5b6000601f19601f8301169050919050565b620008d18162000808565b8114620008dd57600080fd5b50565b620008eb816200083c565b8114620008f757600080fd5b5056fe60806040526000600460146101000a81548160ff021916908315150217905550731f98431c8ad98523631ae4a59f267346ea31f984600d60006101000a81548173ffffffffffffffffffffffffffffffffffffffff021916908373ffffffffffffffffffffffffffffffffffffffff16021790555073e592427a0aece92de3edee1f18e0157c05861564600e60006101000a81548173ffffffffffffffffffffffffffffffffffffffff021916908373ffffffffffffffffffffffffffffffffffffffff16021790555073d0a1e359811322d97991e03f863a0c30c2cf029c600f60006101000a81548173ffffffffffffffffffffffffffffffffffffffff021916908373ffffffffffffffffffffffffffffffffffffffff1602179055507322f24361d548e5faafb36d1437839f080363982b601260006101000a81548173ffffffffffffffffffffffffffffffffffffffff021916908373ffffffffffffffffffffffffffffffffffffffff1602179055503480156200018057600080fd5b5060405162004c1d38038062004c1d8339818101604052810190620001a6919062000477565b886000819055508760019080519060200190620001c592919062000321565b506000600281905550866003819055508560059080519060200190620001ed92919062000321565b5033600460006101000a81548173ffffffffffffffffffffffffffffffffffffffff021916908373ffffffffffffffffffffffffffffffffffffffff1602179055508460098190555083600860006101000a81548173ffffffffffffffffffffffffffffffffffffffff021916908373ffffffffffffffffffffffffffffffffffffffff16021790555082600b90805190602001906200028f92919062000321565b5081601160006101000a81548173ffffffffffffffffffffffffffffffffffffffff021916908373ffffffffffffffffffffffffffffffffffffffff16021790555080600c60006101000a81548173ffffffffffffffffffffffffffffffffffffffff021916908373ffffffffffffffffffffffffffffffffffffffff160217905550505050505050505050620006ac565b828054600181600116156101000203166002900490600052602060002090601f016020900481019282620003595760008555620003a5565b82601f106200037457805160ff1916838001178555620003a5565b82800160010185558215620003a5579182015b82811115620003a457825182559160200191906001019062000387565b5b509050620003b49190620003b8565b5090565b5b80821115620003d3576000816000905550600101620003b9565b5090565b6000620003ee620003e884620005cf565b6200059b565b9050828152602081018484840111156200040757600080fd5b6200041484828562000640565b509392505050565b6000815190506200042d8162000678565b92915050565b600082601f8301126200044557600080fd5b815162000457848260208601620003d7565b91505092915050565b600081519050620004718162000692565b92915050565b60008060008060008060008060006101208a8c0312156200049757600080fd5b6000620004a78c828d0162000460565b99505060208a015167ffffffffffffffff811115620004c557600080fd5b620004d38c828d0162000433565b9850506040620004e68c828d0162000460565b97505060608a015167ffffffffffffffff8111156200050457600080fd5b620005128c828d0162000433565b9650506080620005258c828d0162000460565b95505060a0620005388c828d016200041c565b94505060c08a015167ffffffffffffffff8111156200055657600080fd5b620005648c828d0162000433565b93505060e0620005778c828d016200041c565b9250506101006200058b8c828d016200041c565b9150509295985092959850929598565b6000604051905081810181811067ffffffffffffffff82111715620005c557620005c462000676565b5b8060405250919050565b600067ffffffffffffffff821115620005ed57620005ec62000676565b5b601f19601f8301169050602081019050919050565b60006200060f8262000616565b9050919050565b600073ffffffffffffffffffffffffffffffffffffffff82169050919050565b6000819050919050565b60005b838110156200066057808201518184015260208101905062000643565b8381111562000670576000848401525b50505050565bfe5b620006838162000602565b81146200068f57600080fd5b50565b6200069d8162000636565b8114620006a957600080fd5b50565b61456180620006bc6000396000f3fe60806040526004361061012a5760003560e01c80637284e416116100ab578063ad5c46481161006f578063ad5c4648146103a6578063af640d0f146103d1578063bb66834e146103fc578063bef4876b14610427578063dec9782814610452578063dfca09221461047d5761012a565b80637284e416146102de57806381426ec21461030957806387a22b22146103345780638da5cb5b1461035f5780638ed169631461038a5761012a565b80632fdef9c3116100f25780632fdef9c3146101f2578063401938831461022f57806345737b1e1461025a57806351906bb0146102835780635af7319c146102ae5761012a565b806306fdde031461012f578063081752bb1461015a578063089fe6aa146101855780631141d7de146101b05780631eaa1c8b146101db575b600080fd5b34801561013b57600080fd5b506101446104a8565b604051610151919061400f565b60405180910390f35b34801561016657600080fd5b5061016f610546565b60405161017c9190613e41565b60405180910390f35b34801561019157600080fd5b5061019a61056c565b6040516101a7919061414d565b60405180910390f35b3480156101bc57600080fd5b506101c5610572565b6040516101d2919061400f565b60405180910390f35b3480156101e757600080fd5b506101f0610610565b005b3480156101fe57600080fd5b5061021960048036038101906102149190613759565b610934565b604051610226919061400f565b60405180910390f35b34801561023b57600080fd5b506102446109f0565b6040516102519190614168565b60405180910390f35b34801561026657600080fd5b50610281600480360381019061027c9190613759565b6109f6565b005b34801561028f57600080fd5b50610298610a00565b6040516102a59190614168565b60405180910390f35b6102c860048036038101906102c391906136f2565b610a06565b6040516102d59190613ff4565b60405180910390f35b3480156102ea57600080fd5b506102f3611963565b604051610300919061400f565b60405180910390f35b34801561031557600080fd5b5061031e611a01565b60405161032b9190613e41565b60405180910390f35b34801561034057600080fd5b50610349611a27565b6040516103569190613e41565b60405180910390f35b34801561036b57600080fd5b50610374611a4d565b6040516103819190613e77565b60405180910390f35b6103a4600480360381019061039f91906136b1565b611a73565b005b3480156103b257600080fd5b506103bb6125b2565b6040516103c89190613e41565b60405180910390f35b3480156103dd57600080fd5b506103e66125d8565b6040516103f39190614168565b60405180910390f35b34801561040857600080fd5b506104116125de565b60405161041e9190614168565b60405180910390f35b34801561043357600080fd5b5061043c6125e4565b6040516104499190613ff4565b60405180910390f35b34801561045e57600080fd5b506104676125f7565b6040516104749190614168565b60405180910390f35b34801561048957600080fd5b506104926125fd565b60405161049f9190613e41565b60405180910390f35b60018054600181600116156101000203166002900480601f01602080910402602001604051908101604052809291908181526020018280546001816001161561010002031660029004801561053e5780601f106105135761010080835404028352916020019161053e565b820191906000526020600020905b81548152906001019060200180831161052157829003601f168201915b505050505081565b601160009054906101000a900473ffffffffffffffffffffffffffffffffffffffff1681565b610bb881565b600b8054600181600116156101000203166002900480601f0160208091040260200160405190810160405280929190818152602001828054600181600116156101000203166002900480156106085780601f106105dd57610100808354040283529160200191610608565b820191906000526020600020905b8154815290600101906020018083116105eb57829003601f168201915b505050505081565b4260095410610654576040517f08c379a000000000000000000000000000000000000000000000000000000000815260040161064b906140f1565b60405180910390fd5b600460009054906101000a900473ffffffffffffffffffffffffffffffffffffffff1673ffffffffffffffffffffffffffffffffffffffff163373ffffffffffffffffffffffffffffffffffffffff16146106e4576040517f08c379a00000000000000000000000000000000000000000000000000000000081526004016106db906140b1565b60405180910390fd5b600073ffffffffffffffffffffffffffffffffffffffff16600860009054906101000a900473ffffffffffffffffffffffffffffffffffffffff1673ffffffffffffffffffffffffffffffffffffffff1614156107af576000479050600460009054906101000a900473ffffffffffffffffffffffffffffffffffffffff1673ffffffffffffffffffffffffffffffffffffffff166108fc829081150290604051600060405180830381858888f193505050501580156107a8573d6000803e3d6000fd5b5050610932565b6000600860009054906101000a900473ffffffffffffffffffffffffffffffffffffffff1673ffffffffffffffffffffffffffffffffffffffff166370a08231306040518263ffffffff1660e01b815260040161080c9190613e41565b60206040518083038186803b15801561082457600080fd5b505afa158015610838573d6000803e3d6000fd5b505050506040513d601f19601f8201168201806040525081019061085c9190613782565b9050600860009054906101000a900473ffffffffffffffffffffffffffffffffffffffff1673ffffffffffffffffffffffffffffffffffffffff1663a9059cbb600460009054906101000a900473ffffffffffffffffffffffffffffffffffffffff16836040518363ffffffff1660e01b81526004016108dd929190613ec9565b602060405180830381600087803b1580156108f757600080fd5b505af115801561090b573d6000803e3d6000fd5b505050506040513d601f19601f8201168201806040525081019061092f9190613688565b50505b565b6006818154811061094457600080fd5b906000526020600020016000915090508054600181600116156101000203166002900480601f0160208091040260200160405190810160405280929190818152602001828054600181600116156101000203166002900480156109e85780601f106109bd576101008083540402835291602001916109e8565b820191906000526020600020905b8154815290600101906020018083116109cb57829003601f168201915b505050505081565b60035481565b8060098190555050565b60095481565b6000818373ffffffffffffffffffffffffffffffffffffffff166370a08231336040518263ffffffff1660e01b8152600401610a429190613e5c565b60206040518083038186803b158015610a5a57600080fd5b505afa158015610a6e573d6000803e3d6000fd5b505050506040513d601f19601f82011682018060405250810190610a929190613782565b1015610ad3576040517f08c379a0000000000000000000000000000000000000000000000000000000008152600401610aca90614051565b60405180910390fd5b4260095411610b17576040517f08c379a0000000000000000000000000000000000000000000000000000000008152600401610b0e906140d1565b60405180910390fd5b600073ffffffffffffffffffffffffffffffffffffffff168373ffffffffffffffffffffffffffffffffffffffff161415610b87576040517f08c379a0000000000000000000000000000000000000000000000000000000008152600401610b7e90614111565b60405180910390fd5b60008073ffffffffffffffffffffffffffffffffffffffff16600860009054906101000a900473ffffffffffffffffffffffffffffffffffffffff1673ffffffffffffffffffffffffffffffffffffffff16149050600081158015610c3957508473ffffffffffffffffffffffffffffffffffffffff16600860009054906101000a900473ffffffffffffffffffffffffffffffffffffffff1673ffffffffffffffffffffffffffffffffffffffff16145b15610c5f57610c4784612623565b9050610c54868683612649565b60019250505061195c565b8115610cc957600f60009054906101000a900473ffffffffffffffffffffffffffffffffffffffff16600860006101000a81548173ffffffffffffffffffffffffffffffffffffffff021916908373ffffffffffffffffffffffffffffffffffffffff1602179055505b600073ffffffffffffffffffffffffffffffffffffffff16600d60009054906101000a900473ffffffffffffffffffffffffffffffffffffffff1673ffffffffffffffffffffffffffffffffffffffff16631698ee8287600860009054906101000a900473ffffffffffffffffffffffffffffffffffffffff16610bb86040518463ffffffff1660e01b8152600401610d6493929190613f58565b60206040518083038186803b158015610d7c57600080fd5b505afa158015610d90573d6000803e3d6000fd5b505050506040513d601f19601f82011682018060405250810190610db4919061365f565b73ffffffffffffffffffffffffffffffffffffffff161415610e0b576040517f08c379a0000000000000000000000000000000000000000000000000000000008152600401610e0290614071565b60405180910390fd5b6000600267ffffffffffffffff81118015610e2557600080fd5b50604051908082528060200260200182016040528015610e545781602001602082028036833780820191505090505b5090508581600081518110610e6557fe5b602002602001019073ffffffffffffffffffffffffffffffffffffffff16908173ffffffffffffffffffffffffffffffffffffffff1681525050600860009054906101000a900473ffffffffffffffffffffffffffffffffffffffff1681600181518110610ecf57fe5b602002602001019073ffffffffffffffffffffffffffffffffffffffff16908173ffffffffffffffffffffffffffffffffffffffff1681525050600080610f398789600860009054906101000a900473ffffffffffffffffffffffffffffffffffffffff16612a8b565b80925081955050508773ffffffffffffffffffffffffffffffffffffffff166323b872dd3330876040518463ffffffff1660e01b8152600401610f7e93929190613e92565b602060405180830381600087803b158015610f9857600080fd5b505af1158015610fac573d6000803e3d6000fd5b505050506040513d601f19601f82011682018060405250810190610fd09190613688565b5060011515601060008a73ffffffffffffffffffffffffffffffffffffffff1673ffffffffffffffffffffffffffffffffffffffff16815260200190815260200160002060009054906101000a900460ff16151514611152578773ffffffffffffffffffffffffffffffffffffffff1663095ea7b3600e60009054906101000a900473ffffffffffffffffffffffffffffffffffffffff167fffffffffffffffffffffffffffffffffffffffffffffffffffffffffffffffff6040518363ffffffff1660e01b81526004016110a6929190613fcb565b602060405180830381600087803b1580156110c057600080fd5b505af11580156110d4573d6000803e3d6000fd5b505050506040513d601f19601f820116820180604052508101906110f89190613688565b506001601060008a73ffffffffffffffffffffffffffffffffffffffff1673ffffffffffffffffffffffffffffffffffffffff16815260200190815260200160002060006101000a81548160ff0219169083151502179055505b600085156114075760006040518061010001604052808b73ffffffffffffffffffffffffffffffffffffffff168152602001600f60009054906101000a900473ffffffffffffffffffffffffffffffffffffffff1673ffffffffffffffffffffffffffffffffffffffff168152602001610bb862ffffff1681526020013073ffffffffffffffffffffffffffffffffffffffff1681526020016103e8420181526020018781526020016112246127106112166125e488612b0090919063ffffffff16565b612b8690919063ffffffff16565b8152602001600073ffffffffffffffffffffffffffffffffffffffff168152509050600e60009054906101000a900473ffffffffffffffffffffffffffffffffffffffff1673ffffffffffffffffffffffffffffffffffffffff1663414bf389826040518263ffffffff1660e01b81526004016112a19190614131565b602060405180830381600087803b1580156112bb57600080fd5b505af11580156112cf573d6000803e3d6000fd5b505050506040513d601f19601f820116820180604052508101906112f39190613782565b9150600073ffffffffffffffffffffffffffffffffffffffff16601160009054906101000a900473ffffffffffffffffffffffffffffffffffffffff1673ffffffffffffffffffffffffffffffffffffffff161461140157601260009054906101000a900473ffffffffffffffffffffffffffffffffffffffff1673ffffffffffffffffffffffffffffffffffffffff16639a2ac6d547601160009054906101000a900473ffffffffffffffffffffffffffffffffffffffff16621e84806040518463ffffffff1660e01b81526004016113ce929190613f8f565b6000604051808303818588803b1580156113e757600080fd5b505af11580156113fb573d6000803e3d6000fd5b50505050505b50611787565b60006040518061010001604052808660008151811061142257fe5b602002602001015173ffffffffffffffffffffffffffffffffffffffff1681526020018660018151811061145257fe5b602002602001015173ffffffffffffffffffffffffffffffffffffffff168152602001610bb862ffffff1681526020013073ffffffffffffffffffffffffffffffffffffffff1681526020016103e8420181526020018781526020016114d76127106114c96125e488612b0090919063ffffffff16565b612b8690919063ffffffff16565b8152602001600073ffffffffffffffffffffffffffffffffffffffff168152509050600e60009054906101000a900473ffffffffffffffffffffffffffffffffffffffff1673ffffffffffffffffffffffffffffffffffffffff1663414bf389826040518263ffffffff1660e01b81526004016115549190614131565b602060405180830381600087803b15801561156e57600080fd5b505af1158015611582573d6000803e3d6000fd5b505050506040513d601f19601f820116820180604052508101906115a69190613782565b9150600073ffffffffffffffffffffffffffffffffffffffff16601160009054906101000a900473ffffffffffffffffffffffffffffffffffffffff1673ffffffffffffffffffffffffffffffffffffffff161461178557601260009054906101000a900473ffffffffffffffffffffffffffffffffffffffff1673ffffffffffffffffffffffffffffffffffffffff1663838b2520600860009054906101000a900473ffffffffffffffffffffffffffffffffffffffff16600c60009054906101000a900473ffffffffffffffffffffffffffffffffffffffff16601160009054906101000a900473ffffffffffffffffffffffffffffffffffffffff168e73ffffffffffffffffffffffffffffffffffffffff166370a08231306040518263ffffffff1660e01b81526004016116de9190613e41565b60206040518083038186803b1580156116f657600080fd5b505afa15801561170a573d6000803e3d6000fd5b505050506040513d601f19601f8201168201806040525081019061172e9190613782565b621e84806040518663ffffffff1660e01b8152600401611752959493929190613ef2565b600060405180830381600087803b15801561176c57600080fd5b505af1158015611780573d6000803e3d6000fd5b505050505b505b8460026000828254019250508190555060068a9080600181540180825580915050600190039060005260206000200160009091909190915090805190602001906117d29291906134e3565b50600760008154809291906001019190505550600354600254141561185d577f314217ebdf17981d4a26c0519c8810c5b95359d28c649f331ae684df59190db2600254600354600054600160066040516118309594939291906141e4565b60405180910390a16001600460146101000a81548160ff02191690831515021790555061185b612bd0565b505b7f1c9e0c4c164a4cd3223a9c561d40e2223428d825bae108fdae97049add3dcfff3460005460018d8d604051611897959493929190614183565b60405180910390a160001515600a60003373ffffffffffffffffffffffffffffffffffffffff1673ffffffffffffffffffffffffffffffffffffffff16815260200190815260200160002060009054906101000a900460ff1615151415611951576001600a60003373ffffffffffffffffffffffffffffffffffffffff1673ffffffffffffffffffffffffffffffffffffffff16815260200190815260200160002060006101000a81548160ff0219169083151502179055505b600196505050505050505b9392505050565b60058054600181600116156101000203166002900480601f0160208091040260200160405190810160405280929190818152602001828054600181600116156101000203166002900480156119f95780601f106119ce576101008083540402835291602001916119f9565b820191906000526020600020905b8154815290600101906020018083116119dc57829003601f168201915b505050505081565b601260009054906101000a900473ffffffffffffffffffffffffffffffffffffffff1681565b600d60009054906101000a900473ffffffffffffffffffffffffffffffffffffffff1681565b600460009054906101000a900473ffffffffffffffffffffffffffffffffffffffff1681565b4260095411611ab7576040517f08c379a0000000000000000000000000000000000000000000000000000000008152600401611aae906140d1565b60405180910390fd5b60003411611afa576040517f08c379a0000000000000000000000000000000000000000000000000000000008152600401611af190614091565b60405180910390fd5b60008073ffffffffffffffffffffffffffffffffffffffff16600860009054906101000a900473ffffffffffffffffffffffffffffffffffffffff1673ffffffffffffffffffffffffffffffffffffffff161415611de757611b5b34612623565b90508060026000828254019250508190555080341115611bbf573373ffffffffffffffffffffffffffffffffffffffff166108fc8234039081150290604051600060405180830381858888f19350505050158015611bbd573d6000803e3d6000fd5b505b60001515600a60003373ffffffffffffffffffffffffffffffffffffffff1673ffffffffffffffffffffffffffffffffffffffff16815260200190815260200160002060009054906101000a900460ff1615151415611c71576001600a60003373ffffffffffffffffffffffffffffffffffffffff1673ffffffffffffffffffffffffffffffffffffffff16815260200190815260200160002060006101000a81548160ff0219169083151502179055505b7f1c9e0c4c164a4cd3223a9c561d40e2223428d825bae108fdae97049add3dcfff34600054600185600f60009054906101000a900473ffffffffffffffffffffffffffffffffffffffff16604051611ccd959493929190614183565b60405180910390a1600073ffffffffffffffffffffffffffffffffffffffff16601160009054906101000a900473ffffffffffffffffffffffffffffffffffffffff1673ffffffffffffffffffffffffffffffffffffffff1614611de157601260009054906101000a900473ffffffffffffffffffffffffffffffffffffffff1673ffffffffffffffffffffffffffffffffffffffff16639a2ac6d547601160009054906101000a900473ffffffffffffffffffffffffffffffffffffffff16621e84806040518463ffffffff1660e01b8152600401611dae929190613f8f565b6000604051808303818588803b158015611dc757600080fd5b505af1158015611ddb573d6000803e3d6000fd5b50505050505b506125af565b600073ffffffffffffffffffffffffffffffffffffffff16600d60009054906101000a900473ffffffffffffffffffffffffffffffffffffffff1673ffffffffffffffffffffffffffffffffffffffff16631698ee82600f60009054906101000a900473ffffffffffffffffffffffffffffffffffffffff16600860009054906101000a900473ffffffffffffffffffffffffffffffffffffffff16610bb86040518463ffffffff1660e01b8152600401611ea493929190613f58565b60206040518083038186803b158015611ebc57600080fd5b505afa158015611ed0573d6000803e3d6000fd5b505050506040513d601f19601f82011682018060405250810190611ef4919061365f565b73ffffffffffffffffffffffffffffffffffffffff161415611f4b576040517f08c379a0000000000000000000000000000000000000000000000000000000008152600401611f4290614031565b60405180910390fd5b6000600267ffffffffffffffff81118015611f6557600080fd5b50604051908082528060200260200182016040528015611f945781602001602082028036833780820191505090505b509050600f60009054906101000a900473ffffffffffffffffffffffffffffffffffffffff1681600081518110611fc757fe5b602002602001019073ffffffffffffffffffffffffffffffffffffffff16908173ffffffffffffffffffffffffffffffffffffffff1681525050600860009054906101000a900473ffffffffffffffffffffffffffffffffffffffff168160018151811061203157fe5b602002602001019073ffffffffffffffffffffffffffffffffffffffff16908173ffffffffffffffffffffffffffffffffffffffff168152505060006120ae348360008151811061207e57fe5b6020026020010151600860009054906101000a900473ffffffffffffffffffffffffffffffffffffffff16612a8b565b80925081945050506000604051806101000160405280846000815181106120d157fe5b602002602001015173ffffffffffffffffffffffffffffffffffffffff1681526020018460018151811061210157fe5b602002602001015173ffffffffffffffffffffffffffffffffffffffff168152602001610bb862ffffff1681526020013073ffffffffffffffffffffffffffffffffffffffff1681526020016103e842018152602001858152602001838152602001600073ffffffffffffffffffffffffffffffffffffffff1681525090506000600e60009054906101000a900473ffffffffffffffffffffffffffffffffffffffff1673ffffffffffffffffffffffffffffffffffffffff1663414bf38986846040518363ffffffff1660e01b81526004016121de9190614131565b6020604051808303818588803b1580156121f757600080fd5b505af115801561220b573d6000803e3d6000fd5b50505050506040513d601f19601f820116820180604052508101906122309190613782565b905060001515600a60003373ffffffffffffffffffffffffffffffffffffffff1673ffffffffffffffffffffffffffffffffffffffff16815260200190815260200160002060009054906101000a900460ff16151514156122e4576001600a60003373ffffffffffffffffffffffffffffffffffffffff1673ffffffffffffffffffffffffffffffffffffffff16815260200190815260200160002060006101000a81548160ff0219169083151502179055505b8060026000828254019250508190555084341115612346573373ffffffffffffffffffffffffffffffffffffffff166108fc8634039081150290604051600060405180830381858888f19350505050158015612344573d6000803e3d6000fd5b505b7f1c9e0c4c164a4cd3223a9c561d40e2223428d825bae108fdae97049add3dcfff34600054600189600f60009054906101000a900473ffffffffffffffffffffffffffffffffffffffff166040516123a2959493929190614183565b60405180910390a1600073ffffffffffffffffffffffffffffffffffffffff16601160009054906101000a900473ffffffffffffffffffffffffffffffffffffffff1673ffffffffffffffffffffffffffffffffffffffff16146125a957601260009054906101000a900473ffffffffffffffffffffffffffffffffffffffff1673ffffffffffffffffffffffffffffffffffffffff1663838b2520600860009054906101000a900473ffffffffffffffffffffffffffffffffffffffff16600c60009054906101000a900473ffffffffffffffffffffffffffffffffffffffff16601160009054906101000a900473ffffffffffffffffffffffffffffffffffffffff16600860009054906101000a900473ffffffffffffffffffffffffffffffffffffffff1673ffffffffffffffffffffffffffffffffffffffff166370a08231306040518263ffffffff1660e01b81526004016125029190613e41565b60206040518083038186803b15801561251a57600080fd5b505afa15801561252e573d6000803e3d6000fd5b505050506040513d601f19601f820116820180604052508101906125529190613782565b621e84806040518663ffffffff1660e01b8152600401612576959493929190613ef2565b600060405180830381600087803b15801561259057600080fd5b505af11580156125a4573d6000803e3d6000fd5b505050505b50505050505b50565b600f60009054906101000a900473ffffffffffffffffffffffffffffffffffffffff1681565b60005481565b60025481565b600460149054906101000a900460ff1681565b60075481565b600e60009054906101000a900473ffffffffffffffffffffffffffffffffffffffff1681565b60008060025460035403905080831161263f5782915050612644565b809150505b919050565b8173ffffffffffffffffffffffffffffffffffffffff166323b872dd3330846040518463ffffffff1660e01b815260040161268693929190613e92565b602060405180830381600087803b1580156126a057600080fd5b505af11580156126b4573d6000803e3d6000fd5b505050506040513d601f19601f820116820180604052508101906126d89190613688565b50806002600082825401925050819055506006839080600181540180825580915050600190039060005260206000200160009091909190915090805190602001906127249291906134e3565b5060076000815480929190600101919050555060035460025414156127af577f314217ebdf17981d4a26c0519c8810c5b95359d28c649f331ae684df59190db2600254600354600054600160066040516127829594939291906141e4565b60405180910390a16001600460146101000a81548160ff0219169083151502179055506127ad612bd0565b505b7f1c9e0c4c164a4cd3223a9c561d40e2223428d825bae108fdae97049add3dcfff34600054600186866040516127e9959493929190614183565b60405180910390a160001515600a60003373ffffffffffffffffffffffffffffffffffffffff1673ffffffffffffffffffffffffffffffffffffffff16815260200190815260200160002060009054906101000a900460ff16151514156128a3576001600a60003373ffffffffffffffffffffffffffffffffffffffff1673ffffffffffffffffffffffffffffffffffffffff16815260200190815260200160002060006101000a81548160ff0219169083151502179055505b600073ffffffffffffffffffffffffffffffffffffffff16601160009054906101000a900473ffffffffffffffffffffffffffffffffffffffff1673ffffffffffffffffffffffffffffffffffffffff1614612a865760008273ffffffffffffffffffffffffffffffffffffffff166370a08231306040518263ffffffff1660e01b81526004016129349190613e41565b60206040518083038186803b15801561294c57600080fd5b505afa158015612960573d6000803e3d6000fd5b505050506040513d601f19601f820116820180604052508101906129849190613782565b9050601260009054906101000a900473ffffffffffffffffffffffffffffffffffffffff1673ffffffffffffffffffffffffffffffffffffffff1663838b2520600860009054906101000a900473ffffffffffffffffffffffffffffffffffffffff16600c60009054906101000a900473ffffffffffffffffffffffffffffffffffffffff16601160009054906101000a900473ffffffffffffffffffffffffffffffffffffffff1685621e84806040518663ffffffff1660e01b8152600401612a52959493929190613ef2565b600060405180830381600087803b158015612a6c57600080fd5b505af1158015612a80573d6000803e3d6000fd5b50505050505b505050565b600080600080612abe600d60009054906101000a900473ffffffffffffffffffffffffffffffffffffffff168787612e26565b915091506000612acf888484612f4f565b90506000612adc82612623565b90506000612aeb828587612f4f565b90508082965096505050505050935093915050565b600080831415612b135760009050612b80565b6000828402905082848281612b2457fe5b0414612b7b576040517f08c379a00000000000000000000000000000000000000000000000000000000081526004018080602001828103825260218152602001806144e06021913960400191505060405180910390fd5b809150505b92915050565b6000612bc883836040518060400160405280601a81526020017f536166654d6174683a206469766973696f6e206279207a65726f00000000000081525061307f565b905092915050565b60008073ffffffffffffffffffffffffffffffffffffffff16600860009054906101000a900473ffffffffffffffffffffffffffffffffffffffff1673ffffffffffffffffffffffffffffffffffffffff161415612c9c576000479050600460009054906101000a900473ffffffffffffffffffffffffffffffffffffffff1673ffffffffffffffffffffffffffffffffffffffff166108fc829081150290604051600060405180830381858888f19350505050158015612c95573d6000803e3d6000fd5b5050612e1f565b6000600860009054906101000a900473ffffffffffffffffffffffffffffffffffffffff1673ffffffffffffffffffffffffffffffffffffffff166370a08231306040518263ffffffff1660e01b8152600401612cf99190613e41565b60206040518083038186803b158015612d1157600080fd5b505afa158015612d25573d6000803e3d6000fd5b505050506040513d601f19601f82011682018060405250810190612d499190613782565b9050600860009054906101000a900473ffffffffffffffffffffffffffffffffffffffff1673ffffffffffffffffffffffffffffffffffffffff1663a9059cbb600460009054906101000a900473ffffffffffffffffffffffffffffffffffffffff16836040518363ffffffff1660e01b8152600401612dca929190613ec9565b602060405180830381600087803b158015612de457600080fd5b505af1158015612df8573d6000803e3d6000fd5b505050506040513d601f19601f82011682018060405250810190612e1c9190613688565b50505b6001905090565b6000806000612e358585613145565b509050600080612e468888886132bc565b73ffffffffffffffffffffffffffffffffffffffff16630902f1ac6040518163ffffffff1660e01b815260040160606040518083038186803b158015612e8b57600080fd5b505afa158015612e9f573d6000803e3d6000fd5b505050506040513d6060811015612eb557600080fd5b81019080805190602001909291908051906020019092919080519060200190929190505050506dffffffffffffffffffffffffffff1691506dffffffffffffffffffffffffffff1691508273ffffffffffffffffffffffffffffffffffffffff168773ffffffffffffffffffffffffffffffffffffffff1614612f39578082612f3c565b81815b8095508196505050505050935093915050565b6000808411612fa9576040517f08c379a000000000000000000000000000000000000000000000000000000000815260040180806020018281038252602b815260200180614501602b913960400191505060405180910390fd5b600083118015612fb95750600082115b61300e576040517f08c379a00000000000000000000000000000000000000000000000000000000081526004018080602001828103825260288152602001806144b86028913960400191505060405180910390fd5b60006130256103e5866133d590919063ffffffff16565b9050600061303c84836133d590919063ffffffff16565b90506000613067836130596103e8896133d590919063ffffffff16565b61345b90919063ffffffff16565b905080828161307257fe5b0493505050509392505050565b6000808311829061312b576040517f08c379a00000000000000000000000000000000000000000000000000000000081526004018080602001828103825283818151815260200191508051906020019080838360005b838110156130f05780820151818401526020810190506130d5565b50505050905090810190601f16801561311d5780820380516001836020036101000a031916815260200191505b509250505060405180910390fd5b50600083858161313757fe5b049050809150509392505050565b6000808273ffffffffffffffffffffffffffffffffffffffff168473ffffffffffffffffffffffffffffffffffffffff1614156131cd576040517f08c379a00000000000000000000000000000000000000000000000000000000081526004018080602001828103825260258152602001806144936025913960400191505060405180910390fd5b8273ffffffffffffffffffffffffffffffffffffffff168473ffffffffffffffffffffffffffffffffffffffff161061320757828461320a565b83835b8092508193505050600073ffffffffffffffffffffffffffffffffffffffff168273ffffffffffffffffffffffffffffffffffffffff1614156132b5576040517f08c379a000000000000000000000000000000000000000000000000000000000815260040180806020018281038252601e8152602001807f556e697377617056324c6962726172793a205a45524f5f41444452455353000081525060200191505060405180910390fd5b9250929050565b60008060006132cb8585613145565b91509150858282604051602001808373ffffffffffffffffffffffffffffffffffffffff1660601b81526014018273ffffffffffffffffffffffffffffffffffffffff1660601b8152601401925050506040516020818303038152906040528051906020012060405160200180807fff000000000000000000000000000000000000000000000000000000000000008152506001018373ffffffffffffffffffffffffffffffffffffffff1660601b8152601401828152602001807f96e8ac4277198ff8b6f785478aa9a39f403cb768dd02cbee326c3e7da348845f815250602001925050506040516020818303038152906040528051906020012060001c925050509392505050565b6000808314156133e85760009050613455565b60008284029050828482816133f957fe5b0414613450576040517f08c379a00000000000000000000000000000000000000000000000000000000081526004018080602001828103825260218152602001806144e06021913960400191505060405180910390fd5b809150505b92915050565b6000808284019050838110156134d9576040517f08c379a000000000000000000000000000000000000000000000000000000000815260040180806020018281038252601b8152602001807f536166654d6174683a206164646974696f6e206f766572666c6f77000000000081525060200191505060405180910390fd5b8091505092915050565b828054600181600116156101000203166002900490600052602060002090601f0160209004810192826135195760008555613560565b82601f1061353257805160ff1916838001178555613560565b82800160010185558215613560579182015b8281111561355f578251825591602001919060010190613544565b5b50905061356d9190613571565b5090565b5b8082111561358a576000816000905550600101613572565b5090565b60006135a161359c84614276565b614245565b9050828152602081018484840111156135b957600080fd5b6135c48482856143f8565b509392505050565b6000813590506135db8161444d565b92915050565b6000815190506135f08161444d565b92915050565b60008151905061360581614464565b92915050565b600082601f83011261361c57600080fd5b813561362c84826020860161358e565b91505092915050565b6000813590506136448161447b565b92915050565b6000815190506136598161447b565b92915050565b60006020828403121561367157600080fd5b600061367f848285016135e1565b91505092915050565b60006020828403121561369a57600080fd5b60006136a8848285016135f6565b91505092915050565b6000602082840312156136c357600080fd5b600082013567ffffffffffffffff8111156136dd57600080fd5b6136e98482850161360b565b91505092915050565b60008060006060848603121561370757600080fd5b600084013567ffffffffffffffff81111561372157600080fd5b61372d8682870161360b565b935050602061373e868287016135cc565b925050604061374f86828701613635565b9150509250925092565b60006020828403121561376b57600080fd5b600061377984828501613635565b91505092915050565b60006020828403121561379457600080fd5b60006137a28482850161364a565b91505092915050565b60006137b783836138c6565b905092915050565b6137c8816143b0565b82525050565b6137d781614349565b82525050565b6137e681614337565b82525050565b6137f581614337565b82525050565b6000613806826142d0565b61381081856142f3565b935083602082028501613822856142a6565b8060005b8581101561385d5784840389528161383e85826137ab565b9450613849836142e6565b925060208a01995050600181019050613826565b50829750879550505050505092915050565b6138788161435b565b82525050565b613887816143c2565b82525050565b6000613898826142db565b6138a28185614326565b93506138b2818560208601614407565b6138bb8161443c565b840191505092915050565b6000815460018116600081146138e357600181146139095761394d565b607f60028304166138f48187614315565b955060ff19831686526020860193505061394d565b600282046139178187614315565b9550613922856142bb565b60005b8281101561394457815481890152600182019150602081019050613925565b80880195505050505b505092915050565b6000815460018116600081146139725760018114613998576139dc565b607f60028304166139838187614326565b955060ff1983168652602086019350506139dc565b600282046139a68187614326565b95506139b1856142bb565b60005b828110156139d3578154818901526001820191506020810190506139b4565b80880195505050505b505092915050565b60006139f1601583614326565b91507f6e6f2064697265637420706f6f6c2065786973747300000000000000000000006000830152602082019050919050565b6000613a31600283614304565b91507f30780000000000000000000000000000000000000000000000000000000000006000830152602082019050919050565b6000613a71602383614326565b91507f43616d706169676e3a3a646f6e6174653a20496e737566696369656e7420667560008301527f6e647300000000000000000000000000000000000000000000000000000000006020830152604082019050919050565b6000613ad7602e83614326565b91507f537570706f72744368696c6472656e3a3a646f6e6174653a204e6f206469726560008301527f637420706f6f6c206578697374730000000000000000000000000000000000006020830152604082019050919050565b6000613b3d602f83614326565b91507f537570706f72744368696c6472656e3a3a646f6e6174654554483a20596f752060008301527f6d7573742073656e6420657468657200000000000000000000000000000000006020830152604082019050919050565b6000613ba3604683614326565b91507f63616d706169676e3a3a6578706972656457697468647261773a204f6e6c792060008301527f7468652062656e65666963696172792063616e2077697468647261772074686560208301527f2066756e647300000000000000000000000000000000000000000000000000006040830152606082019050919050565b6000613c2f603483614326565b91507f43616d706169676e3a3a646f6e6174653a20546869732063616d706169676e2060008301527f68617320616c72656164792066696e69736865640000000000000000000000006020830152604082019050919050565b6000613c95603883614326565b91507f43616d706169676e3a3a6578706972656457697468647261773a20546869732060008301527f63616d706169676e206973207374696c6c2061637469766500000000000000006020830152604082019050919050565b6000613cfb604083614326565b91507f537570706f72744368696c6472656e3a3a646f6e6174653a20646f6e6f72546f60008301527f6b656e203d3d2030782c2075736520646f6e61746545544820696e73746561646020830152604082019050919050565b61010082016000820151613d6b60008501826137dd565b506020820151613d7e60208501826137dd565b506040820151613d916040850182613e05565b506060820151613da460608501826137dd565b506080820151613db76080850182613e23565b5060a0820151613dca60a0850182613e23565b5060c0820151613ddd60c0850182613e23565b5060e0820151613df060e0850182613df6565b50505050565b613dff81614367565b82525050565b613e0e81614387565b82525050565b613e1d81614387565b82525050565b613e2c81614396565b82525050565b613e3b81614396565b82525050565b6000602082019050613e5660008301846137ec565b92915050565b6000602082019050613e7160008301846137bf565b92915050565b6000602082019050613e8c60008301846137ce565b92915050565b6000606082019050613ea760008301866137bf565b613eb460208301856137ec565b613ec16040830184613e32565b949350505050565b6000604082019050613ede60008301856137bf565b613eeb6020830184613e32565b9392505050565b600060c082019050613f0760008301886137ec565b613f1460208301876137ec565b613f2160408301866137ec565b613f2e6060830185613e32565b613f3b608083018461387e565b81810360a0830152613f4c81613a24565b90509695505050505050565b6000606082019050613f6d60008301866137ec565b613f7a60208301856137ec565b613f876040830184613e14565b949350505050565b6000606082019050613fa460008301856137ec565b613fb1602083018461387e565b8181036040830152613fc281613a24565b90509392505050565b6000604082019050613fe060008301856137ec565b613fed6020830184613e32565b9392505050565b6000602082019050614009600083018461386f565b92915050565b60006020820190508181036000830152614029818461388d565b905092915050565b6000602082019050818103600083015261404a816139e4565b9050919050565b6000602082019050818103600083015261406a81613a64565b9050919050565b6000602082019050818103600083015261408a81613aca565b9050919050565b600060208201905081810360008301526140aa81613b30565b9050919050565b600060208201905081810360008301526140ca81613b96565b9050919050565b600060208201905081810360008301526140ea81613c22565b9050919050565b6000602082019050818103600083015261410a81613c88565b9050919050565b6000602082019050818103600083015261412a81613cee565b9050919050565b6000610100820190506141476000830184613d54565b92915050565b60006020820190506141626000830184613e14565b92915050565b600060208201905061417d6000830184613e32565b92915050565b600060a0820190506141986000830188613e32565b6141a56020830187613e32565b81810360408301526141b78186613955565b905081810360608301526141cb818561388d565b90506141da60808301846137ec565b9695505050505050565b600060a0820190506141f96000830188613e32565b6142066020830187613e32565b6142136040830186613e32565b81810360608301526142258185613955565b9050818103608083015261423981846137fb565b90509695505050505050565b6000604051905081810181811067ffffffffffffffff8211171561426c5761426b61443a565b5b8060405250919050565b600067ffffffffffffffff8211156142915761429061443a565b5b601f19601f8301169050602081019050919050565b60008190508160005260206000209050919050565b60008190508160005260206000209050919050565b600081549050919050565b600081519050919050565b6000600182019050919050565b600082825260208201905092915050565b600082825260208201905092915050565b600082825260208201905092915050565b600082825260208201905092915050565b600061434282614367565b9050919050565b600061435482614367565b9050919050565b60008115159050919050565b600073ffffffffffffffffffffffffffffffffffffffff82169050919050565b600062ffffff82169050919050565b6000819050919050565b600063ffffffff82169050919050565b60006143bb826143d4565b9050919050565b60006143cd826143a0565b9050919050565b60006143df826143e6565b9050919050565b60006143f182614367565b9050919050565b82818337600083830152505050565b60005b8381101561442557808201518184015260208101905061440a565b83811115614434576000848401525b50505050565bfe5b6000601f19601f8301169050919050565b61445681614337565b811461446157600080fd5b50565b61446d8161435b565b811461447857600080fd5b50565b61448481614396565b811461448f57600080fd5b5056fe556e697377617056324c6962726172793a204944454e544943414c5f414444524553534553556e697377617056324c6962726172793a20494e53554646494349454e545f4c4951554944495459536166654d6174683a206d756c7469706c69636174696f6e206f766572666c6f77556e697377617056324c6962726172793a20494e53554646494349454e545f494e5055545f414d4f554e54a2646970667358221220250342e7f2b8b08185726e9fa9f6c86ab237b3c939a260a2d82ebd4f7b21750d64736f6c63430007060033a2646970667358221220a437a49dfc530973a4928683139824646557a556900ce2ef2dddbe5ed039791464736f6c63430007060033",
  "immutableReferences": {},
  "source": "pragma solidity 0.7.6;\npragma abicoder v2;\nimport \"./1_Campaign.sol\";\nimport \"@openzeppelin/contracts/access/Ownable.sol\";\nimport \"@openzeppelin/contracts/math/SafeMath.sol\";\nimport \"@openzeppelin/contracts/token/ERC20/SafeERC20.sol\";\nimport \"@openzeppelin/contracts/token/ERC20/IERC20.sol\";\n\n// SPDX-License-Identifier: MIT\n\ncontract Organisation {\n    \n        \n    using SafeMath for uint;\n    using SafeERC20 for IERC20;\n    \n    uint public campaignCounter;\n    address public owner;\n    mapping(address => uint) public members;\n    mapping(uint => Campaign) public campaigns;\n    \n    constructor(){\n        owner = msg.sender;\n        members[owner] = 1;\n    }\n    \n    \n    function addCampaign(string memory _name, uint _goal, string memory _description, uint _endTimestamp, address _wantToken, string memory _uri, address _l2Address, address _wantTokenL2) public {\n        require(members[msg.sender] == 1);\n        require(_endTimestamp > block.timestamp, \"Organisation::addCampaign: Campaign must end in the future\");\n        campaignCounter ++;\n        campaigns[campaignCounter] = new Campaign(campaignCounter, _name, _goal, _description, _endTimestamp, _wantToken,\n                                                 _uri, _l2Address, _wantTokenL2);\n    }\n    \n    function addMember(address _member) public {\n        members[_member] = 1;\n    }\n}",
  "sourcePath": "/Users/Lara/FER/Web3.0/challenge3/eth-dapp/eth-dapp/truffle project/contracts/2_Organisation.sol",
  "compiler": {
    "name": "solc",
    "version": "0.7.6+commit.7338295f.Emscripten.clang"
  },
  "schemaVersion": "3.2.3",
  "updatedAt": "2021-09-03T00:09:36.066Z",
  "networkType": "ethereum",
  "devdoc": {
    "kind": "dev",
    "methods": {},
    "version": 1
  },
  "userdoc": {
    "kind": "user",
    "methods": {},
    "version": 1
  }
}